:020000040800F2
:1000000068170020E5010008210A0008190A000805
:100010001D0A0008DD05000823120008000000008A
:10002000000000000000000000000000450E000875
:10003000E105000800000000C50A0008490F00089B
:10004000FF010008FF010008FF010008FF01000890
:10005000FF010008FF010008FF010008FF01000880
:10006000E5050008FF010008FF010008FF01000886
:10007000FF010008FF010008FF010008FF01000860
:10008000FF010008FF010008FF010008FF01000850
:10009000FF010008FF010008FF010008FF01000840
:1000A000FF010008FF010008FF010008FF01000830
:1000B000FF010008FF010008FF010008FF01000820
:1000C000FF010008FF010008FF010008FF01000810
:1000D000FF010008B10F0008FF010008FF01000840
:1000E000FF010008FF010008FF010008FF010008F0
:1000F000FF010008FF010008FF010008FF010008E0
:10010000FF010008FF010008FF010008FF010008CF
:10011000FF010008FF010008FF010008FF010008BF
:10012000FF010008FF010008FF010008FF010008AF
:1001300000F002F800F041F80AA090E8000C8244B8
:100140008344AAF10107DA4501D100F036F8AFF295
:10015000090EBAE80F0013F0010F18BFFB1A43F0A5
:10016000010318476817000088170000103A24BFE1
:1001700078C878C1FAD8520724BF30C830C144BF0C
:1001800004680C607047000000230024002500264E
:10019000103A28BF78C1FBD8520728BF30C148BFEA
:1001A0000B607047642900F08180002070471FB504
:1001B00001F03AFB1FBD10B510BD00F0BDF91146AE
:1001C000FFF7F5FF01F044F900F0DBF903B4FFF7A6
:1001D000F2FF03BC01F027F830BF72B662B680F3BD
:1001E000088870470948804709480047FEE7FEE74E
:1001F000FEE7FEE7FEE7FEE7FEE7FEE7FEE7FEE7D7
:1002000004480549054A064B704700004D0F000899
:1002100031010008681100206817002068130020D1
:1002200068130020704700000FB4044910B503AAFA
:10023000029800F02BF910BC5DF814FB20000020A0
:100240002DE9F04104460E4600200AE0E168204610
:10025000884738B3252806D0D4E901219047206A81
:10026000401C2062F2E7E16820460027884705002D
:1002700018D0A5F14100192802D820354FF40067A5
:100280003246294620462760FFF78CFF40B10128FF
:1002900004D0F61D26F007060836D7E7361DD5E749
:1002A0002846D9E7206ABDE8F08100002DE9F04139
:1002B0000746002510687529394616A411D0AFF3FA
:1002C0000080002803DAC0F1000013A407E03968B9
:1002D0008A0701D511A402E0490704D510A401251D
:1002E00001E0AFF3008000210A2307F1240607E0B4
:1002F000B0FBF3F203FB1200303070541046491C7F
:100300000028F5D12B4622463846BDE8F04100F0E2
:1003100061B80000000000002D0000002B0000006C
:100320002000000010B5203AC0F00B80B1E8185052
:10033000203AA0E81850B1E81850A0E81850BFF4CF
:10034000F5AF5FEA027C24BFB1E81850A0E818506E
:1003500044BF18C918C0BDE810405FEA827C24BFC2
:1003600051F8043B40F8043B08BF7047D20728BF50
:1003700031F8023B48BF11F8012B28BF20F8023B9F
:1003800048BF00F8012B70474FF000020429C0F06D
:10039000128010F0030C00F08D80CCF1040CBCF145
:1003A000020F18BF00F8012BA8BF20F8022BA1EB09
:1003B0000C0100F07FB85FEAC17C24BF00F8012B7C
:1003C00000F8012B48BF00F8012B704770477047B9
:1003D000704770472DE9F0470D460446924699460E
:1003E00000F124080168880604D5E06921F01001B5
:1003F000216000E00120A84202DDA0EB050700E03B
:100400000027A16907EB050202EB0300A1EB000046
:10041000A0612068C00602D42046AFF30080002609
:1004200008E0D4E901211AF806009047206A401C30
:10043000761C20624E45F4DB2068C0060AD52046B3
:10044000AFF3008006E0D4E9012130209047206A14
:10045000401C2062381EA7F10107F4DC07E0D4E954
:10046000012118F805009047206A401C2062281ED0
:10047000A5F10105F3DC2046AFF3008020680006FB
:1004800002D50220BDE8F0870120FBE7074B70B5DD
:100490000C467B4400F039F80546204600F048F849
:1004A00010B14FF0FF3070BD284670BDFB0E00004C
:1004B0004FF0000200B5134694469646203922BFFD
:1004C000A0E80C50A0E80C50B1F12001BFF4F7AF48
:1004D000090728BFA0E80C5048BF0CC05DF804EB2A
:1004E000890028BF40F8042B08BF704748BF20F898
:1004F000022B11F0804F18BF00F8012B704700004D
:1005000001694A1C02610878704700B58FB0CDE9D7
:1005100001310021059105497944CDE903101146C7
:100520006846FFF78DFE0FB000BD0000E5FFFFFF3E
:10053000C06800F080007047754600F029F8AE46AC
:1005400005006946534620F00700854618B020B5DF
:10055000FFF756FEBDE820404FF000064FF00007C1
:100560004FF000084FF0000B21F00701AC46ACE85B
:10057000C009ACE8C009ACE8C009ACE8C0098D46C8
:1005800070470446AFF300802046FFF71FFE0000CF
:1005900000487047041100200048704708110020EF
:1005A00008B50121082000F08FFA4FF48070ADF8F3
:1005B00000004FF010008DF803004FF003008DF89D
:1005C00002006946044800F087F94FF48071024840
:1005D00000F020FA08BD0000000C014000BFFEE75B
:1005E0007047000010B5A6B04FF000044FF00400B3
:1005F00000F05EF8012848D1042000F053F80A20EA
:1006000000F032FE06E004F10100C4B24FF00A002F
:1006100000F02AFE04211E4800F0F0F908B9FA2C77
:10062000F1DD04211A4800F0E9F938BBFA2C25DB8A
:100630004FF09402174901A8FFF774FE0A2000F05A
:1006400013FE00F0FBF8352000F0A0F8124800F08F
:10065000A3F8942201A9104800F042FB00F0E4F84E
:100660004FF000000D4908604FF47A7000F0FCFD77
:100670004FF001000A49C1F8A00100BF00BF0421EA
:10068000034800F0BBF90028F9D026B010BD0000E7
:10069000001801403818000800F80708A08121421E
:1006A00000802142014908607047000014040140A5
:1006B00001464FF000000246074B1B6803EA0102A7
:1006C000064B1B680B4203D012B14FF0010001E052
:1006D0004FF0000070470000000401401404014086
:1006E0004FF0000126498279002A40D00A4612685C
:1006F000036822EA03020B461A6001F10402126841
:10070000036822EA030201F104031A60027911442A
:100710000A68036842EA03020A601A4A1268036818
:1007200022EA0302174B1A6003F1040212680368FD
:1007300022EA0302144B1A604279102A0ED1114AA0
:100740001268036842EA03020E4B1A600E4A1268EE
:10075000036842EA03020C4B1A600FE00849427931
:1007600011440A68036842EA03020A6006E002795B
:1007700011440A68036822EA03020A607047000015
:1007800000040140080401400C0401400149C86014
:10079000704700000020024030B504464FF00405C9
:1007A0004FF4302000F056F80546042D18D10D48BE
:1007B000006940F002000B49086108464461006985
:1007C00040F0400008614FF4302000F043F8054647
:1007D0000448006941F6FD7100EA01000149086121
:1007E000284630BD002002404FF004000D49C96882
:1007F00001F00101012902D14FF0010011E0094986
:10080000C96811F0040F02D04FF0020009E0054959
:10081000C96811F0100F02D04FF0030001E04FF053
:1008200004007047002002400348006940F0800047
:100830000149086170470000002002400248034956
:100840004860034848607047230167450020024024
:10085000AB89EFCD00B502464FF00403FFF7C4FFAC
:10086000034604E0FFF7C0FF0346A2F10102012B9B
:1008700001D1002AF6D10AB94FF00503184600BD90
:1008800030B54FF000024FEA81734FEA13744FF016
:100890000F0303FA04F20F4B4FEAA10453F824307C
:1008A00023EA02030B4C4FEAA10544F82530234606
:1008B0004FEAA10453F824304FEA81744FEA1474CC
:1008C00000FA04F443EA0403024C4FEAA10544F899
:1008D000253030BD080001402DE9F04102464FF0BF
:1008E00000052E46284603460446074691F803C0F5
:1008F0000CF00F0591F803C01CF0100F03D091F815
:1009000002C04CEA0505B1F800C01CF0FF0F35D05D
:1009100014684FF000002EE04FF0010C0CFA00F3C9
:10092000B1F800C00CEA03069E4222D14FEA8003D0
:100930004FF00F0C0CFA03F724EA070405FA03FC46
:100940004CEA040491F803C0BCF1280F06D14FF023
:10095000010C0CFA00FCC2F814C00AE091F803C0C4
:10096000BCF1480F05D14FF0010C0CFA00FCC2F8A5
:1009700010C000F101000828CED31460B1F800C007
:10098000BCF1FF0F38DD54684FF0000031E000F19A
:10099000080C4FF0010808FA0CF3B1F800C00CEA9B
:1009A00003069E4223D14FEA80034FF00F0C0CFA4E
:1009B00003F724EA070405FA03FC4CEA040491F85F
:1009C00003C0BCF1280F05D100F1080C08FA0CF89F
:1009D000C2F8148091F803C0BCF1480F07D100F1B0
:1009E000080C4FF0010808FA0CF8C2F8108000F16A
:1009F00001000828CBD35460BDE8F08102464FF0D7
:100A0000000093680B4202D04FF0010001E04FF06C
:100A1000000070470161704700BFFEE700BFFEE7BE
:100A20007047000070B54FF000010B464FF00F0209
:100A3000C4784CB31B4C246804F4E064C4F5E0644F
:100A40004FEA1421C1F1040322FA01F2447804FAB6
:100A500003F1847804EA020444EA01014FEA011137
:100A6000114C0678A155047804F01F054FF00104DD
:100A700004FA05F405784FEA65154FF0E02606EB19
:100A80008505C5F800410CE0047804F01F054FF01F
:100A9000010404FA05F4054D06784FEA661645F898
:100AA000264070BD0CED00E000E400E080E100E0D5
:100AB000024940EA0101024A116070470000FA054C
:100AC0000CED00E07047000031B1074A926942EA3C
:100AD0000002054B9A6105E0034A926922EA00028E
:100AE000014B9A61704700000010024030B54FF092
:100AF00000010A460C460B46324D6D6805F00C01AC
:100B000021B1042905D0082927D105E02E4D056023
:100B100026E02D4D056023E02A4D6D6805F4701226
:100B2000284D6D6805F480344FF0020505EB9242C4
:100B300024B9264D02FB05F505600DE0214D6D68D9
:100B400015F4003F04D0214D02FB05F5056003E0DC
:100B50001D4D02FB05F5056002E01B4D056000BF61
:100B600000BF184D6D6805F0F0014FEA1111184DE6
:100B70006B5C056825FA03F54560124D6D6805F458
:100B8000E0614FEA1121124D6B5C456825FA03F5CF
:100B900085600C4D6D6805F460514FEAD1210C4D14
:100BA0006B5C456825FA03F5C560064D6D6805F474
:100BB00040414FEA9131074D6B5CC568B5FBF3F5D9
:100BC000056130BD0010024000127A0000093D00AE
:100BD000240000203400002070B505464FF00004CA
:100BE00045F6FF7000F064F80446C4B90D4800698A
:100BF00040F002000B49086108464561006940F079
:100C00004000086145F6FF7000F052F80446012CE0
:100C100005D00448006920F002000249086120461E
:100C200070BD0000002002400948C16811F0010FAA
:100C300001D00120704711F0040F01D00220F9E724
:100C400011F0100F01D00320F4E70020F2E70000BC
:100C5000002002400348006940F08000014908611B
:100C6000704700000020024030B503460C46154690
:100C70004FF0000209E0184600F00AF824F81200CC
:100C800003F1020302F1010082B2AA42F3DB30BD9C
:100C9000014608887047000002480349486003483D
:100CA000486070472301674500200240AB89EFCDC3
:100CB00070B5044600BFFFF7B7FF0546012D00D011
:100CC00007E0012000F0F8FAA4F1010084B2002C42
:100CD000F1D100BF0CB94FF0FF05284670BD0000F0
:100CE0002DE9F05F80468A461746B8F1006F02D3BF
:100CF0003648804501D3BDE8F09FFFF7CDFFA8F14E
:100D0000006B4FEADB25CBF34909C9F58064A742A4
:100D100000DC3C4654E04FF0006101EBC5204A1472
:100D20002B49FFF7A1FF4FF000060CE009EB06008E
:100D3000274931F81000A0F57F41FF3900D004E0C9
:100D400006F1010086B2A642F0DB00BFA6421DDA22
:100D50004FF0006101EBC520FFF73EFF4FF00006AA
:100D600009E03AF8160006EB0901194A22F81100C9
:100D700006F1010086B2A642F3DB4FF0006101EB01
:100D8000C5204A14124900F047F804E022465146B3
:100D9000404600F041F8A74200D112E005F10105FC
:100DA0004FF000090AEB440A08EB4408A7EB0400E3
:100DB00087B2B7F5806F02DD4FF4806400E03C46F7
:100DC000A9E700BFFFF746FF00BF94E7000008084F
:100DD0003800002070B505460E464FF0FF00FFF7C3
:100DE00067FF04469CB90B48006940F001000949BF
:100DF00008612E804FF0FF00FFF75AFF0446012CD8
:100E000005D00448006920F001000249086120462D
:100E100070BD0000002002402DE9F04105460E465D
:100E200017464FF0000409E036F814102846FFF783
:100E3000D1FF05F1020504F1010084B2BC42F3DBED
:100E4000BDE8F081704710B500F002F810BD000059
:100E50004FF000010846304A126842F480322E4BAF
:100E60001A6000BF2C4A126802F4003001F101013F
:100E700010B9B1F5A06FF5D1274A126812F4003FFE
:100E800002D04FF0010001E04FF00000012842D1F4
:100E9000224A126842F01002204B1A601A46126869
:100EA00022F003021A601A46126842F002021A6027
:100EB000194A5268184B5A601A4652685A601A46C4
:100EC000526842F480625A601A46526822F47C12D8
:100ED0005A601A46526842F4E8125A601A4612687A
:100EE00042F080721A6000BF0B4A126812F0007F55
:100EF000FAD0094A526822F00302074B5A601A4698
:100F0000526842F002025A6000BF034A526802F07F
:100F10000C02082AF9D1704700100240002002405C
:100F2000042808D14FF0E021096941F004014FF095
:100F3000E022116107E04FF0E021096921F004018E
:100F40004FF0E022116170477047000010B514485F
:100F5000006840F0010012490860084640681149E5
:100F600000EA01000E494860084600680E4900EAA0
:100F700001000B4908600846006820F480200860E2
:100F80000846406820F4FE0048604FF41F00886067
:100F9000FFF759FF4FF000600449086010BD0000E2
:100FA000001002400000FFF8FFFFF6FE08ED00E031
:100FB00010B540F225511E4800F04DF818B31C48FA
:100FC00000F02AF9C4B21B48008810F4004F2ED15B
:100FD0001848008810F4804F0DD00A2C04D04FF030
:100FE00000001449088022E01248008840F40040C4
:100FF000104908801BE00D2C06D10E48008840F4F3
:1010000080400C49088012E00A480088C0F30D00B7
:1010100009490C540748008800F10100054908807F
:1010200008460088C72802DD4FF00000088010BD88
:10103000003801401C0000203A10002021B18289B4
:1010400042F40052828105E082894DF6FF7302EA84
:1010500003028281704770B502464FF000042346B8
:101060001D461846A1F510666A3E00D100BFC1F3C7
:10107000421501F01F034FF0010606FA03F3012D9C
:1010800003D1968906EA030308E0022D03D1168AEC
:1010900006EA030302E0968A06EA03034FEA2124E4
:1010A0004FF0010606FA04F4168806EA04041BB1A0
:1010B00014B14FF0010001E04FF0000070BDF0B539
:1010C00003464FF00004264625462046A1F510674A
:1010D0006A3F00D100BF1846C1F3421401F01F0659
:1010E0004FF0010707FA06F5012C02D100F10C00C0
:1010F00006E0022C02D100F1100001E000F1140022
:1011000022B1076847EA0507076003E0076827EA96
:1011100005070760F0BD00002DE9F04786B00546E1
:101120000E464FF00004A24600BFA1462746B089F4
:1011300000B100BF2F462C8A4CF6FF7004EA000471
:10114000F08840EA04042C82AC894EF6F31004EADD
:101150000004B088318940EA0100718940EA010049
:1011600040EA0404AC81AC8A4FF6FF4004EA000474
:10117000B08940EA0404AC8201A8FFF7B7FC254817
:10118000874202D1DDF810A001E0DDF80CA0A889AB
:1011900010F4004F09D00AEBCA0000EB0A103168C6
:1011A0004FEA4101B0FBF1F808E00AEBCA0000EB9E
:1011B0000A1031684FEA8101B0FBF1F84FF064008A
:1011C000B8FBF0F04FEA00144FEA14104FF064013E
:1011D00001FB1089A88910F4004F0AD04FF03200AB
:1011E00000EBC900B0FBF1F000F0070040EA040496
:1011F0000BE04FF0320000EB09104FF06401B0FB40
:10120000F1F000F00F0040EA04042C8106B0BDE8C4
:10121000F08700000038014001468888C0F30800CC
:10122000704700BFFEE7014600BF704710B56FF082
:101230000400FFF775FE084800680849B0FBF1F0AC
:1012400007490870084600784FF47A7100FB01F0F6
:101250000449088010BD00000000002000127A0040
:10126000180000201A0000200146124A128801FBD3
:1012700002F24FF0E0235A614FF000029A611A46E1
:10128000126942F001021A6100BF4FF0E0221069BA
:1012900010F0010F02D010F4803FF6D04FF0E022A2
:1012A000126922F001024FF0E0231A614FF00002B0
:1012B0009A6170471A0000200146124A127801FB19
:1012C00002F24FF0E0235A614FF000029A611A4691
:1012D000126942F001021A6100BF4FF0E02210696A
:1012E00010F0010F02D010F4803FF6D04FF0E02252
:1012F000126922F001024FF0E0231A614FF0000260
:101300009A617047180000201FB501215120FFF796
:10131000DBFB4FF003008DF80E004FF00400ADF83A
:101320000C004FF048008DF80F0003A91748FFF795
:10133000D3FA02210420FFF7A3FA4FF00400019032
:101340004FF000008DF808004FF00C008DF80900F8
:101350004FF001008DF80A0001A8FFF7C1F94FF422
:10136000C060FFF7A5FB4FF008008DF800004FF0BC
:1013700000008DF801008DF802004FF001008DF89B
:1013800003006846FFF74EFB1FBD00000018014038
:1013900000BF044A128812F0400FFAD0C2B2024BCA
:1013A0001A80704700380140043801402DE9F05F91
:1013B00006460F4690464FF00004B3463D46A14610
:1013C00022E068784FEA002A287850441FFA80FA11
:1013D00005F10205204604F101018CB20F4921F804
:1013E00010A0B4F5806F0DD14FF000044FF480626F
:1013F0005846FFF775FC0BF5006B40F602010748F5
:10140000FEF7C2FF09F10209C145DADB24B1224629
:1014100002495846FFF764FCBDE8F09F38080020F9
:1014200010B504462068084900EA0100B0F1005FE9
:1014300008D16068054908602068FEF7D0FE0348BF
:101440000068804710BD00000000FE2F140000203F
:1014500010B5A6B0FFF7EAFE4FF4E13000F08AF9CC
:10146000FFF752FFFFF79CF8942201A95C48FFF7B1
:10147000FBFB0BE05BA0FEF7D7FE4FF47A70FFF7A3
:10148000F3FE942201A95648FFF7EEFB9DF80400F5
:10149000AA28EFD19DF86C209DF86D105AA0FEF798
:1014A000C3FE9DF86D0000281AD16448006800F062
:1014B0007F40B0F1006F0AD161A0FEF7B5FE0A20AF
:1014C000FFF7D2FE5D48001FFFF7AAFF84E006E0A9
:1014D00064A0FEF7A9FE4FF47A70FFF7C5FEF7E7A8
:1014E00069A0FEF7A1FE7248006800F07F40B0F1ED
:1014F000006F3AD11C9C21466EA0FEF795FE224655
:101500006B49091F4D48001FFFF750FF4FF00000C7
:101510008DF86D004FF00A00FFF7A6FEFFF78EF979
:101520003520FFF733F92E48FFF736F9942201A949
:101530002B48FFF7D5FBFFF777F968A0FEF774FE9D
:101540006420FFF791FE71B600BF6B48006800F49D
:10155000E0606A4940EA010000F104006649086061
:10156000BFF3408F00BF00BFFEE765A0FEF75CFE43
:101570004FF000008DF86D008DF86C004FF00A0000
:10158000FFF772FEFFF75AF93520FFF7FFF814480E
:10159000FFF702F9942201A91148FFF7A1FBFFF719
:1015A00043F92648006800F07F40B0F1006F0AD18F
:1015B0005DA0FEF739FE0A20FFF756FE1F48001F08
:1015C000FFF72EFF08E006E061A0FEF72DFE4FF4C6
:1015D0007A70FFF749FEF7E7002026B010BD000043
:1015E00000F80708B0E5BFA8CEB4B3F5CABCBBAFDE
:1015F000A3ACC7EBB0B4BBB9D4ADBCFC33C3EBD226
:10160000D4C9CF0D0A000000B3F5CABCBBAFCDEA08
:10161000B3C9A3ACBCECB2E2D3A6D3C3B3CCD0F273
:10162000D6D02E2E2E497375703A25642C497364DA
:101630006F776E3A25640D0A0000000004780008F8
:10164000D3A6D3C3B3CCD0F2BCECB2E2B3C9B9A633
:10165000A3ACD5FDD4DACEAAC4FACCF8D7AA2E2EE4
:101660002E0D0A00D3A6D3C3B3CCD0F2CEDEB7A8DA
:10167000D6B4D0D0A3ACD0E8D2AAD6D8D0C2B0B21B
:10168000D7B02331210D0A00D3A6D3C3B3CCD0F2F7
:10169000D3D0B8FCD0C2A3ACD5FDD4DABCECB2E256
:1016A000B8FCD0C2CEC4BCFE2E2E2E0D0A00000007
:1016B00004380408B8FCD0C2CEC4BCFEB4F3D0A138
:1016C000A3BA2564A3ACD6B4D0D0B8FCD0C2B2D9EA
:1016D000D7F7D6D02E2E2E0D0A000000B8FCD0C2AF
:1016E000B2D9D7F7CDEAB3C9A3ACD5FDD4DAD6D8F1
:1016F000C6F42E2E2E0D0A000CED00E00000FA05B7
:10170000B8FCD0C2CEC4BCFEB4E6D4DACECACCE2B9
:10171000A3ACCEAAC4FAD1A1D4F1BFC9D3C3D3A676
:10172000D3C32E2E2E0D0A00D2D1D1A1D4F1C9CF10
:10173000D2BBB4CED3A6D3C3B3CCD0F2A3ACD5FD29
:10174000D4DACEAAC4FACCF8D7AA2E2E2E0D0A00CF
:10175000D3A6D3C3B3CCD0F2CEDEB7A8D6B4D0D004
:10176000A3ACD0E8D2AAD6D8D0C2B0B2D7B0233278
:10177000210D0A0010B586B004464FF0010144F275
:101780000400FFF7A1F94FF40070ADF814004FF01A
:1017900003008DF816004FF018008DF8170005A90A
:1017A0001F48FFF799F84FF48060ADF814004FF030
:1017B00004008DF8170005A91948FFF78DF84FF0C0
:1017C00025008DF800004FF003008DF801008DF822
:1017D00002004FF001008DF803006846FFF722F980
:1017E00001944FF00000ADF80800ADF80A00ADF824
:1017F0000C00ADF810004FF00C00ADF80E0001A980
:101800000848FFF789FC012240F225510548FFF7FF
:1018100056FC01210348FFF711FC06B010BD000083
:10182000000801400038014010B5FEF7B5FE4FF04A
:101830000001016010BD0000AAC0A80101FFFFFF68
:1018400000C0A80101C0A80142005A207777772E76
:10185000766D7575692E636F6D00000000000000E5
:10186000000000000000000000000000564D303075
:101870003100000000000000000000000100000036
:1018800031323334353600000000000061646D6988
:101890006E0000000000906550460000E803000064
:1018A00001000000000000000A010000000000002C
:1018B0000000000000000000000000000000000028
:1018C000000000000000000000000000EC1800080C
:1018D00000000020380000006C01000824190008F6
:1018E00038000020301700008801000800A24A04D8
:1018F00000000000000000000102030406070809C0
:1019000000000000000000000000000000000000D7
:101910000000000001020304010203040607080995
:0419200002040608AF
:04000005080001E509
:00000001FF
