:020000040800F2
:1078000060F40020058600080D8400080F8400083D
:1078100013840008178400081B840008000000007F
:107820000000000000000000000000001F840008AD
:1078300021840008000000003F6A020861860008F9
:107840001F8600081F8600081F8600081F86000884
:107850001F8600081F8600081F8600081F86000874
:1078600097A000081F8600081F8600081F860008D2
:107870001F8600081F8600081F8600081F86000854
:107880001F8600081F8600081F8600081F86000844
:107890001F8600081F8600081F860008358E000816
:1078A0001F8600081F8600081F8600081F86000824
:1078B0001F8600081F860008A1F500081F86000823
:1078C0001F8600081F8600081F8600081F86000804
:1078D0001F8600084188000851950008859D000812
:1078E0001F8600081F8600081F8600081F860008E4
:1078F0001F8600081F8600081F8600081F860008D4
:107900001F8600081F860008213A01081F8600080C
:107910001F8600081F8600084F9D0008F39400088A
:107920001F8600081F8600081F8600081F860008A3
:1079300000F002F800F0B4F80AA090E8000C8244CD
:107940008344AAF10107DA4501D100F0A9F8AFF2AA
:10795000090EBAE80F0013F0010F18BFFB1A43F02D
:10796000010318470C9002002C9002000A444FF0CB
:10797000000C10F8013B13F0070408BF10F8014B8E
:107980001D1108BF10F8015B641E05D010F8016BD3
:10799000641E01F8016BF9D113F0080F1EBF10F837
:1079A000014BAD1C0C1B09D16D1E58BF01F801CB5A
:1079B000FAD505E014F8016B01F8016B6D1EF9D5DD
:1079C0009142D6D3704700000023002400250026F2
:1079D000103A28BF78C1FBD8520728BF30C148BF32
:1079E0000B6070476E291FF01B8570291FF08C817A
:1079F000662922F03A85652922F03785672922F029
:107A000034856129AFF3008003681B0A28BF41F069
:107A1000800169291FF0FA8064291FF0F780752919
:107A20001FF0F4806F2920F02D8078291FF05881F5
:107A3000E9291FF0C587E4291FF0C287F5291FF047
:107A4000BF87EF2920F02A80F8291FF057810368AB
:107A5000DB0928BF41F0800163291FF034877329B7
:107A60001FF03987E32920F08181F32920F08681F6
:107A7000002070471FB522F045FC1FF072FA1FF07E
:107A800059FC04000020002121F09EFC401C606095
:107A90000020002121F0AEFCE0601FBD10B510BD3C
:107AA00020F052FA1146FFF7E5FF00F0B4FB20F09A
:107AB000C5FC03B4FFF7F2FF03BC00F05FFE00005B
:107AC0000B49D1F800C04A685CF8043B10681844C0
:107AD00042F8040B8C4528BFA1F1DC0C8A4228BF78
:107AE000A1F1DC02C1F800C04A6020F000407047FC
:107AF000F8ED00201FE0FEA01FF014F84FF000008A
:107B0000FE4908604FF47A7000F00BFE4FF0010060
:107B1000FB49C1F8A001FBA01FF004F8FD48007864
:107B200030B94FF00100FB490870FB481EF0FAFF26
:107B3000FF201EF02EFDDEE74FF00006F6E206F114
:107B40000100C6B20A2E04D14FF00006F3A01EF0C9
:107B5000E9FFF748007810B901F02EFB0546F5481B
:107B600090F87A0000286CD0F1480078002868D19D
:107B7000F04890F87A0000282ED0ED48007858BBE5
:107B80000121ED4805F02AF830BBEC48007818BB1D
:107B9000EBA01EF0C7FF0BF057F80446EB48007847
:107BA00050B924B1002109200AF0F6FF13E00321A7
:107BB00009200AF0F1FF0EE007F063F8352007F026
:107BC00040FBE34807F0ABF8A022DA49E04802F0B6
:107BD0006DFB07F062F8A9E2D64890F87A0078B316
:107BE000D348007860BB0221D34804F0F7FF012896
:107BF00028D1D248007818BBD6A01EF093FF0BF016
:107C000023F80446D148007850B924B1002104205B
:107C10000AF0C2FF13E0042108460AF0BDFF0EE09F
:107C200007F02FF8352007F00CFBC94807F077F86C
:107C3000A022C049C64802F039FB07F02EF875E2D1
:107C400000E03AE10421BC4804F0C8FF50B3B94851
:107C500090F87A0030B3B648007818BBC0A01EF088
:107C600061FF0AF0F1FF0446B848007850B924B12A
:107C7000002102200AF090FF13E0052102200AF003
:107C80008BFF0EE006F0FDFF352007F0DAFAB04872
:107C900007F045F8A022A749AD4802F007FB06F01F
:107CA000FCFF43E240F6B310854203D940F6824020
:107CB00085422AD39F4890F87A0030B39C480078D8
:107CC00018BBABA01EF02EFF0AF0BEFF04469F4873
:107CD000007850B924B1002103200AF05DFF13E0C1
:107CE000062103200AF058FF0EE006F0CAFF3520F7
:107CF00007F0A7FA964807F012F8A0228D49944899
:107D000002F0D4FA06F0C9FF10E29C48007850BB9C
:107D1000884890F87A0030B38548007818BB98A05E
:107D20001EF000FF0AF090FF04468848007850B922
:107D300024B1002108200AF02FFF13E007210820BA
:107D40000AF02AFF0EE006F09CFF352007F079FAD2
:107D50007F4806F0E4FFA02276497D4802F0A6FAAB
:107D600006F09BFFE2E11021894804F037FF50BB89
:107D7000704890F87A0030B36D48007818BB85A041
:107D80001EF0D0FE0AF060FF04467048007850B93B
:107D900024B1002105200AF0FFFE13E00821052090
:107DA0000AF0FAFE0EE006F06CFF352007F049FA03
:107DB000674806F0B4FFA0225E49654802F076FAF3
:107DC00006F06BFFB2E15B48D0F880005949C96EFC
:107DD00088422AD9574890F87A0030B3544800783E
:107DE00018BB70A01EF09EFE0AF02EFF04465748F6
:107DF000007850B924B1002106200AF0CDFE13E02E
:107E0000092106200AF0C8FE0EE006F03AFF3520F0
:107E100007F017FA4E4806F082FFA02245494C4869
:107E200002F044FA06F039FF80E14248B0F87C00E5
:107E30004049B1F86810884207DA3E48B0F87C0043
:107E40003C49B1F86A10884250DC3A4890F87A0010
:107E500000284BD036480078002847D10AF0F4FEBD
:107E6000044653A01EF05EFE14B34FF001003349E8
:107E7000087036480078F8B902E0012000F051FCA3
:107E80004F4800780028F8D04FF000004C490870A7
:107E90004FF480714B481FF0C0F94BA149481FF0C7
:107EA000B7F85148007840F080004F49087003E06F
:107EB0000A2108460AF070FE38E11E4890F87A0060
:107EC000A0B91B48007888B91A48B0F87C00194955
:107ED000B1F86810884209DA1648B0F87C001549F4
:107EE000B1F86A10884201DD12487FE0B9E0000075
:107EF000B2A5B7C5C9F9D2F40D0A0000A08121428C
:107F000000802142B2A5B7C5C9F9D2F4CDEAB3C900
:107F10000D0A0000D20300206CA50208BCECB2E2FE
:107F2000C8CECEF1D6B4D0D0D6D00D0A0000000015
:107F3000D0030020400B0020001001400000002072
:107F4000CAE4B3F6CCF8C7B90D0A0000D10300208B
:107F500000F80708CAE4C8EBCCF8C7B90D0A00005E
:107F60004343B6CFBFAACCF8C7B90D0A0000000042
:107F7000414443CCF8C7B90D0A0000002802002094
:107F8000B5E7B1EDB6CFCFDFCCF8C7B90D0A000029
:107F900000180140BCB1CDA3B0B4C5A5B0B4CFC2E8
:107FA0000D0A0000B9FDC1F7CCF8C7B90D0A0000F1
:107FB000BFAAC6F4B9FDD1B9B1A3BBA40D0A000094
:107FC000E8030020F8CA00207B2274797065223A09
:107FD00022706F7374737461747573222C227A2209
:107FE0003A317D0D0A000000E003002090F87A008D
:107FF000B8BBCA480078A0BBC948007888B30AF06B
:1080000078FE07464FF00000C549087057BBC548C9
:108010000078D8B902E0012000F083FBC248007864
:108020000028F8D04FF00000BF4908704FF06401FD
:10803000BE481FF0F2F8BEA1BC481EF0E9FFC448DC
:10804000007840F08000C249087011E00AF0FCFDA1
:108050008046B8F1000F06D0002107200AF09CFDF1
:1080600005E007E005E00B2107200AF095FD00BFC1
:108070005CE000BFAA48007890B10421B54804F044
:10808000ADFD012803D040F6D860854208D94FF0F5
:108090000000A349087001464FF00B000AF07CFD78
:1080A0000421AC4804F09AFD70B940F6D8608542CE
:1080B0000AD2012000F035FB4021A64804F0B0FDB3
:1080C000022000F02EFB09E0012000F02AFB4021F5
:1080D000A04804F0A3FD022000F023FB10219E48DD
:1080E00004F07CFD28B18F48007810B99B480078D7
:1080F00058B9012000F015FB4FF48061954804F059
:108100008FFD022000F00DFB0AE0012000F009FBCA
:108110004FF480618F4804F081FD022000F001FBE4
:1081200007F0C9F8642000F0FCFA00BF07E51CB5B1
:108130008BA103C9CDE900014FF055064FF00005B2
:1081400043E055BB2021834804F068FD012000F086
:10815000E8FA4FF000040EE01DF80410824806F023
:1081600079F900BF8021804806F0EAF90028F9D0AB
:1081700004F10100C4B2082CEED3022000F0D1FAC1
:108180002021744804F04CFD0121784805F09BFC47
:108190004FF47A7000F0C5FA0DE03146744806F0ED
:1081A00059F900BF8021724806F0CAF90028F9D0B9
:1081B000C82000F0B6FA05F10100C5B24FF0060084
:1081C00095FBF0F100FB1150C5B2BAE770B505465A
:1081D0001BF016FF1EF00CFC04464FF00703654A27
:1081E0004FF00001AFF2B9001DF025FF0923624AEC
:1081F0000021AFF2BB601DF01EFF0D235F4A00217E
:10820000AFF20F701DF017FFFF201EF0C2F92046DD
:108210001EF0F2FB70BD10B559485A49086000F0D5
:108220002BFA4FF4A06004F019F84FF4E13000F09D
:10823000B2FA554841684820884701F065F801F0D6
:1082400009F800F067FF01F0E5FE0BF0B3FB4FF417
:10825000165001F0DFF84FF4165001F019FD002020
:1082600007F059F803F0ACFF4FF0000047490870E1
:108270004FF0A0024649474802F004F84FF00000D2
:10828000434981F87A001BF077FD0BE042A01EF015
:1082900049FC4FF47A7000F044FAA0223C493D4872
:1082A00001F0F0FF3A480078AA28EFD143A01EF071
:1082B00039FC0BE046A01EF035FC4FF480612548E8
:1082C00004F0AEFC4FF47A7000F02BFA08F0EBF8F3
:1082D0000028EFD143A01EF025FC09F0B0FA0BE016
:1082E00044A01EF01FFC4FF480611A4804F098FC73
:1082F0004FF47A7000F015FA0BF04AFB0028EFD12A
:1083000003F09AFF0C23404A0021AFF23F101DF00A
:1083100092FE1BF05DFE002010BD0000D003002087
:1083200000000020D1030020E8030020F8CA00204C
:108330007B2274797065223A22706F737473746152
:10834000747573222C227A223A307D0D0A000000C7
:10835000E003002000100140001801402802002026
:1083600039030000000700B0004400400014004042
:10837000004800404C0700204C0600204C0A00201A
:108380000078000808ED00E094020020D2030020ED
:10839000400B002000F80708B0E5BFA8CEB4B3F545
:1083A000CABCBBAFA3ACC7EBB0B4BBB9D4ADBCFCCB
:1083B00033C3EBD2D4C9CF0D0A000000B0E5BFA88B
:1083C000B3F5CABCBBAFB3C9B9A60D0A0000000023
:1083D000CDF8C2E7B3F5CABCBBAFCAA7B0DC210D6C
:1083E0000A00000048545450B3F5CABCBBAF0D0A94
:1083F00000000000BFCDBBA7B6CBB3F5CABCBBAF76
:10840000CAA7B0DC210D0A004C090020704700BF4C
:10841000FEE700BFFEE700BFFEE700BFFEE77047D4
:10842000704700004FF0000108466D4A126842F4A0
:1084300080326B4B1A6000BF694A126802F4003048
:1084400001F1010110B9B1F5A06FF5D1644A1268CC
:1084500012F4003F02D04FF0010001E04FF00000A5
:10846000012842D15F4A126842F010025D4B1A6047
:108470001A46126822F003021A601A46126842F085
:1084800002021A60564A5268554B5A601A465268A0
:108490005A601A46526842F480625A601A4652681C
:1084A00022F47C125A601A46526842F4E8125A606A
:1084B0001A46126842F080721A6000BF484A126879
:1084C00012F0007FFAD0464A526822F00302444B71
:1084D0005A601A46526842F002025A6000BF404A8F
:1084E000526802F00C02082AF9D1704710B5FFF764
:1084F00099FF10BD10B53A48006840F001003849B6
:10850000086008464068384900EA0100344948607C
:1085100008460068354900EA01003149086008460C
:10852000006820F4802008600846406820F4FE00BF
:1085300048604FF41F008860FFF7D8FF4FF00060DD
:108540002B49086010BD10B54FF0000108460246E7
:10855000234B5B6803F00C0121B1042906D00829E4
:108560002CD107E0234B244C23602BE0214B224CE1
:10857000236027E01A4B5B6803F47010184B5B68AC
:1085800003F480324FF0020303EB90402AB91B4BF7
:1085900000FB03F3184C23600FE0114B5B6813F4EE
:1085A000003F05D0154B00FB03F3134C236004E0A0
:1085B000104B00FB03F3104C236003E00D4B0E4CFB
:1085C000236000BF00BF064B5B68C3F303130C4C72
:1085D000E15C094B1B6823FA01F3074C236010BDD3
:1085E00000100240002002400000FFF8FFFFF6FEEE
:1085F00008ED00E000127A000400002000093D00B0
:10860000080000200948804709480047FEE7FEE7C8
:10861000FEE7FEE7FEE7FEE7FEE7FEE7FEE7FEE732
:1086200004480549054A064B70470000F5840008D8
:108630003179000860EE002060F4002060F0002036
:1086400060F0002010B51BF04EFC10BD10B51BF003
:1086500094FC10BD10B5044620461EF073F810BD02
:1086600010B540480078012805D11BF09BFB1BF09A
:10867000EAFC1BF0B3FB10BD10B56FF0040003F073
:108680004AFE394800683949B0FBF1F038490870B2
:10869000354800683549B0FBF1F441F2883004FBFD
:1086A00000F44FF00500334908804FF0E0200069E6
:1086B00040F002004FF0E021086108464461006983
:1086C00040F00100086110BD2DE9F04707464FF06A
:1086D00000064FF0E020D0F814902548007807FB02
:1086E00000F800BFFFF7AEFF4FF0E020856912E011
:1086F0004FF0E0208469AC420DD0AC4203D2A5EB30
:108700000400064403E0A9EB04002844064425467F
:10871000464500D300E0EBE700BFFFF797FFBDE859
:10872000F08770B504460F480078A0B11248007871
:1087300088B910480088844206DB0E48008894FB04
:10874000F0F52846FFF786FF0A48008894FBF0F111
:1087500000FB114084B24FF47A7104FB01F0FFF783
:10876000B3FF70BD2A0500200400002000127A002B
:10877000180000201A0000201D050020014600BF3F
:10878000704700BF504A128812F0400FFAD0C2B2B0
:108790004E4B1A80704710B586B004464FF0010169
:1087A00044F2040004F088FC4FF40070ADF81400AB
:1087B0004FF003008DF816004FF018008DF81700E9
:1087C00005A9434804F06EF94FF48060ADF8140039
:1087D0004FF004008DF8170005A93D4804F062F938
:1087E0004FF025008DF800004FF003008DF80100D8
:1087F0008DF802004FF001008DF80300684603F089
:1088000033FD01944FF00000ADF80800ADF80A0008
:10881000ADF80C00ADF810004FF00C00ADF80E00F4
:1088200001A9294805F0E9FC012240F2255126481A
:1088300005F09AFD0121244805F089FD06B010BD20
:1088400010B51BF0AFFA40F225511F4805F09DFE10
:1088500018B31D4805F002FEC4B21E48008810F48B
:10886000004F2ED11B48008810F4804F0DD00A2CE9
:1088700004D04FF000001749088022E01548008816
:1088800040F40040134908801BE00D2C06D111482C
:10889000008840F480400F49088012E00D480088AD
:1088A000C0F30D000C490C540A48008800F1010087
:1088B0000849088008460088C72802DD4FF00000FC
:1088C00008801BF08BFA10BD0038014004380140CD
:1088D000000801401C000020500A0020FE4A1080C1
:1088E0004FF0C842A2F8001170470146FA480180D3
:1088F0004FF0C840B0F80001704770B5044644F02E
:1089000040014FF00C00FFF7E9FF0C210B20FFF7AF
:10891000E5FF0A20FFF705FF00210B20FFF7DEFF30
:108920000D20FFF7E2FF02460E20FFF7DEFF42EACE
:10893000002085B2284670BD70B54FF00004E748AE
:108940000078082811D109E06420FFF7EAFE04F15D
:108950000100C4B2642C01DDFF2070BD0120FFF7CF
:10896000CCFF10F0200FEFD010E009E06420FFF7FB
:10897000D8FE04F10100C4B2642C01DDFF20ECE755
:108980000120FFF7B2FF10F0400FEFD00120FFF7FA
:10899000ACFF4FF0020101EAA0154FF00000FFF715
:1089A000A4FFC0F3C00040EA05052846D5E710B58E
:1089B00004464FF0000307E0E15C03F11600FFF707
:1089C0008DFF03F10100C3B2082BF5DB10BD10B51C
:1089D00004464FF0000307E0E15C03F11000FFF7ED
:1089E0007DFF03F10100C3B2062BF5DB10BD70B5AE
:1089F00005460C4645F040014FF00C00FFF76EFFB6
:108A0000E1B20D20FFF76AFF210A0E20FFF766FF93
:108A10000A210B20FFF762FF3220FFF782FE0021C0
:108A20000B20FFF75BFF70BD70B50646092E1FD205
:108A3000DFE806F0050F1E1E0A141E1E19004FF077
:108A400000044FF0210513E04FF480744FF041050E
:108A50000EE04FF400544FF0810509E04FF4045448
:108A600040F2011504E04FF4805440F2E11500BFDC
:108A700000BF21460020FFF7BAFF29460420FFF778
:108A8000B6FF00211F20FFF729FF70BD00B5282089
:108A9000FFF72BFF02464FF02900FFF726FF42EABF
:108AA00000224FF02A00FFF720FF42EA00424FF079
:108AB0002B00FFF71AFF42EA0062104600BD10B516
:108AC0004FF00000864908604FF00A00FFF729FECA
:108AD0004FF001008349C1F89C014FF06400FFF79B
:108AE00020FE01211E20FFF7F9FE00211F20FFF7C5
:108AF000F5FE03210020FFF7F1FE00BF1920FFF76C
:108B000010FE0020FFF7F1FE10F0010FF6D100215A
:108B10000846FFF7E3FE03210020FFF7DFFE00BF5A
:108B20001920FFF7FEFD0020FFF7DFFE10F0010F18
:108B3000F6D110BD10B59AB001214FF4F07004F0D9
:108B4000BBFA0121080204F0A8FA0121084604F04A
:108B5000B3FA4FF08000ADF864004FF003008DF8D9
:108B600066004FF010008DF8670019A95E4803F009
:108B700099FF4FF04000ADF864004FF048008DF8C9
:108B8000670019A9594803F08DFF4CF23370ADF816
:108B900064004FF003008DF866004FF018008DF868
:108BA000670019A9504803F07DFF4FF68070ADF8BB
:108BB00064004FF003008DF866004FF018008DF848
:108BC000670019A94A4803F06DFF4FF40050ADF853
:108BD00064004FF003008DF866004FF018008DF828
:108BE000670019A9434803F05DFF4FF40070ADF82A
:108BF00064004FF003008DF866004FF018008DF808
:108C0000670019A9394803F04DFF0621084604F012
:108C10007BF84FF0400017904FF000008DF8600097
:108C20004FF00C008DF861004FF001008DF86200EC
:108C300017A805F004FD402005F085FD4FF0170052
:108C40008DF858004FF001008DF859004FF00000EA
:108C50008DF85A004FF001008DF85B0016A803F064
:108C600003FB4FF00000009001904FF003000290D2
:108C70004FF0000003900490059006904FF0020022
:108C800007904FF00000089009904FF010000A90F4
:108C90004FF000000B900C900D900E900F904FF441
:108CA000805010904FF00000119012901390CDF86A
:108CB00050D0CDF854D007A803F0A4FB0121022026
:108CC00003F025FD0C4804684FF0080003490870C4
:108CD0004FF00000488011E0FE000064180B0020F7
:108CE0009C81224200802242001401400020014069
:108CF00000180140001C0140E8F7FF1F4FF0810001
:108D000048704FF0020008714FF00001D3484171E4
:108D100081714FEA1441C171C4F30B20C1B2CF4835
:108D2000017244724FF0FF00CC4988720146CB4873
:108D3000C172017341738173C17301744174FFF790
:108D4000BEFE6420FFF7EDFCFFF7A0FE0446C4481A
:108D5000844204D007F0D0FA01201AB010BDBF49F8
:108D60000878FFF761FE00210846FFF7B7FD0021F4
:108D70000220FFF7B3FD3F210820FFF7AFFD3821A8
:108D80000920FFF7ABFD00210A20FFF7A7FD002116
:108D90002F20FFF7A3FD2C210120FFF79FFD0F21BE
:108DA000FE20FFF79BFD80212D20FFF797FDAB48AC
:108DB000001DFFF70CFEA9480A30FFF7F8FD31212E
:108DC0000520FFF78BFD8021FF20FFF787FDFFF7D0
:108DD000B3FD0446FF2C03D107F08EFA0120BCE757
:108DE0009E484178FF20FFF779FD0020B5E770B578
:108DF0009C4805884FF0FE00FFF777FD04462146AA
:108E00004FF0FE00FFF76AFD14F0040F02D096A0A9
:108E10001DF088FE14F0080F02D096A01DF082FE0F
:108E200014F0010F03D09B4800681CF0CDFF8D4863
:108E3000058070BD10B51AF0B5FF4FF0400096499F
:108E4000086001E0FFF7D3FF944800680028F9D0DC
:108E50001AF0C4FF10BD2DE9FC4104464FF0000795
:108E60003E466A4631468E4800681CF00BF9802168
:108E7000FF20FFF733FD4FF0F8007A4908802546C0
:108E80001EE06889B84218DD384607F101018FB24B
:108E90006A68125C304606F10101CEB201A90A549B
:108EA000022E0DD19DF804009DF8051040EA012026
:108EB0007C4908804FF0000602E02D684FF0000763
:108EC000002DDED1012E03D19DF8040075490880E4
:108ED0002089C1B2FC20FFF701FD2089010AFD2095
:108EE000FFF7FCFC01210220FFF7F8FC00BFFE2089
:108EF000FFF7FBFC10F0020FF9D00221FE20FFF774
:108F0000EDFC56484178FF20FFF7E8FC6448006814
:108F10001CF005FABDE8FC812DE9FC474FF0000686
:108F20006A4631465E4800681CF0ACF800BFF0208D
:108F3000FFF7DBFC5B48008800F0FF09B9F1000F88
:108F400078D0B9F1010F0DD957A01DF0EBFD00212C
:108F50000520FFF7C3FC8021FE20FFF7BFFC304651
:108F6000BDE8FC874FF0F2003E4908804FF0C84052
:108F7000B0F800514B4804884FF0030221461046D8
:108F80000FF0B1F90646BEB1374612E0D7F804A09B
:108F9000B7F80A8009E04FF0C840B0F80001AAF81D
:108FA00000000AF1020AA8F10208B8F1000FF2DC91
:108FB0003F68002FEAD10EE00DF1040AA04607E059
:108FC0004FF0C840B0F80001AAF80000A8F102086C
:108FD000B8F1000FF4D115F43F4F04D1402C02DB5F
:108FE000B4F5C06F34DD15F4807F02D037A01DF0DA
:108FF00099FD15F4007F02D038A01DF093FD15F403
:10900000004F02D039A01DF08DFDB4F5C06F09DD11
:109010003BA01DF087FD01210020FFF75FFC05202C
:10902000FFF77FFB16B130460FF0D0F84FF0000687
:109030007DE7FFE70221FE20FFF750FC4FF08100A3
:1090400006494870084641784FF0FF00FFF746FC9C
:10905000134800681CF063F9304681E7180B0020C4
:10906000460A0090FE0000646F766572666C6F774A
:10907000200D0A006F766572666C6F7720636F75DE
:109080006E746572206F766572666C6F77200D0A5C
:109090000000000094030020140401401801244241
:1090A0009803002000010064646D39303030207274
:1090B000783A207278206572726F722C2073746F08
:1090C00070206465766963650D0A00007278206619
:1090D00069666F206572726F720D0A007278206384
:1090E0007263206572726F720D0A00007278206CD4
:1090F000656E677468206572726F720D0A000000F9
:109100007278206C656E67746820746F6F20626976
:10911000670D0A0000B587B0012140F2052003F079
:10912000CBFF4FF4004003F01BFF4FF003008DF81E
:109130001A004FF02000ADF818004FF000008DF835
:109140001B0006A9414803F0ADFC4FF00000019060
:109150008DF808008DF809004FF4602003904FF05F
:10916000000004904FF001008DF8140001A9384868
:1091700005F01FFB072301220521354805F0C9FB37
:109180000121334805F04BFB314805F06DFB00BF72
:109190002F4805F06EFB0028FAD12D4805F076FB2C
:1091A00000BF2B4805F077FB0028FAD101212848A1
:1091B00005F07EFB07B000BD2DE9F0414FF0000443
:1091C0002646254621E04FF000074FF001012048D8
:1091D00005F06EFB00BF02211D4805F0FDFC0028D4
:1091E000F9D01B4805F010FC0746B7F5006F03D90E
:1091F0003D4404F10100C4B2B6F57A7F02DD0020DF
:10920000BDE8F08106F1010086B2322CDBDBB5FB54
:10921000F4F52846F4E770B54FF000052C4611E050
:1092200001210B4805F044FB00BF0221084805F06E
:10923000D3FC0028F9D0064805F0E6FB044405F10C
:109240000100C5B2322DEBDB204670BD00080140A5
:109250000024014000B589B00121022003F03BFF4A
:109260000121102003F028FF0121084603F024FF0C
:1092700040F2E730ADF81C004FF04700ADF81800A1
:109280004FF00000ADF81E00ADF81A0006A91B480B
:1092900004F05CF80121194804F015FC4FF00300BC
:1092A0008DF816004FF08000ADF814004FF0180054
:1092B0008DF8170005A9124803F0F4FB01211148AD
:1092C00003F0D4FC4FF06000ADF804004FF0010053
:1092D000ADF806004FF00000ADF80C0001A90748FA
:1092E00004F0CBF80821054804F054FD4FF47A71DE
:1092F000024804F0F2FE09B000BD00000004004086
:1093000000100140000C1A0008B50121082003F0EC
:10931000D3FE4FF48070ADF800004FF010008DF8D0
:1093200003004FF003008DF802006946044803F083
:10933000B9FB4FF48071024803F070FC08BD0000D7
:10934000000C01402DE9F04102460B464FF0FF04AE
:109350002546A3F1020000F0FF0C09E012F8010B12
:1093600080EA04010C48405C80EA05040B48455C37
:109370005FEA0C00ACF1010808F0FF0CEED112F826
:10938000016B12F8017BBD4204D1B44202D101202D
:10939000BDE8F0810020FBE724000020240100202C
:1093A0001FB50121202003F096FE4FF47A70ADF82E
:1093B000080048F69F40ADF804004FF00000ADF8FB
:1093C0000A00ADF8060001A9FD4803F0BFFF012126
:1093D000FB4804F0B3FE01221146F94804F08FFB6C
:1093E0004FF037008DF800004FF003008DF80100BA
:1093F0008DF802004FF001008DF80300684602F07E
:1094000033FF0121EE4804F0B1FE0021EC4804F0E6
:109410005AFB1FBD10B586B004464FF001014FF056
:10942000150003F049FE0121480403F054FE4FF0FB
:109430000400ADF814004FF003008DF816004FF053
:1094400018008DF8170005A9DE4803F02BFB4FF03C
:109450000800ADF814004FF004008DF8170005A9BE
:10946000D84803F01FFB4FF02000ADF814004FF078
:1094700010008DF8170005A9D34803F013FB4FF037
:1094800026008DF800004FF003008DF801008DF8E4
:1094900002004FF001008DF80300684602F0E4FE80
:1094A00001944FF00000ADF80800ADF80A00ADF8E7
:1094B0000C00ADF810004FF00C00ADF80E0001A943
:1094C000C24804F09AFE012240F22551BF4804F040
:1094D0004BFF0121BD4804F03AFF4021BB4805F095
:1094E0004AF82021BA4803F09BFBFFF759FF06B06A
:1094F00010BD10B51AF056FC0121B14804F022FE4F
:10950000002822D00121AE4804F030FE0021AC48F2
:1095100004F0D9FA0021AA4804F0D9FDAD4800783A
:1095200000F10100AB49087008460078052805DD08
:109530004FF00000A8490870A64908704FF00000DD
:10954000A6490860A6A01DF0EDFA1AF047FC10BD70
:109550002DE9F04F85B01AF025FC08219B4804F056
:10956000EFFF002839D00821984805F004F89B48FF
:10957000006880B9954804F071FFC4B2392C09D154
:10958000A3489649096844549448006800F10100D2
:109590009249086021E091480068012810D18B4869
:1095A00004F05CFFC4B2032C09D199488B490968C7
:1095B00044548A48006800F10100884908600CE0C2
:1095C000824804F04BFF9249844A126888548348C9
:1095D000006800F101008149086040F225517B4894
:1095E00004F0D3FF00283AD040F22551774805F027
:1095F00000F87A48006880B9744804F02FFFC4B2BC
:10960000392C09D182487549096844547348006867
:1096100000F101007149086021E0704800680128EC
:1096200010D16A4804F01AFFC4B2032C09D178485B
:109630006A49096844546948006800F101006749B3
:1096400008600CE0614804F009FF7149634A126840
:1096500088546248006800F10100604908605F4872
:10966000006813287ED113216948FFF76BFE01289B
:10967000F8D16749C97A0A066549097B42EA01427D
:109680006349497A42EA0121614A927A41EA020039
:1096900020F092FD5F49049020F0CCFC834620F03E
:1096A0002FFC04460D465A49097A594AD27941EAB3
:1096B000022020F081FD5849049020F0BBFC834635
:1096C00020F01EFC06460F46514989790A0650498A
:1096D000497942EA01424E49C97842EA01214C4A9D
:1096E000127941EA020020F067FD4C49049020F015
:1096F000A1FC834620F004FC804642460B4648A06D
:10970000CDE90067CDE902451DF00CFA01212C4896
:1097100004F02CFD00212A4804F0D5F90021284846
:1097200004F0D5FC4FF001002B4908704FF0000009
:1097300028490870364880794FEA006134484079FA
:1097400041EA00413248C07841EA002030490979B5
:1097500040EA010A3D485146D0F888203CA01DF05F
:10976000E1F900E023E23948D0F88800504526D9D5
:10977000364890F87A00012821D13448D0F8980072
:10978000E8B1324890F89C00C8B938A01DF0CAF979
:109790002E48D0F88C0000F101002C49C1F88C0053
:1097A0000846C0F888A01A48007A1949C97940EAE1
:1097B00001202649A1F87C001548C07A5CE07AE0D7
:1097C0000014004000080140001001400044004027
:1097D000000C014029020020280200202402002061
:1097E000B5E7B1EDB6C1C8A1B3ACCAB1A3ACBFC9AE
:1097F000C4DCCAC7CFDFC2B7C3BBBDD3BAC3BBF2D9
:10980000D5DFB5E7B1EDB9CAD5CFA3A10D0A0000E8
:109810002A0B002000007A440000C84200002041CA
:10982000B5E7C4DC3A252E31664B572A48A3ACB5C0
:10983000E7D1B9A3BA252E326656A3ACB5E7C1F776
:10984000A3BA252E3366410D0A000000400B00200C
:1098500063706F7765723A25642C6D795F6461740B
:10986000612E456E64703A25640D0A00D2ECB3A3F4
:1098700023310D0A000000004FEA0061CE48007B52
:1098800041EA0041CC48407A41EA0020CA49897A3D
:1098900040EA0100C949C1F8800009F0D5F9044641
:1098A00024B10021172009F077F903E00D211720DA
:1098B00009F072F96EE1C148D0F88800504569D9C5
:1098C000BE4890F87A00002864D1BC48D0F89800CF
:1098D00000285FD1B94890F89C0001285AD1B8A05F
:1098E0001DF020F9B548C0F888A0B348007AB24905
:1098F000C97940EA0120B149A1F87C00AE48C07A9C
:109900004FEA0061AC48007B41EA0041AA48407A36
:1099100041EA0020A849897A40EA0100A749C1F834
:109920008000AA4800780028C4D102E00120FEF798
:10993000F8FEA74800780028F8D04FF00000A449AE
:1099400008704FF48071A3481DF067FC9B48D0F865
:109950008C009A4991F89C10984AD2F89820974B1D
:1099600093F87A30CDE90132CDE903109348D0F86D
:10997000800000909148B0F87C309749D0F888205A
:1099800094481DF0DBF89548007840F0800093493A
:109990000870FFE08948D0F8880050458AD290A02E
:1099A0001DF0C0F88548C0F888A08348007A824935
:1099B000C97940EA01208149A1F87C007E48C07A3B
:1099C0004FEA00617C48007B41EA00417A48407AD6
:1099D00041EA00207849897A40EA01007749C1F8D4
:1099E00080000846D0F88800D1F88410A0EB010070
:1099F0007249C1F88C0075480078B0BB0846D0F8B1
:109A00008800D1F88410401A401C6C49D1F890109D
:109A100048436A49D1F8941001EB8101B0EB410F42
:109A200029D9664890F87A00012824D16348D0F8F3
:109A30009800D0B1614890F89C00B0B96BA01DF0BF
:109A400071F85E48D0F888005C49D1F88410A0EB2A
:109A500001005A49C1F88C0009F0F6F804462CB10F
:109A60000021182009F098F804E004E00E211820E5
:109A700009F092F88EE055480078012840D14F480F
:109A8000D0F888004D49D1F88410401A401C4B4949
:109A9000D1F8901048434949D1F8941001EB810165
:109AA000B0EB410F2CD9454890F87A00012827D116
:109AB0004248D0F8980018B3404890F89C00F8B994
:109AC0004FA01DF02FF83D48D0F888003B49D1F851
:109AD0008410A0EB01003949C1F88C0009F0B4F8FA
:109AE00005F0CFF8352005F0ACFB4A4805F017F932
:109AF000A0223249474800F0D9FB05F0CEF849E0F2
:109B00003248017844A01DF00DF805F0BAF8352070
:109B100005F097FB3F4805F002F9A02227493D4890
:109B200000F0C4FB05F0B9F82848007890BB02E0CB
:109B30000120FEF7F6FD264800780028F8D04FF007
:109B40000000234908704FF4807122481DF065FB26
:109B50001A48D0F88C00194991F89C20D1F8981037
:109B6000164B93F87A30CDE90131CDE90320134843
:109B7000D0F8800000901148B0F87C301649D0F839
:109B8000882014481CF0DAFF1448007840F0800068
:109B9000124908700948D0F88800504502D007489B
:109BA000C0F888A04FF000002149086000BF1AF0FB
:109BB00015F905B0BDE8F08F2A0B0020400B0020FE
:109BC000D2ECB3A323320D0A00000000D103002021
:109BD000E8030020F8CA0020CCA50208E00300201A
:109BE000D5FDB3A323310D0A00000000CDF8C2E774
:109BF000D5FDB3A3D3E0B6EEB2BBD7E30D0A0000A8
:109C0000CDF8C2E7D2ECB3A3D3E0B6EEB2BBD7E354
:109C10000D0A000000F80708C6E4CBFBC7E9BFF651
:109C2000A3AC69736C696E6B3A25640D0A00000081
:109C3000240200201FB50121102003F04CFA4FF43C
:109C40007A70ADF8080040F60F60ADF804004FF0F0
:109C50000000ADF80A00ADF8060001A9C84803F0FD
:109C600075FB01221146C64803F049FF4FF036004C
:109C70008DF800004FF003008DF801008DF8020010
:109C80004FF001008DF80300684602F0EDFA1FBDA9
:109C900010B586B004464FF001014FF0080003F004
:109CA0000BFA0121880403F016FA4FF48060ADF836
:109CB00004004FF003008DF806004FF018008DF8F7
:109CC000070001A9AF4802F0EDFE4FF40060ADF8C7
:109CD00004004FF004008DF8070001A9A94802F024
:109CE000E1FE02944FF00000ADF80C00ADF80E005C
:109CF000ADF81000ADF814004FF00C00ADF81200F4
:109D00004FF027008DF800004FF003008DF80100A0
:109D10008DF802004FF001008DF80300684602F054
:109D2000A3FA012240F22551974804F01DFB02A935
:109D3000954804F062FA0121934804F008FB4021A1
:109D4000914804F018FCFFF775FF06B010BD10B580
:109D50001AF028F801218A4804F0F4F978B10121B9
:109D6000874804F003FA4FF0000088490860014674
:109D7000834803F0A8FE0021814804F0A8F91AF0F6
:109D80002DF810BD70B51AF00DF801217C4803F0D4
:109D90009AFE08217C4804F0D3FB80B108217A4860
:109DA00004F0E9FB784804F059FB7949774A1268D6
:109DB00088547648006800F101007449086040F258
:109DC0002551714804F0E1FB88B140F225516E48FD
:109DD00004F00FFC6C4804F041FB6D496B4A1268BB
:109DE00088546A48006800F10100684908606748C3
:109DF000006802286FD166494978654A127841EABD
:109E0000022020F0D9F90546624920F013F90446F2
:109E100061480168204620F09FF85F4908605F486C
:109E2000006800F101005D490860084600680528E7
:109E30007ED15B495848006820F0FCF8564908601C
:109E4000084600685749086055495348006820F0A3
:109E5000DFF927D854480068022823D04FF00200C9
:109E6000514908605148007800287CD102E0012067
:109E7000FEF757FC4E4800780028F8D04FF000005D
:109E80004B4908704FF480714A481DF0C6F94AA149
:109E900048481DF0BDF84F48007840F080004D491B
:109EA000087060E03E493C48006820F037FA2ED246
:109EB00049493948006820F0ABF928D83A48006889
:109EC000012824D04FF00100374908603748007856
:109ED000002848D103E050E00120FEF722FC34487E
:109EE00000780028F8D04FF00000314908704FF496
:109EF000807130481DF091F938A12E481DF088F886
:109F00003448007840F08000324908702BE0324934
:109F10002148006820F002FA25D22348006810B3D7
:109F20004FF000002049086020480078D8B903E0CD
:109F30001FE00120FEF7F5FB1D4800780028F8D04F
:109F40004FF000001A4908704FF4807119481DF055
:109F500064F929A117481DF05BF81E48007840F00D
:109F600080001C4908704FF000000C4908600A4945
:109F700008604FF000000549086019F02FFF70BD20
:109F800000100040000C0140004800403402002056
:109F900030020020000020413C0200203802002056
:109FA0000000A040400200202C020020D10300202D
:109FB000E8030020F8CA00207B2274797065223AF9
:109FC0002264697364617461222C2273223A327DA7
:109FD0000D0A0000E0030020000096437B22747904
:109FE0007065223A2264697364617461222C227361
:109FF000223A317D0D0A00007B2274797065223A85
:10A000002264697364617461222C2273223A307D68
:10A010000D0A00001FB50121512003F04DF84FF04B
:10A0200003008DF80E004FF00400ADF80C004FF067
:10A0300048008DF80F0003A9434802F033FD0221C8
:10A04000042002F061FE4FF0040001904FF0000088
:10A050008DF808004FF00C008DF809004FF001005A
:10A060008DF80A0001A804F0EAFA4FF4C06002F08B
:10A07000F5F84FF008008DF800004FF000008DF863
:10A0800001008DF802004FF001008DF803006846D2
:10A0900002F0EAF81FBD10B5A8B04FF0000419F0A7
:10A0A00081FE042004F03CFB012848D1042004F088
:10A0B0004AFB0A20FEF735FB06E004F10100C4B2BA
:10A0C0004FF00A00FEF72DFB04211F4802F086FD29
:10A0D00008B9FA2CF1DD04211B4802F07FFD38BBE2
:10A0E000FA2C25DB4FF0A002184968461DF063F8F2
:10A0F0000A20FEF716FB04F0C4FD352005F0A1F898
:10A10000134804F00CFEA0226946114800F0CEF876
:10A1100004F0C3FD4FF000000E4908604FF47A7060
:10A12000FEF7FFFA4FF001000B49C1F8A00100BF94
:10A1300000BF0421044802F051FD0028F9D019F0B5
:10A140004DFE28B010BD00000018014028A60208EE
:10A1500000F80708A081214200802142B448B54997
:10A160004860B54848607047B248006940F08000D8
:10A17000B04908617047AF48C16811F0010F01D0C4
:10A180000120704711F0040F01D00220F9E711F00F
:10A19000100F01D00320F4E70020F2E770B5044669
:10A1A00000BFFFF7E8FF0546012D00D007E00120C2
:10A1B000FEF78AFAA4F1010084B2002CF1D100BFAD
:10A1C0000CB94FF0FF05284670BD70B505464FF03D
:10A1D000000445F6FF70FFF7E1FF0446C4B9954857
:10A1E000006940F002009349086108464561006932
:10A1F00040F04000086145F6FF70FFF7CFFF0446CE
:10A20000012C05D08B48006920F0020089490861C3
:10A21000204670BD70B505460E464FF0FF00FFF7B3
:10A22000BDFF04469CB98348006940F001008149A4
:10A2300008612E804FF0FF00FFF7B0FF0446012CAD
:10A2400005D07C48006920F001007A490861204669
:10A2500070BD0146088870472DE9F04105460E465D
:10A2600017464FF0000409E036F814102846FFF7AF
:10A27000D1FF05F1020504F1010084B2BC42F3DB19
:10A28000BDE8F08130B503460C4615464FF000029C
:10A2900009E01846FFF7DDFF24F8120003F102037E
:10A2A00002F1010082B2AA42F3DB30BD2DE9F05F7A
:10A2B00080468A461746B8F1006F02D35F48804552
:10A2C00001D3BDE8F09FFFF749FFA8F1006B4FEA0B
:10A2D000DB25CBF34909C9F58064A74200DC3C4685
:10A2E00054E04FF0006101EBC5204A145449FFF7D8
:10A2F000C9FF4FF000060CE009EB0600504931F8A9
:10A300001000A0F57F41FF3900D004E006F1010004
:10A3100086B2A642F0DB00BFA6421DDA4FF0006114
:10A3200001EBC520FFF751FF4FF0000609E03AF8B6
:10A33000160006EB0901424A22F8110006F101005D
:10A3400086B2A642F3DB4FF0006101EBC5204A1450
:10A350003B49FFF781FF04E0224651464046FFF7A4
:10A360007BFFA74200D112E005F101054FF0000983
:10A370000AEB440A08EB4408A7EB040087B2B7F5E0
:10A38000806F02DD4FF4806400E03C46A9E700BF27
:10A39000FFF7EAFE00BF94E72DE9F047074689463C
:10A3A0001446B7F1006F02D32448874201D3BDE8B9
:10A3B000F087B4F5006F00D9F9E7B8464E4614F0BF
:10A3C000010F01D0A4F1010404F05BFC352004F07E
:10A3D00038FF404604F0A3FC4FF0000510E0707811
:10A3E0004FEA002A307850441FFA80FA08EB050043
:10A3F000514604F0B0FD06F1020605F1020085B2F7
:10A40000A542ECD314F0010F04D0317808EB05001D
:10A4100004F0A1FD04F041FC00BFC8E713B50446F9
:10A420004FF0010201A92046FFF740FF1CBD0000CC
:10A430002301674500200240AB89EFCD00000808EA
:10A44000E00B0020FC480068704708B5002003239B
:10A450000122FAA10090FC481CF070FBFA4808BDEC
:10A4600070B504460D462CB9AC4201D0012070BD38
:10A470000020FCE70DB90120F9E707E0207808B9D2
:10A480000020F4E704F1010405F1010520781CF037
:10A4900013FB064628781CF00FFB8642EED020788E
:10A4A0001CF00AFB064628781CF006FB301ADEE793
:10A4B00070B504464FF000052E460CB9002070BD63
:10A4C00020461CF0C9FD00F1010529464FF00000AF
:10A4D00004F0F9FF060000D1F1E72A462146304694
:10A4E0001CF024FE3046EAE7704710B52821002012
:10A4F00004F0E9FF04461CB1282120461CF0AFFE01
:10A50000204610BD70B504464FF0000522E02568D6
:10A51000E06810F4807F04D1A06810B1A068FFF754
:10A52000F1FFE06810F4807F05D1206918B10020A8
:10A53000216904F0B7FFE06810F4007F05D1206ABC
:10A5400018B10020216A04F0ADFF2146002004F07C
:10A55000A9FF2C46002CDAD170BDF8B506460F468F
:10A5600000BF4FF00000009007B9F8BD69463846BB
:10A570001EF01BFF04460D460098874201D10020C3
:10A58000F3E7C6E90645B14AB14B204629461FF01C
:10A590008BFB03D86FF0004070610FE00022AD4BE1
:10A5A000204629461FF046FA03D84FF0004070615C
:10A5B00004E0204629461FF0B5F970614FF008000D
:10A5C000F0600098D1E770B5064614461D469F4AD4
:10A5D0009F4B204629461FF067FB03D86FF00040D1
:10A5E00070610DE000229B4B204629461FF022FAA5
:10A5F00003D84FF00040706102E04FF00800706136
:10A6000020462946C6E9064570BD2DE9F0410446BD
:10A610000D464FF000063746B5F1004F02D300203B
:10A62000BDE8F0810CB1206808B90020F8E7A06807
:10A6300005446068A84203D3A16820680844EFE796
:10A64000E06808B10020EBE74FEA4507B7F1004F9B
:10A6500007D3B5F1004F02D26FF0004701E00020B0
:10A66000DEE73946002004F02EFF064646B90020FA
:10A67000216804F017FF4FF0000060602060CFE712
:10A6800026B13046D4E900121CF050FD00202168AC
:10A6900004F008FF67602660A0683044C0E770B52A
:10A6A00004464FF000050CB1206808B9002070BDC9
:10A6B000A168206800EB010528461CF0CDFCA168CC
:10A6C0000844F4E72DE9FC47824688464FF000092C
:10A6D000DAE906454A461346204629461FF0E6F8C1
:10A6E00015D1B8F1000F05D002214046FFF78DFFCC
:10A6F000814604E00221002004F0E5FE8146B9F124
:10A70000000F03D054A00088A9F80000C4E0DAF8D4
:10A7100014001FF064F9064622462B461FF006FB84
:10A7200021F0004100224D4BCDE900011FF082F9DC
:10A7300025D8464A464B204629461FF07BF91ED8AD
:10A740000022444B204629461FF0AEFA17D8B8F134
:10A75000000F05D015214046FFF757FF814604E062
:10A760001521002004F0AFFE8146B9F1000FCDD0D5
:10A770003BA14846DAF814201CF0E0F98CE0B8F16F
:10A78000000F05D040214046FFF73FFF814604E01F
:10A790004021002004F097FE8146B9F1000F7BD0E4
:10A7A00000221346204629461FF080F90646002263
:10A7B00013461FF07BF804D02AA148461CF0BEF9CE
:10A7C0006AE0204629461EF017FD064622462B4623
:10A7D0001FF0ACFA21F000410022204BCDE900012E
:10A7E0001FF028F90FD825F0004126461F4A204BBC
:10A7F00030461FF01FF906D222462B461DA14846BF
:10A800001CF09CF948E025F0004126461B4A1C4BF1
:10A8100030461FF00FF907D325F000410022194BF5
:10A8200030461FF041FA31D222462B4616A1484647
:10A830001CF084F930E000004802002025692E2534
:10A84000692E256900000000E01300200000C0FF11
:10A85000FFFFDF410000E0C1300000000000B03C1D
:10A86000256400006E756C6C0000000044F3C2E4C7
:10A87000E4E9634C252E3066000000008DEDB5A0A4
:10A88000F7C6B03E65CDCD412565000022462B467A
:10A89000FBA148461CF052F94846BDE8FC87024639
:10A8A0004FF00003194600BF28E0505C302807DB5A
:10A8B000505C392804DC505CA0F13000034417E000
:10A8C000505C412807DB505C462804DC505CA0F15A
:10A8D000370003440CE0505C612807DB505C6628BD
:10A8E00004DC505CA0F15700034401E000207047F5
:10A8F000032901D24FEA031301F101010429D4D342
:10A900001846F4E72DE9FF4F83B0814617461E46EF
:10A910004FF00004A0464D46A3462046029005F1A4
:10A920000200FFF7BCFF80460498A0EB0500062854
:10A9300001DA356096E0B8F55C4F02D3B8F5604FA8
:10A9400002D3B8F1000F01D135608BE0B8F5584F54
:10A9500032D3B8F55C4F2FD205F1060A4FF0000054
:10A9600001904FF00C0002900498A0EB0A0006281A
:10A9700001DA356076E09AF800005C2803D19AF895
:10A980000100752801D035606CE00AF10200FFF784
:10A9900086FF01900198B0F55C4F03D30198B0F5A4
:10A9A000604F01D335605DE0C8F30901019861F3A0
:10A9B0009F2000F5803403E04FF0060002904446EB
:10A9C000802C02D24FF0010B13E0B4F5006F02D2DD
:10A9D0004FF0020B0DE0B4F5803F02D24FF0030BB5
:10A9E00007E0B4F5881F02D24FF0040B01E0356098
:10A9F00038E0BBF1010F23D0BBF1020F17D0BBF140
:10AA0000030F0BD0BBF1040F22D104F0BF0040F0C4
:10AA100080003968C8704FEA941400BF04F0BF008A
:10AA200040F08000396888704FEA941400BF04F049
:10AA3000BF0040F08000396848704FEA941400BFAE
:10AA4000904810F80B0040EA04003968087001E0F3
:10AA5000356007E000BF386858443860029807B096
:10AA6000BDE8F08F0020FAE72DE9F84F81460E4649
:10AA7000904606F101052C464FF000000090074675
:10AA80003078222802D0C8F80060A4E04FF0000B14
:10AA9000DA460BE020785C2806D1607800B99AE0AD
:10AAA0000AF1010A04F1010404F1010420782228CA
:10AAB00002D020780028EDD1207800B98BE0A4EBFB
:10AAC0000600A0EB0A0B0BF104014FF0000004F0AC
:10AAD000FAFC074607B97EE000976CE028785C280E
:10AAE00008D015F8010B00990870009800F10100DA
:10AAF000009060E04FF0020A687866281BD008DCFE
:10AB000022283CD02F283CD05C2839D062284CD158
:10AB100008E06E2818D072281FD0742826D0752817
:10AB200043D136E04FF0080000990870009800F11A
:10AB3000010000903CE04FF00C0000990870009874
:10AB400000F10100009033E04FF00A000099087016
:10AB5000009800F1010000902AE04FF00D000099EC
:10AB60000870009800F10100009021E04FF009000A
:10AB700000990870009800F10100009018E000BFF3
:10AB800000BF687800990870009800F101000090FB
:10AB90000EE043466A4621462846FFF7B3FE82464A
:10ABA000BAF1000F00D116E002E0C8F8005012E040
:10ABB00000BF554400BFA54290D34FF0000000995C
:10ABC00008704FF01000C9F80C00C9F8107004F1BB
:10ABD0000100BDE8F88F1FB13946002004F062FC87
:10ABE0000020F6E72DE9F05F804689464FF000052A
:10ABF0002C4626462746A346A246B8F1000F17D199
:10AC0000B9F1000F05D003214846FFF7FEFC0646C8
:10AC100004E00321002004F056FC064616B900208B
:10AC2000BDE8F09F18A130461CF0F2F93046F7E776
:10AC3000454614E02878002802DD2878202805DB26
:10AC40002878222802D028785C2802D14FF0010011
:10AC500001E04FF0000040EA0B0B05F101052878F8
:10AC60000028E7D1BBF1000F2BD1A5EB0807B9F104
:10AC7000000F0BD0F91C4846FFF7C7FC06460AE058
:10AC800025660000C8A6020822220000F91C002048
:10AC900004F019FC06460EB90020C1E734464FF017
:10ACA000220004F8010B414620461CF0B1F94FF098
:10ACB0002200E0554FF0000107F101002154304619
:10ACC000AEE7454610E007F101075146F7A01CF03A
:10ACD00057F910B107F1010704E0BAF1200F01DACA
:10ACE00007F1050705F1010528785FEA000AEAD1B6
:10ACF000B9F1000F05D0F91C4846FFF786FC06465F
:10AD000004E0F91C002004F0DEFB06460EB900202A
:10AD100086E7344645464FF0220004F8010B4FE029
:10AD200028781F280ADD2878222807D028785C2870
:10AD300004D015F8010B04F8010B41E04FF05C0062
:10AD400004F8010B15F8011B8A460C291BD006DC00
:10AD5000082913D0092925D00A2928D118E00D295E
:10AD60001BD0222905D05C2921D1084604F8010B0B
:10AD700025E04FF0220004F8010B20E04FF06200C4
:10AD800004F8010B1BE04FF0660004F8010B16E01D
:10AD90004FF06E0004F8010B11E04FF0720004F860
:10ADA000010B0CE04FF0740004F8010B07E0524671
:10ADB000C0A120461BF0C2FE04F1050400BF00BF85
:10ADC00028780028ACD14FF0220004F8010B4FF096
:10ADD000000004F8010B304622E770B504460D462A
:10ADE00029462069FFF7FEFE70BD01E000F1010079
:10ADF00020B1017811B101782029F7DD70472DE9E4
:10AE0000F04781460C4617464FF00008454620782B
:10AE10007B2801D03C6055E0601CFFF7E6FF04464C
:10AE200020787D2800D143E0A4F1010400BFFFF7A2
:10AE30005CFB064606B945E0B8F1000F02D1B0460A
:10AE4000354602E02E6075603546601CFFF7CDFF89
:10AE500004463A4621462846FFF706FE04462046A9
:10AE6000FFF7C3FF044604B92CE0286928624FF0BD
:10AE70000000286120783A2801D03C6022E0601C64
:10AE8000FFF7B3FF04463A462146284600F071F822
:10AE900004462046FFF7A9FF044604B912E02078D3
:10AEA0002C28C4D020787D2801D03C600AE000BF67
:10AEB0004FF04000C9F80C00C9F8088004F1010007
:10AEC000BDE8F087B8F1000F02D04046FFF71AFB4B
:10AED0000020F5E72DE9F04707460C4690464FF075
:10AEE0000006B14620785B2802D0C8F800403AE05E
:10AEF000601CFFF77AFF044620785D2800D12AE025
:10AF0000A4F1010400BFFFF7F0FA054605B92AE0F5
:10AF100016B92E46A94604E0C9F80050C5F80490B9
:10AF2000A946601CFFF761FF044642462146484699
:10AF300000F01FF804462046FFF757FF044604B907
:10AF400011E020782C28DED020785D2802D0C8F8C7
:10AF5000004008E000BF4FF02000F860BE6004F140
:10AF60000100BDE8F08716B13046FFF7CBFA0020AC
:10AF7000F7E770B505460C4616460CB9002070BDC3
:10AF80000422AFF2207120461CF085F828B94FF05A
:10AF90000400E86004F10400F1E7052247A120461F
:10AFA0001CF079F828B94FF00100E86004F10500C1
:10AFB000E5E7042243A120461CF06DF840B94FF0AC
:10AFC0000200E8604FF00100686104F10400D6E778
:10AFD0002078222805D1324621462846FFF744FD35
:10AFE000CDE720782D2805D02078302807DB207881
:10AFF000392804DC21462846FFF7AFFABFE720785E
:10B000005B2805D1324621462846FFF763FFB6E7A5
:10B0100020787B2805D1324621462846FFF7EFFEEF
:10B02000ADE734600020AAE72DE9F04781460D46E0
:10B0300090464FF000040DB1284600E02348064634
:10B04000FFF753FA07464FF0000030600FB9BDE834
:10B05000F0874846FFF7C9FE8246324651463846D9
:10B06000FFF787FF044624B93846FFF74BFA002064
:10B07000EDE7B8F1000F0BD02046FFF7B6FE04460F
:10B08000207828B13846FFF73DFA34600020DEE72B
:10B0900005B12C603846DAE710B504464FF00002DF
:10B0A00011462046FFF7C0FF10BD0000225C080CCF
:10B0B0000A0D0900752530347800000066616C7354
:10B0C00065000000747275650000000048020020F1
:10B0D0002DE9FF4F89B0884616461F464FF0000AFB
:10B0E0005046089007900446069005904FF00700E0
:10B0F00004904FF000054FF0000003900998D0F83D
:10B100000890204602900190009005E0029800F11E
:10B1100001000290D9F80090B9F1000FF6D1029821
:10B1200000283AD157B116B108F1040000E003201D
:10B1300001463846FFF769FA079009E016B108F1B1
:10B14000040000E003200146002004F0BCF9079051
:10B15000079818B900200DB0BDE8F08F079C4FF09C
:10B160007B0004F8010B76B14FF00A0004F8010BE4
:10B170004FF0000505E04FF0090004F8010B05F160
:10B1800001054545F7D34FF07D0004F8010B4FF062
:10B19000000004F8010B0798DDE7002F72D0BD68AE
:10B1A00016B14FF0020001E04FF001000490049945
:10B1B000491C3846FFF729FA04460CB90020CAE7B3
:10B1C0004FF07B0004F8010B1EB14FF00A0004F8A9
:10B1D000010B4FF000002070B96804980844B86073
:10B1E0000998D0F8089008F101087DE0CEB14146F9
:10B1F0003846FFF70AFA04460CB90020ABE74FF0D7
:10B200000000039007E04FF0090004F8010B0398D9
:10B2100000F10100039003984045F4D3B86840441E
:10B22000B8603946D9F82000FFF7DCFC08B90020E7
:10B2300091E73846FFF733FAB86016B14FF00200D5
:10B2400001E04FF00100049038460499FFF7DDF962
:10B2500004460CB900207EE74FF03A0004F8010BD9
:10B260001EB14FF0090004F8010BB96804980844B6
:10B27000B8603B4632464146484600F0BCFA10B939
:10B28000002068E75AE03846FFF709FAB8600EB1C7
:10B29000012000E00020D9F8001011B14FF00101A9
:10B2A00001E04FF0000108440490049901F101010C
:10B2B0003846FFF7AAF904460CB900204BE7D9F845
:10B2C000000018B14FF02C0004F8010B1EB14FF034
:10B2D0000A0004F8010B4FF000002070B9680498D0
:10B2E0000844B860D9F80090B9F1000F7FF47EAF40
:10B2F00016B108F1010000E0022001463846FFF7D0
:10B3000084F904460CB9002025E766B14FF000052A
:10B3100005E04FF0090004F8010B05F10105A8F163
:10B320000100A842F5D84FF07D0004F8010B4FF062
:10B33000000020703868284407901AE102988100C4
:10B34000002004F0C0F88246BAF1000F01D10020BD
:10B3500001E702988100002004F0B5F808900898F1
:10B3600028B95146002004F09DF80020F3E6029829
:10B37000810050461BF073FF0298810008981BF073
:10B380006EFF0998D0F8089008F1010816B10498EA
:10B390004044049032E00021D9F82000FFF722FC5D
:10B3A0000590089941F82500002332464146484659
:10B3B00000F021FA294605F1010506904AF821001E
:10B3C0000598B0B10698A0B106981BF045FE8346DB
:10B3D00005981BF041FE0BEB0001891C16B108F12A
:10B3E000020001E04FF0000001440498084404907A
:10B3F00002E04FF001000190D9F80090B9F1000F80
:10B4000002D001980028C6D0019820B900200499E4
:10B4100004F059F80790079810B94FF00100019017
:10B42000019818B34FF0000513E0089850F8250074
:10B4300028B1089850F82510002004F033F85AF885
:10B44000250020B15AF82510002004F02BF805F152
:10B45000010502988542E8D30020089904F022F8FB
:10B460005146002004F01EF8002074E64FF07B01E6
:10B4700007980170079800F101041EB14FF00A000F
:10B4800004F8010B4FF000002070054650E076B143
:10B490004FF00000039007E04FF0090004F8010BA3
:10B4A000039800F10100039003984045F4D30899F4
:10B4B00051F825001BF0D0FD0090089850F8251099
:10B4C0002046009A1BF032FE009804444FF03A00E8
:10B4D00004F8010B1EB14FF0090004F8010B5AF8F3
:10B4E000251020461BF094FD5AF825001BF0B4FDF2
:10B4F00004440298A0F10100A84203D04FF02C00B0
:10B5000004F8010B1EB14FF00A0004F8010B4FF0D4
:10B5100000002070089850F825104FF0000003F04C
:10B52000C1FF5AF82510002003F0BCFF05F101050A
:10B5300002988542ABD30020089903F0B3FF51462F
:10B54000002003F0AFFF66B14FF0000505E04FF0BB
:10B55000090004F8010B05F10105A8F10100A8425A
:10B56000F5D84FF07D0004F8010B4FF0000004F80F
:10B57000010B0798EFE52DE9FF4F85B092461E4677
:10B580004FF0000B5C46204604904FF005000390FE
:10B590000598D0F80880A1462546204602900190E3
:10B5A00003E009F10109D8F80080B8F1000FF8D1E3
:10B5B000B9F1000F16D12EB103213046FFF725F85F
:10B5C000834604E00321002003F07DFF8346BBF1A6
:10B5D000000F03D0F7A158461BF01AFD584609B0DA
:10B5E000BDE8F08F002E63D0B56801213046FFF72B
:10B5F0000CF804460CB90020F1E74FF05B00207016
:10B60000B06800F10100B0600598D0F8088036E01D
:10B61000334652460699491C404600F0ECF808B9FA
:10B620000020DCE73046FFF73AF8B060D8F80000B9
:10B6300018B3BAF1000F02D04FF0020001E04FF052
:10B64000010003900399491C3046FEF7DEFF0446D3
:10B650000CB90020C3E74FF02C0004F8010BBAF13D
:10B66000000F03D04FF0200004F8010B4FF0000052
:10B670002070B16803980844B060D8F80080B8F131
:10B68000000F02D002980028C2D002213046FEF7F7
:10B69000BCFF04460CB90020A1E74FF05D0004F8A0
:10B6A000010B4FF000002070306800EB050BA0E0AC
:10B6B0004FEA8901002003F006FF07460FB900207A
:10B6C0008DE74FEA890138461BF0C9FD0598D0F88F
:10B6D000088025E0002352460699491C404600F0A8
:10B6E0008AF80490294605F10105049847F82100DD
:10B6F000049880B104981BF0AFFC801CBAF1000FD5
:10B7000002D04FF0010101E04FF000010144039825
:10B710000844039002E04FF001000290D8F8008046
:10B72000B8F1000F02D002980028D3D0029820B9B7
:10B730000020039903F0C7FE8346BBF1000F02D13E
:10B740004FF0010002900298A0B14FF0000509E00F
:10B7500057F8250020B157F82510002003F0A2FE6D
:10B7600005F101054D45F3D33946002003F09AFE5B
:10B77000002034E74FF05B008BF800000BF1010470
:10B780004FF000002070054625E057F825001BF01B
:10B7900063FC019057F825102046019A1BF0C6FC67
:10B7A00001980444A9F10100A8420DD04FF02C00EB
:10B7B00004F8010BBAF1000F03D04FF0200004F899
:10B7C000010B4FF00000207057F82510002003F007
:10B7D00069FE05F101054D45D7D33946002003F038
:10B7E00061FE4FF05D0004F8010B4FF0000004F81B
:10B7F000010B5846F3E62DE9F0470446884691468A
:10B800001D464FF0000614B90020BDE8F087002D5A
:10B8100077D0E068C0B2102858D008DC012819D0D1
:10B82000022823D0042809D0082866D12AE020283D
:10B8300052D0402858D080285FD129E005212846E1
:10B84000FEF7E3FE064626B1AFF6E87130461BF080
:10B85000DFFB55E006212846FEF7D7FE064626B157
:10B86000AFF2A87130461BF0D3FB49E00521284612
:10B87000FEF7CBFE064626B1AFF2B87130461BF09C
:10B88000C7FB3DE029462046FEF71CFF064637E091
:10B890004FF00007206940B9E86818B9002029680E
:10B8A00003F000FE4FF000062AE020691BF0D4FBF5
:10B8B00000F1040739462846FEF7A7FE064626B1E2
:10B8C0003A46304621691BF031FC19E029462046F2
:10B8D000FFF783FA064613E02B464A4641462046C8
:10B8E000FFF749FE06460BE02B464A4641462046F6
:10B8F000FFF7EEFB064603E003E04FF0000600BF53
:10B900004AE0E068C0B210282CD008DC012812D030
:10B91000022816D0042809D0082839D117E0202899
:10B9200026D040282CD0802832D116E02248FEF7BD
:10B93000BFFD06462FE0AFF67C00FEF7B9FD0646D8
:10B9400029E0AFF68000FEF7B3FD064623E00021B4
:10B950002046FEF7B7FE06461DE02069FEF7A8FD6B
:10B96000064618E000212046FFF737FA064612E0A7
:10B9700000234A4641462046FFF7FDFD06460AE001
:10B9800000234A4641462046FFF7A2FB064602E056
:10B990004FF0000600BF00BF304636E710B5044642
:10B9A0004FF000034FF0010219462046FFF723FF36
:10B9B00010BD00005B5D000064A8000810B50446DF
:10B9C0004FF000031A4619462046FFF714FF10BD3A
:10B9D0007FB505460C461646002C02DA002004B05E
:10B9E00070BD2146002003F06EFD0090009808B95C
:10B9F0000020F4E701944FF00000029003906B46A2
:10BA0000324601462846FFF7F6FEE8E72DE9FF41FA
:10BA100007460D4614461E46002C03DA002004B0EB
:10BA2000BDE8F081009501944FF0000002904FF0C6
:10BA3000010003906B4632464FF000013846FFF795
:10BA4000DAFE08B10120EAE70020E8E701468A684B
:10BA50004FF0000002E000F101001268002AFAD164
:10BA6000704702460AB1936801E04FF000031846A0
:10BA700002E0A1F10101006808B10029F9DC70477A
:10BA800070B505460E460DB1A86801E04FF0000004
:10BA9000044600E024682CB13146206AFEF7E0FC41
:10BAA0000028F7D1204670BD70B504460D462946E2
:10BAB0002046FFF7E5FF08B1012070BD0020FCE73C
:10BAC00001604860704770B50546FEF70EFD0446FC
:10BAD0000CB9002070BD2822294620461BF06BFBC4
:10BAE0004FF000002062E06840F48070E0604FF0AA
:10BAF0000000606020602046ECE770B504460E460A
:10BB00004FF0000506B104B970BDA5680DB9A66077
:10BB100008E000E02D6828680028FBD1314628465F
:10BB2000FFF7CEFF00BFEFE770B506460D4614469F
:10BB300004B970BDE06810F4007F05D1206A18B127
:10BB40000020216A03F0AEFC2562E06840F400703A
:10BB5000E06021463046FFF7D0FF00BFE9E72DE95E
:10BB6000F04106460D4614462846FEF7A1FC07465E
:10BB7000224639463046FFF7D7FFE06820F40070D0
:10BB8000E060BDE8F08170B505460C462046FFF741
:10BB90009AFF064631462846FFF7AFFF70BD2DE9F4
:10BBA000F04105460E4614462046FFF78CFF074637
:10BBB0003A4631462846FFF7D2FFBDE8F08110B57E
:10BBC00002460B46916802E00968A3F1010309B13E
:10BBD000002BF9D109B9002010BD486810B1D1E996
:10BBE00000042060086810B1D1E9004060609068EE
:10BBF000884201D1086890604FF0000008604860FA
:10BC00000846E9E770B505460C46002C01DA00202D
:10BC100070BD21462846FFF7D2FFF9E770B504460C
:10BC20000D4629462046FFF7EDFF0646FEF76AFC63
:10BC300070BD2DE9F04105460F464FF00006AC6897
:10BC400002E006F1010624682CB13946206AFEF7AD
:10BC500007FC0028F5D12CB131462846FFF7AFFF8D
:10BC6000BDE8F0810020FBE770B504460D4629468B
:10BC70002046FFF7DEFF0646FEF744FC70BD2DE9C7
:10BC8000F04106460F461446B56802E02D68A7F15C
:10BC900001070DB1002FF9DC2DB921463046FFF721
:10BCA0002CFFBDE8F0812560686860606C60B0685A
:10BCB000A84201D1B46001E06068046000BFF0E711
:10BCC0002DE9F04106460F461446B56802E02D689E
:10BCD000A7F101070DB1002FF9D10DB9BDE8F08131
:10BCE0002868206068686060206808B12068446047
:10BCF000B068A84201D1B46001E0606804604FF010
:10BD00000000686028602846FEF7FCFB00BFE5E7FE
:10BD100070B505460C461646002C00DA70BD32465A
:10BD200021462846FFF7CCFF00BFF7E72DE9F04199
:10BD300006460F4614464FF00008B56802E008F1C9
:10BD400001082D682DB13946286AFEF789FB0028C5
:10BD5000F5D195B1E06810F4007F05D1206A18B1E3
:10BD60000020216A03F09EFB3846FEF7A1FB20620B
:10BD7000224641463046FFF7A3FFBDE8F08110B5EB
:10BD8000FEF7B3FB044614B14FF00400E060204618
:10BD900010BD10B5FEF7A9FB044614B14FF0020028
:10BDA000E060204610BD10B5FEF79FFB044614B1BD
:10BDB0004FF00100E060204610BD70B50546FEF76B
:10BDC00094FB044634B115B14FF0020001E04FF08E
:10BDD0000100E060204670BD70B504460D46FEF7D8
:10BDE00084FB0646FEB14FF00800F060C6E9064548
:10BDF000F04AF14B204629461DF056FF03D86FF05C
:10BE0000004070610FE00022EC4B204629461DF0F7
:10BE100011FE03D84FF00040706104E0204629462F
:10BE20001DF080FD7061304670BD70B50546FEF7AF
:10BE30005CFB04466CB14FF01000E0602846FEF752
:10BE400037FB2061206920B92046FEF75BFB00200C
:10BE500070BD2046FCE770B50546FEF746FB04467C
:10BE60006CB14FF08000E0602846FEF721FB2061B6
:10BE7000206920B92046FEF745FB002070BD204612
:10BE8000FCE710B5FEF731FB044614B14FF020007B
:10BE9000E060204610BD10B5FEF727FB044614B144
:10BEA0004FF04000E060204610BD2DE9F05F824673
:10BEB00088464FF000063746B346B146B8F1000F4A
:10BEC00002DA0020BDE8F09FFFF7DBFF81464FF06C
:10BED000000618E05AF826001DF081FD0446FFF721
:10BEE0007BFF074627B94846FEF70CFB0020E9E731
:10BEF00016B9C9F8087003E039465846FFF7E0FD67
:10BF0000BB4606F10106B9F1000F01D04645E1D369
:10BF10004846D7E72DE9F05F824688464FF0000695
:10BF20003746B346B146B8F1000F02DA0020BDE84B
:10BF3000F09FFFF7A6FF81464FF0000618E05AF881
:10BF400026001DF0DDFF0446FFF746FF074627B930
:10BF50004846FEF7D7FA0020E9E716B9C9F8087095
:10BF600003E039465846FFF7ABFDBB4606F1010634
:10BF7000B9F1000F01D04645E1D34846D7E72DE996
:10BF8000F04780460E464FF000042546A14627465E
:10BF9000002E02DA0020BDE8F087FFF772FF0746A7
:10BFA0004FF0000417E008EBC400D0E90021104670
:10BFB000FFF712FF054625B93846FEF7A3FA002021
:10BFC000E9E70CB9BD6003E029464846FFF778FD74
:10BFD000A94604F101040FB1B442E4D33846DAE7CC
:10BFE0002DE9F04780460E464FF000042546A14655
:10BFF0002746002E02DA0020BDE8F087FFF741FF58
:10C0000007464FF0000414E058F82400FFF70DFF36
:10C01000054625B93846FEF775FA0020ECE70CB95D
:10C02000BD6003E029464846FFF74AFDA94604F1F2
:10C0300001040FB1B442E7D33846DDE72DE9F047FC
:10C04000044689464FF000052F46A8462E4604B9FF
:10C0500045E0FEF74AFA054605B940E0E06820F4FD
:10C060008070E86060696861D4E90601C5E906018D
:10C07000206930B12069FEF71BFA2861286900B9F0
:10C080002DE0206A60B1E06810F4007F01D0206AE2
:10C0900002E0206AFEF70CFA2862286A00B91EE066
:10C0A000B9F1000F02D12846BDE8F087A76812E079
:10C0B00001213846FFF7C2FF064606B90FE0B8F186
:10C0C000000F05D0C8F80060C6F80480B04601E053
:10C0D000AE60B0463F68002FEAD12846E4E715B1CC
:10C0E0002846FEF70FFA0020DEE701465CE0027802
:10C0F000202A02D100F1010056E00278092A02D17B
:10C1000000F1010050E002780D2A02D100F1010097
:10C110004AE002780A2A02D100F1010044E00278E4
:10C120002F2A0CD142782F2A09D101E000F1010019
:10C130000278002A38D002780A2A35D0F6E7027849
:10C140002F2A10D142782A2A0DD101E000F10100F6
:10C1500002782AB102782A2AF8D142782F2AF5D11A
:10C1600000F1020020E00278222A19D110F8012BF8
:10C1700001F8012B0AE002785C2A03D110F8012BA8
:10C1800001F8012B10F8012B01F8012B027812B1F4
:10C190000278222AEFD110F8012B01F8012B03E0DD
:10C1A00010F8012B01F8012B0278002A9FD10A70A8
:10C1B000704700000000C0FFFFFFDF410000E0C14A
:10C1C00008B50121512000F077FF4FF003008DF8F2
:10C1D000020040F24150ADF800004FF010008DF821
:10C1E00003006946124800F05DFC4FF00600ADF810
:10C1F00000004FF048008DF8030069460C4800F03D
:10C2000051FC4FF01800ADF800004FF048008DF8D9
:10C2100003006946074800F045FC0121044800F08E
:10C22000FFFC4FF4A861024800F0F8FC08BD0000D4
:10C23000001001400018014010B545F2555003F0C0
:10C2400031F8042003F031F84FF4487003F030F86F
:10C2500003F031F803F034F810BD0000384940EA2B
:10C260000101384A1160704770B54FF000010B466C
:10C270004FF00F02C4784CB3324C246804F4E064ED
:10C28000C4F5E0644FEA1421C1F1040322FA01F27B
:10C29000447804FA03F1847804EA020444EA0101D0
:10C2A0004FEA0111284C0678A155047804F01F05C7
:10C2B0004FF0010404FA05F405784FEA65154FF0D4
:10C2C000E02606EB8505C5F800410CE0047804F093
:10C2D0001F054FF0010404FA05F41C4D06784FEADF
:10C2E000661645F8264070BD194A01EA020242EA84
:10C2F0000002184B1A60704731B1174A126842EABF
:10C300000002154B1A6005E0134A126822EA000287
:10C31000114B1A607047042808D14FF0E0210969D9
:10C3200041F004014FF0E022116107E04FF0E021FD
:10C33000096921F004014FF0E0221161704700000B
:10C340000000FA050CED00E000E400E080E100E010
:10C3500080FFFF1F08ED00E010ED00E030B943F270
:10C36000DB014FF0204242F8201005E043F2D201F9
:10C370004FF0204242F820106FF0704200F10101AE
:10C380004FF0204343F8212011461A4602EB800269
:10C39000C2F80411704710280CD14FF018014FF06B
:10C3A000204211664FF0400151664FF0FC3191661A
:10C3B000D16611E04FF01801F64A11604FF04001CC
:10C3C0004FF02042C2F884104FF0FC31F24A116065
:10C3D0004FF02042C2F88C1070474FF01800EF4920
:10C3E00008604FF000004FF02041C1F8A4004FF06A
:10C3F000FC30EB49086001F10401086001F104011F
:10C4000008607047D0E9011241EA0201C26841EABE
:10C410000201026941EA0201426941EA02018269BC
:10C4200041EA0201C26941EA0201026A41EA0201EB
:10C43000426A41EA0201826A41EA0201C26A41EAB1
:10C440000201026B41EA02014FF02043026843F807
:10C4500022108168082908D11A46016852F8211073
:10C4600041F04001026843F82210416B0968426BB9
:10C47000526841EA0211426B926841EA0221426B22
:10C48000D26841EA0241426B126941EA0251426BB1
:10C49000526941EA0261426B926941EA0201026813
:10C4A00002F101024FF0204343F82210C16AB1F5B6
:10C4B000804F1BD1816B0968826B526841EA02117F
:10C4C000826B926841EA0221826B126941EA025151
:10C4D000826B526941EA0261826B926941EA020110
:10C4E000026803EB8202C2F8041108E06FF07041A9
:10C4F0004FF02043026803EB8202C2F80411704738
:10C5000030B54FF000010A460B46446844F0080479
:10C51000856844EA0504C56844EA0504056944EAF7
:10C520000504456944EA4524856944EA4531C469FE
:10C530002468C5696D6844EA0524C569AD6844EAA4
:10C540000544C569ED6844EA0562046A2468056A21
:10C550006D6844EA0524056AAD6844EA0544056A45
:10C56000ED6844EA05630468102C05D14FF02044BF
:10C570002166A266E36607E0864C21604FF0204406
:10C58000C4F88820874C236030BD016841F0100159
:10C59000426841EA4221826841EA42317F4A1160A1
:10C5A000C1680968C268526841EA0221C26892689B
:10C5B00041EA0241C268D26841EA0261784A1160E8
:10C5C000016909680269526841EA022102699268B8
:10C5D00041EA02410269D26841EA0261724A11608D
:10C5E000416909684269526841EA022142699268D8
:10C5F00041EA02414269D26841EA02614FF02042B9
:10C60000C2F8B01070474FF0000101604FF0020116
:10C6100041604FF000018160C16001614161816151
:10C62000C16101624FF4805141624FF40051816257
:10C630004FF00001C16201634FF00F01426B1160C6
:10C64000426B51604FF0FF01426B91604FF00F0160
:10C65000426BD160426B1161426B51614FF000013E
:10C66000426B91614FF00F01826B1160826B5160E0
:10C670004FF0FF01826B91604FF00F01826BD16030
:10C68000826B1161826B51614FF00001826B91618D
:10C6900070474FF0100101604FF000014160816070
:10C6A000C1600161416181614FF0FC01C2691160AB
:10C6B000C2695160C2699160C269D160026A116049
:10C6C000026A5160026A9160026AD16070474FF05D
:10C6D00000010160416081604FF0FC01C26811609F
:10C6E000C2685160C2689160C268D160026911601D
:10C6F00002695160026991600269D160426911600A
:10C7000042695160426991604269D160704751B19C
:10C710004FF0204252F8202042F001024FF0204317
:10C7200043F820200AE04FF0204252F820201F4B0F
:10C7300002EA03024FF0204343F82020704799B1EA
:10C74000102808D14FF02042126E42F004024FF040
:10C7500020431A661DE00F4A126842F004024FF0AF
:10C760002043C3F8802014E0102809D14FF0204264
:10C77000126E0F4B02EA03024FF020431A6608E0E4
:10C78000044A12680A4B02EA03024FF02043C3F83E
:10C7900080207047800000A0880000A0A00000A0BA
:10C7A000A80000A08C0000A0AC0000A0FEFF0F00BD
:10C7B000FBFF0F0040B18449096841F004014FF0CC
:10C7C0002042C2F8A01008E07F4909687F4A01EAC8
:10C7D00002014FF02042C2F8A010704799B1102812
:10C7E00008D14FF02042126E42F040024FF0204339
:10C7F0001A661DE0764A126842F040024FF020436C
:10C80000C3F8802014E0102809D14FF02042126EA6
:10C81000704B02EA03024FF020431A6608E06C4AAC
:10C8200012686C4B02EA03024FF02043C3F88020E9
:10C83000704701464FF00000102903D14FF020420D
:10C84000506F01E0644A1068704710B5FAB11028C3
:10C8500008D14FF020435B6E43EA01034FF02044C0
:10C86000636633E0B0F5807F08D15C4B1B6843EA18
:10C8700001034FF02044C4F8843027E0584B1B6874
:10C8800043EA01034FF02044C4F8A4301EE010280E
:10C8900008D14FF020435B6E23EA01034FF02044A0
:10C8A000636613E0B0F5807F08D14C4B1B6823EA28
:10C8B00001034FF02044C4F8843007E0484B1B6864
:10C8C00023EA01034FF02044C4F8A43010BD10B592
:10C8D00002464FF000000346102A03D14FF02044D7
:10C8E000636E07E0B2F5807F02D13C4C236801E023
:10C8F0003B4C23680B4202D04FF0010001E04FF0A7
:10C90000000010BD102808D14FF02042526E22EADC
:10C9100001024FF020435A6613E0B0F5807F08D142
:10C920002E4A126822EA01024FF02043C3F8842005
:10C9300007E02B4A126822EA01024FF02043C3F8B5
:10C94000A420704770B502464FF00000034604462D
:10C950000546102A03D14FF02046736E07E0B2F56A
:10C96000807F02D11D4E336801E01D4E336803EA1B
:10C97000010403EAD1051CB115B14FF0010001E03B
:10C980004FF0000070BD102808D14FF02042526EC9
:10C9900022EAD1024FF020435A6613E0B0F5807FBF
:10C9A00008D10E4A126822EAD1024FF02043C3F8A0
:10C9B000842007E00A4A126822EAD1024FF020439D
:10C9C000C3F8A42070470000A00000A0FBFF0F00E8
:10C9D000800000A0BFFF0F00940000A0840000A012
:10C9E000A40000A010B50446DE48844208D101210D
:10C9F000042000F07FFB0021042000F07BFB46E0D8
:10CA0000D948844208D10121082000F073FB00219D
:10CA1000082000F06FFB3AE0D448844208D101219D
:10CA2000102000F067FB0021102000F063FB2EE0D7
:10CA3000CF48844208D10121202000F05BFB002177
:10CA4000202000F057FB22E0CA48844208D101218F
:10CA5000402000F04FFB0021402000F04BFB16E08F
:10CA6000C548844208D10121802000F043FB002109
:10CA7000802000F03FFB0AE0C048844207D101213A
:10CA8000801500F037FB0021A01500F033FB10BD2E
:10CA900010B50121084600F02DFB0021012000F017
:10CAA00029FB10BD2DE9F04102464FF000052E464E
:10CAB000284603460446074691F803C00CF00F05CC
:10CAC00091F803C01CF0100F03D091F802C04CEA9B
:10CAD0000505B1F800C01CF0FF0F35D014684FF009
:10CAE00000002EE04FF0010C0CFA00F3B1F800C08A
:10CAF0000CEA03069E4222D14FEA80034FF00F0C4E
:10CB00000CFA03F724EA070405FA03FC4CEA0404D0
:10CB100091F803C0BCF1280F06D14FF0010C0CFABC
:10CB200000FCC2F814C00AE091F803C0BCF1480F41
:10CB300005D14FF0010C0CFA00FCC2F810C000F156
:10CB400001000828CED31460B1F800C0BCF1FF0F7B
:10CB500038DD54684FF0000031E000F1080C4FF070
:10CB6000010808FA0CF3B1F800C00CEA03069E4273
:10CB700023D14FEA80034FF00F0C0CFA03F724EA9D
:10CB8000070405FA03FC4CEA040491F803C0BCF165
:10CB9000280F05D100F1080C08FA0CF8C2F814802F
:10CBA00091F803C0BCF1480F07D100F1080C4FF019
:10CBB000010808FA0CF8C2F8108000F101000828FA
:10CBC000CBD35460BDE8F0814FF6FF7101804FF088
:10CBD000020181704FF00401C170704702464FF0AE
:10CBE000000093680B4202D04FF0010001E04FF0CB
:10CBF000000070470146886880B2704702464FF0D7
:10CC00000000D3680B4202D04FF0010001E04FF06A
:10CC1000000070470146C86880B2704701617047E4
:10CC2000416170470AB1016100E041617047C16034
:10CC300070474FF4803242EA010282618161826171
:10CC400082698269704702464FF000004C4B1868B9
:10CC50004FF6807300EA030040EA021040EA010048
:10CC6000474B186070474749C8617047F0B50A469E
:10CC70004FF000031C4619460D4600F00046B6F181
:10CC8000004F02D13E4EF16901E03D4E7168C0F3A4
:10CC9000034583B200F44016B6F5401F08D121F0D9
:10CCA0007061374E766826F07066354F7E6017E00B
:10CCB00000F48016B6F5801F08D14FF0030606FA7F
:10CCC00005F421EA040141F0706109E04FEA505691
:10CCD0004FEA061603FA06F621EA060141F07061F2
:10CCE0003AB14FEA50564FEA061603FA06F646EAFC
:10CCF000010100F00046B6F1004F02D1204EF16173
:10CD000001E01F4E7160F0BD30B54FF000024FEAF8
:10CD100081734FEA13744FF00F0303FA04F21A4BB6
:10CD20004FEAA10453F8243023EA0203164C4FEAD9
:10CD3000A10544F8253023464FEAA10453F82430D6
:10CD40004FEA81744FEA147400FA04F443EA0403CE
:10CD50000D4C4FEAA10544F8253030BD0B49086061
:10CD60007047000000080140000C01400010014025
:10CD70000014014000180140001C01400020014047
:10CD8000000001400000204208000140DC00204279
:10CD9000F748006840F00100F5490860084640681F
:10CDA000F44900EA0100F249486008460068F24987
:10CDB00000EA0100EE4908600846006820F480207F
:10CDC00008600846406820F4FE0048604FF41F00E9
:10CDD00088607047E649096821F48031E44A1160AF
:10CDE0001146096821F480211160B0F5803F03D01D
:10CDF000B0F5802F0ED106E0DD49096841F480319D
:10CE0000DB4A116007E0DA49096841F4A021D84AF9
:10CE1000116000E000BF00BF704710B501464FF041
:10CE20000002134610464FEA6112012A02D1D04C8B
:10CE3000236806E0022A02D1CD4C236A01E0CC4CE3
:10CE4000636A01F01F024FF0010404FA02F41C426D
:10CE500002D04FF0010001E04FF0000010BD70B5AE
:10CE60004FF000042546264600BF3120FFF7D5FFCE
:10CE7000064604F10104B4F5A06F01D0002EF4D0F1
:10CE80003120FFF7CAFF10B14FF0010501E04FF06C
:10CE90000005284670BD01464FF00000B44A1068F6
:10CEA00020F0F80040EAC10010607047B349086004
:10CEB000704702464FF00000AD4B586820F47C10DC
:10CEC00042EA010343EA0000A94B58607047AB49AE
:10CED0000866704701464FF00000A54A506820F0F0
:10CEE000030040EA010050607047A148406800F02C
:10CEF0000C00704701464FF000009D4A506820F03A
:10CF0000F00040EA01005060704701464FF0000019
:10CF1000974A506820F4E06040EA01005060704792
:10CF200001464FF00000924A506820F4605040EAF9
:10CF3000C1005060704731B18D4A527A42EA000216
:10CF40008B4B5A7208E08A4A527A6FEA0003DBB2CE
:10CF500002EA0302864B5A7270478949086070479B
:10CF600001464FF00000824A506820F4404040EAF9
:10CF70000100506070474FF00001824A11707C4AF6
:10CF800082F82010012802D004280AD104E04FF0D2
:10CF900001017C4A117005E04FF00501794A1170DA
:10CFA00000E000BF00BF70477749086070477049D4
:10CFB000096A41EA00016E4A1162704773490860CC
:10CFC000704730B54FF000010A460C460B46684DDD
:10CFD0006D6805F00C0121B1042905D0082927D17D
:10CFE00005E06B4D056026E0694D056023E0604D6E
:10CFF0006D6805F470125E4D6D6805F480344FF075
:10D00000020505EB924224B9624D02FB05F505606D
:10D010000DE0574D6D6815F4003F04D05D4D02FBE7
:10D0200005F5056003E05A4D02FB05F5056002E0D9
:10D03000574D056000BF00BF4D4D6D6805F0F00114
:10D040004FEA1111544D6B5C056825FA03F54560F4
:10D05000474D6D6805F4E0614FEA11214E4D6B5C60
:10D06000456825FA03F58560414D6D6805F460510A
:10D070004FEAD121484D6B5C456825FA03F5C56040
:10D080003B4D6D6805F440414FEA9131434D6B5C77
:10D09000C568B5FBF3F5056130BD31B1344A52695D
:10D0A00042EA0002324B5A6105E0314A526922EAF3
:10D0B00000022F4B5A61704731B12D4A926942EA02
:10D0C00000022B4B9A6105E0294A926922EA00028C
:10D0D000274B9A61704731B1254AD26942EA000272
:10D0E000234BDA6105E0224AD26922EA0002204B92
:10D0F000DA61704731B11E4AD26842EA00021C4B25
:10D10000DA6005E01A4AD26822EA0002184BDA60B7
:10D11000704731B1164A126942EA0002144B1A6193
:10D1200005E0134A126922EA0002114B1A617047A6
:10D130001B49086070471149C86470470C49C871A1
:10D1400070470B48406A40F0807009494862704758
:10D1500001464FF00000064A92680A4202D04FF0A2
:10D16000010001E04FF000007047014988727047EC
:10D17000001002400000FFF8FFFFF6FE00004242F0
:10D18000D800424220100240800442423C04424205
:10D1900000127A0000093D004C0200205C020020D1
:10D1A0004004424210B50446FE48844208D10121A1
:10D1B000C014FFF79FFF0021E014FFF79BFFC4E0BE
:10D1C000B4F1804F08D101210846FFF7A2FF0021EA
:10D1D0000120FFF79EFFB8E0F348844208D1012107
:10D1E0000220FFF796FF00210220FFF792FFACE03C
:10D1F000EE48844208D101210420FFF78AFF002174
:10D200000420FFF786FFA0E0E948844208D101210D
:10D210000820FFF77EFF00210820FFF77AFF94E047
:10D22000E448844208D101211020FFF772FF002159
:10D230001020FFF76EFF88E0DF48844208D101210B
:10D240002020FFF766FF00212020FFF762FF7CE02F
:10D25000DA48844208D101214014FFF74BFF002136
:10D260006014FFF747FF70E0D548844209D10121DF
:10D27000C804FFF73FFF00214FF40020FFF73AFFFB
:10D2800063E0D048844209D101210805FFF732FF4D
:10D2900000214FF48010FFF72DFF56E0CA4884426A
:10D2A00009D101214805FFF725FF00214FF40010A7
:10D2B000FFF720FF49E0C548844208D10121402002
:10D2C000FFF727FF00214020FFF723FF3DE0C04884
:10D2D000844208D101218020FFF71BFF002180201C
