:020000040800F2
:1000000060F40020C50D0008CD0B0008CF0B0008E0
:10001000D30B0008D70B0008DB0B00080000000022
:10002000000000000000000000000000DF0B0008DE
:10003000E10B00080000000023EF0108210E00087A
:10004000DF0D0008DF0D0008DF0D0008DF0D0008E0
:10005000DF0D0008DF0D0008DF0D0008DF0D0008D0
:10006000EF250008DF0D0008DF0D0008DF0D000898
:10007000DF0D0008DF0D0008DF0D0008DF0D0008B0
:10008000DF0D0008DF0D0008DF0D0008DF0D0008A0
:10009000DF0D0008DF0D0008DF0D0008F515000872
:1000A000DF0D0008DF0D0008DF0D0008DF0D000880
:1000B000DF0D0008DF0D0008917A0008DF0D000851
:1000C000DF0D0008DF0D0008DF0D0008DF0D000860
:1000D000DF0D000801100008111D0008DD220008D6
:1000E000DF0D0008DF0D0008DF0D0008DF0D000840
:1000F000DF0D0008DF0D0008DF0D0008DF0D000830
:10010000DF0D0008DF0D0008CBBE0008DF0D000882
:10011000DF0D0008DF0D0008A7220008B31C00084F
:10012000DF0D0008DF0D0008DF0D0008DF0D0008FF
:1001300000F002F800F0B4F80AA090E8000C824445
:100140008344AAF10107DA4501D100F0A9F8AFF222
:10015000090EBAE80F0013F0010F18BFFB1A43F0A5
:1001600001031847388D0200588D02000A444FF0F1
:10017000000C10F8013B13F0070408BF10F8014B06
:100180001D1108BF10F8015B641E05D010F8016B4B
:10019000641E01F8016BF9D113F0080F1EBF10F8AF
:1001A000014BAD1C0C1B09D16D1E58BF01F801CBD2
:1001B000FAD505E014F8016B01F8016B6D1EF9D555
:1001C0009142D6D37047000000230024002500266A
:1001D000103A28BF78C1FBD8520728BF30C148BFAA
:1001E0000B6070476E291FF08D8370291EF0FE870B
:1001F000662922F0AC83652922F0A983672922F0C1
:10020000A6836129AFF3008003681B0A28BF41F071
:10021000800169291EF06C8764291EF069877529A1
:100220001EF066876F291FF09F8678291EF0CA8707
:10023000E9291FF03786E4291FF03486F5291FF0DD
:100240003186EF291FF09C86F8291EF0C9870368C4
:10025000DB0928BF41F0800163291FF0A6857329BF
:100260001FF0AB85E3291FF0F387F3291FF0F88710
:10027000002070471FB522F0B7FA1FF0E4F81FF016
:10028000CBFA04000020002121F010FB401C60602C
:100290000020002121F020FBE0601FBD10B510BD43
:1002A00020F0C4F81146FFF7E5FF00F09EFB20F0B8
:1002B00037FB03B4FFF7F2FF03BC00F03FFE000082
:1002C0000B49D1F800C04A685CF8043B1068184438
:1002D00042F8040B8C4528BFA1F1DC0C8A4228BFF0
:1002E000A1F1DC02C1F800C04A6020F00040704774
:1002F000F8ED002022E0FEA01EF086FE4FF0000088
:10030000FE49086003464FF00102194618461EF0E8
:10031000C6FC4FF00100FA49C1F8A001F9A01EF097
:1003200073FEFC48007830B94FF00100F9490870BD
:10033000F9481EF069FEFF201EF09DFBDBE7DFE2BF
:10034000F648007810B901F017FB0546F44890F81C
:100350007A0000286CD0F1480078002868D1F04875
:1003600090F87A0000282ED0EC48007858BB012184
:10037000EC4804F0CDFE30BBEB48007818BBEBA096
:100380001EF042FE0AF0BFFE0446EB48007850B96A
:1003900024B1002109200AF05BFE13E003210920AB
:1003A0000AF056FE0EE006F006FF352007F0E3F9EE
:1003B000E24806F04EFFA022D949E04802F022FAB6
:1003C00006F005FF9CE2D64890F87A0078B3D3484F
:1003D000007860BB0221D34804F09AFE012828D19E
:1003E000D148007818BBD6A01EF00EFE0AF08BFE96
:1003F0000446D148007850B924B1002104200AF005
:1004000027FE13E0042108460AF022FE0EE006F063
:10041000D2FE352007F0AFF9C84806F01AFFA02237
:10042000BF49C64802F0EEF906F0D1FE68E200E0EE
:100430003AE10421BB4804F06BFE50B3B84890F891
:100440007A0030B3B548007818BBC0A01EF0DCFDC0
:100450000AF059FE0446B848007850B924B100218A
:1004600002200AF0F5FD13E0052102200AF0F0FD5C
:100470000EE006F0A0FE352007F07DF9AF4806F04B
:10048000E8FEA022A649AD4802F0BCF906F09FFEA6
:1004900036E240F6B310854203D940F682408542E9
:1004A0002AD39F4890F87A0030B39C48007818BB54
:1004B000AAA01EF0A9FD0AF026FE04469E48007878
:1004C00050B924B1002103200AF0C2FD13E0062137
:1004D00003200AF0BDFD0EE006F06DFE352007F0AA
:1004E0004AF9964806F0B5FEA0228D49934802F0DD
:1004F00089F906F06CFE03E29B48007850BB8848FF
:1005000090F87A0030B38548007818BB97A01EF0A9
:100510007BFD0AF0F8FD04468748007850B924B105
:10052000002108200AF094FD13E0072108200AF0BA
:100530008FFD0EE006F03FFE352007F01CF97F48E6
:1005400006F087FEA02276497C4802F05BF906F0AF
:100550003EFED5E11021894804F0DAFD50BB704819
:1005600090F87A0030B36D48007818BB84A01EF074
:100570004BFD0AF0C8FD04466F48007850B924B11D
:10058000002105200AF064FD13E0082105200AF08F
:100590005FFD0EE006F00FFE352007F0ECF867482F
:1005A00006F057FEA0225E49644802F02BF906F0DF
:1005B0000EFEA5E15A48D0F880005949C96E88421C
:1005C0002AD9574890F87A0030B35448007818BBBD
:1005D0006FA01EF019FD0AF096FD044656480078FB
:1005E00050B924B1002106200AF032FD13E00921A0
:1005F00006200AF02DFD0EE006F0DDFD352007F0A7
:10060000BAF84E4806F025FEA02245494B4802F0B4
:10061000F9F806F0DCFD73E14148B0F87C00404990
:10062000B1F86810884207DA3D48B0F87C003C49D0
:10063000B1F86A10884259DC394890F87A000028ED
:1006400054D036480078002850D10AF05CFD0446AA
:1006500052A01EF0D9FC14B34FF0010032490870CB
:1006600035480078F8B902E0012000F03AFC4F4824
:1006700000780028F8D04FF000004C4908704FF483
:1006800080714B481FF03BF84AA149481EF032FFE9
:100690005048007840F080004E49087003E00A217D
:1006A00008460AF0D5FC2BE11D4890F87A00E8B91D
:1006B0001A480078D0B91A48B0F87C001849B1F847
:1006C0006810884212DA1648B0F87C001449B1F874
:1006D0006A1088420ADD124890F87A0030B90F4853
:1006E000007818B91048007800B175E0ABE0000060
:1006F000B2A5B7C5C9F9D2F40D0A0000A081214204
:1007000000802142B2A5B7C5C9F9D2F4CDEAB3C978
:100710000D0A0000D2030020502A0208D003002056
:10072000400B00200010014000000020CAE4B3F696
:10073000CCF8C7B90D0A0000D103002000F8070863
:10074000CAE4C8EBCCF8C7B90D0A00004343B6CFE2
:10075000BFAACCF8C7B90D0A00000000414443CC41
:10076000F8C7B90D0A00000028020020B5E7B1ED76
:10077000B6CFCFDFCCF8C7B90D0A00000018014092
:10078000BCB1CDA3B0B4C5A5B0B4CFC20D0A0000B2
:10079000B9FDC1F7CCF8C7B90D0A0000BFAAC6F46D
:1007A000B9FDD1B9B1A3BBA40D0A0000E803002034
:1007B000F8CA00207B2274797065223A22706F7328
:1007C00074737461747573222C227A223A317D0D10
:1007D0000A000000E00300200AF0EDFC06464FF09E
:1007E0000000C04908706EBBBF480078D8B902E06D
:1007F000012000F076FBBD4800780028F8D04FF0CB
:100800000000BA4908704FF06401B9481EF077FF44
:10081000B8A1B7481EF06EFEBE48007840F08000D8
:10082000BC4908700DE00AF06EFC074627B10021B4
:1008300007200AF00DFC03E00B2107200AF008FC5A
:1008400000BF5DE000BFA748007890B10421B24826
:1008500004F05EFC012803D040F6D860854208D938
:100860004FF000009F49087001464FF00B000AF05E
:10087000EFFB0421A84804F04BFC70B940F6D860A7
:1008800085420AD2012000F02CFB4021A24804F04E
:1008900061FC022000F025FB09E0012000F021FBB3
:1008A00040219D4804F054FC022000F01AFB102166
:1008B0009A4804F02DFC28B18B48007810B998486C
:1008C000007858B9012000F00CFB4FF48061924889
:1008D00004F040FC022000F004FB0AE0012000F0DC
:1008E00000FB4FF480618C4804F032FC022000F0E1
:1008F000F8FA64230022114610461EF0D0F900BF1A
:100900001EE51CB587A103C9CDE900014FF05506CE
:100910004FF0000543E055BB20217F4804F018FC50
:10092000012000F0DEFA4FF000040EE01DF8041084
:100930007E4806F029F800BF80217C4806F09AF82E
:100940000028F9D004F10100C4B2082CEED3022033
:1009500000F0C7FA2021704804F0FCFB0121744824
:1009600005F04BFB4FF47A7000F0BBFA0DE0314616
:10097000704806F009F800BF80216E4806F07AF84A
:100980000028F9D0C82000F0ACFA05F10100C5B28A
:100990004FF0060095FBF0F100FB1150C5B2BAE72D
:1009A00070B505461BF09EFD1EF094FA04464FF00C
:1009B0000703614A4FF00001AFF2B9001DF0ADFD31
:1009C00009235E4A0021AFF289601DF0A6FD0D23C8
:1009D0005B4A0021AFF2E3601DF09FFDFF201EF097
:1009E0004AF820461EF07AFA70BD10B500F024FADD
:1009F0004FF4A06003F0CCFE4FF4E13000F0ABFA0E
:100A0000504841684820884701F05EF801F002F83C
:100A100000F060FF01F0AAFD0BF021FA4FF4165030
:100A200001F0D8F84FF4165001F0DEFB002006F07C
:100A3000EAFE03F071FE4FF00000434908704FF0EA
:100A4000A0024249424801F0C9FE4FF000003F4970
:100A500081F87A001BF002FC0BE03EA01EF0D4FAF5
:100A60004FF47A7000F03DFAA0223849384801F07E
:100A7000B5FE36480078AA28EFD13FA01EF0C4FA90
:100A80000BE043A01EF0C0FA4FF48061224804F04E
:100A900061FB4FF47A7000F024FA07F05CFF002845
:100AA000EFD140A01EF0B0FA09F021F90BE041A00F
:100AB0001EF0AAFA4FF48061174804F04BFB4FF484
:100AC0007A7000F00EFA0BF0B8F90028EFD10C2381
:100AD0003D4A0021AFF237101DF01FFD1BF0EAFC6C
:100AE000002010BD00000020D1030020E8030020FA
:100AF000F8CA00207B2274797065223A22706F73E5
:100B000074737461747573222C227A223A307D0DCD
:100B10000A000000E003002000100140001801401E
:100B20002802002039030000000700B00044004004
:100B300000140040004800404C0700204C060020F4
:100B40004C0A002094020020D2030020400B002019
:100B500000F80708B0E5BFA8CEB4B3F5CABCBBAF78
:100B6000A3ACC7EBB0B4BBB9D4ADBCFC33C3EBD2C0
:100B7000D4C9CF0D0A000000B0E5BFA8B3F5CABCC8
:100B8000BBAFB3C9B9A6313131310D0A0000000045
:100B9000CDF8C2E7B3F5CABCBBAFCAA7B0DC210D24
:100BA0000A00000048545450B3F5CABCBBAF0D0A4C
:100BB00000000000BFCDBBA7B6CBB3F5CABCBBAF2E
:100BC000CAA7B0DC210D0A004C090020704700BF05
:100BD000FEE700BFFEE700BFFEE700BFFEE770478D
:100BE000704700004FF0000108466D4A126842F459
:100BF00080326B4B1A6000BF694A126802F4003001
:100C000001F1010110B9B1F5A06FF5D1644A126884
:100C100012F4003F02D04FF0010001E04FF000005D
:100C2000012842D15F4A126842F010025D4B1A60FF
:100C30001A46126822F003021A601A46126842F03D
:100C400002021A60564A5268554B5A601A46526858
:100C50005A601A46526842F480625A601A465268D4
:100C600022F47C125A601A46526842F4E8125A6022
:100C70001A46126842F080721A6000BF484A126831
:100C800012F0007FFAD0464A526822F00302444B29
:100C90005A601A46526842F002025A6000BF404A47
:100CA000526802F00C02082AF9D1704710B5FFF71C
:100CB00099FF10BD10B53A48006840F0010038496E
:100CC000086008464068384900EA01003449486035
:100CD00008460068354900EA0100314908600846C5
:100CE000006820F4802008600846406820F4FE0078
:100CF00048604FF41F008860FFF7D8FF4FF0006096
:100D00002B49086010BD10B54FF00001084602469F
:100D1000234B5B6803F00C0121B1042906D008299C
:100D20002CD107E0234B244C23602BE0214B224C99
:100D3000236027E01A4B5B6803F47010184B5B6864
:100D400003F480324FF0020303EB90402AB91B4BAF
:100D500000FB03F3184C23600FE0114B5B6813F4A6
:100D6000003F05D0154B00FB03F3134C236004E058
:100D7000104B00FB03F3104C236003E00D4B0E4CB3
:100D8000236000BF00BF064B5B68C3F303130C4C2A
:100D9000E15C094B1B6823FA01F3074C236010BD8B
:100DA00000100240002002400000FFF8FFFFF6FEA6
:100DB00008ED00E000127A000400002000093D0068
:100DC000080000200948804709480047FEE7FEE781
:100DD000FEE7FEE7FEE7FEE7FEE7FEE7FEE7FEE7EB
:100DE00004480549054A064B70470000B50C000849
:100DF0003101000860EE002060F4002060F0002067
:100E000060F0002010B51BF0E0FA10BD10B51BF02B
:100E100026FB10BD10B5044620461DF005FF10BD91
:100E200010B540480078012805D11BF02DFA1BF0C1
:100E30007CFB1BF045FA10BD10B56FF0040003F009
:100E400004FD394800683949B0FBF1F038490870B1
:100E5000354800683549B0FBF1F441F2883004FBB5
:100E600000F44FF00500334908804FF0E02000699E
:100E700040F002004FF0E02108610846446100693B
:100E800040F00100086110BD2DE9F04707464FF022
:100E900000064FF0E020D0F814902548007807FBBA
:100EA00000F800BFFFF7AEFF4FF0E020856912E0C9
:100EB0004FF0E0208469AC420DD0AC4203D2A5EBE8
:100EC0000400064403E0A9EB040028440644254638
:100ED000464500D300E0EBE700BFFFF797FFBDE812
:100EE000F08770B504460F480078A0B1124800782A
:100EF00088B910480088844206DB0E48008894FBBD
:100F0000F0F52846FFF786FF0A48008894FBF0F1C9
:100F100000FB114084B24FF47A7104FB01F0FFF73B
:100F2000B3FF70BD2A0500200400002000127A00E3
:100F3000180000201A0000201D050020014600BFF7
:100F4000704700BF504A128812F0400FFAD0C2B268
:100F50004E4B1A80704710B586B004464FF0010121
:100F600044F2040004F042FB4FF40070ADF81400AA
:100F70004FF003008DF816004FF018008DF81700A1
:100F800005A9434804F028F84FF48060ADF8140038
:100F90004FF004008DF8170005A93D4804F01CF837
:100FA0004FF025008DF800004FF003008DF8010090
:100FB0008DF802004FF001008DF80300684603F041
:100FC000EDFB01944FF00000ADF80800ADF80A0009
:100FD000ADF80C00ADF810004FF00C00ADF80E00AD
:100FE00001A9294805F0A3FB012240F2255126481A
:100FF00005F054FC0121244805F043FC06B010BD67
:1010000010B51BF041F940F225511F4805F057FD7E
:1010100018B31D4805F0BCFCC4B21E48008810F48B
:10102000004F2ED11B48008810F4804F0DD00A2CA1
:1010300004D04FF000001749088022E015480088CE
:1010400040F40040134908801BE00D2C06D11148E4
:10105000008840F480400F49088012E00D48008865
:10106000C0F30D000C490C540A48008800F101003F
:101070000849088008460088C72802DD4FF00000B4
:1010800008801BF01DF910BD0038014004380140F4
:10109000000801401C000020500A0020FE4A108079
:1010A0004FF0C842A2F8001170470146FA4801808B
:1010B0004FF0C840B0F80001704770B5044644F0E6
:1010C00040014FF00C00FFF7E9FF0C210B20FFF768
:1010D000E5FF0A20FFF705FF00210B20FFF7DEFFE9
:1010E0000D20FFF7E2FF02460E20FFF7DEFF42EA87
:1010F000002085B2284670BD70B54FF00004E74867
:101100000078082811D109E06420FFF7EAFE04F115
:101110000100C4B2642C01DDFF2070BD0120FFF787
:10112000CCFF10F0200FEFD010E009E06420FFF7B3
:10113000D8FE04F10100C4B2642C01DDFF20ECE70D
:101140000120FFF7B2FF10F0400FEFD00120FFF7B2
:10115000ACFF4FF0020101EAA0154FF00000FFF7CD
:10116000A4FFC0F3C00040EA05052846D5E710B546
:1011700004464FF0000307E0E15C03F11600FFF7BF
:101180008DFF03F10100C3B2082BF5DB10BD10B5D4
:1011900004464FF0000307E0E15C03F11000FFF7A5
:1011A0007DFF03F10100C3B2062BF5DB10BD70B566
:1011B00005460C4645F040014FF00C00FFF76EFF6E
:1011C000E1B20D20FFF76AFF210A0E20FFF766FF4C
:1011D0000A210B20FFF762FF3220FFF782FE002179
:1011E0000B20FFF75BFF70BD70B50646092E1FD2BE
:1011F000DFE806F0050F1E1E0A141E1E19004FF030
:1012000000044FF0210513E04FF480744FF04105C6
:101210000EE04FF400544FF0810509E04FF4045400
:1012200040F2011504E04FF4805440F2E11500BF94
:1012300000BF21460020FFF7BAFF29460420FFF730
:10124000B6FF00211F20FFF729FF70BD00B5282041
:10125000FFF72BFF02464FF02900FFF726FF42EA77
:1012600000224FF02A00FFF720FF42EA00424FF031
:101270002B00FFF71AFF42EA0062104600BD10B5CE
:101280004FF00000864908604FF00A00FFF729FE82
:101290004FF001008349C1F89C014FF06400FFF753
:1012A00020FE01211E20FFF7F9FE00211F20FFF77D
:1012B000F5FE03210020FFF7F1FE00BF1920FFF724
:1012C00010FE0020FFF7F1FE10F0010FF6D1002113
:1012D0000846FFF7E3FE03210020FFF7DFFE00BF13
:1012E0001920FFF7FEFD0020FFF7DFFE10F0010FD1
:1012F000F6D110BD10B59AB001214FF4F07004F092
:1013000075F90121080204F062F90121084604F090
:101310006DF94FF08000ADF864004FF003008DF8D8
:1013200066004FF010008DF8670019A95E4803F0C1
:1013300053FE4FF04000ADF864004FF048008DF8C8
:10134000670019A9594803F047FE4CF23370ADF815
:1013500064004FF003008DF866004FF018008DF820
:10136000670019A9504803F037FE4FF68070ADF8BA
:1013700064004FF003008DF866004FF018008DF800
:10138000670019A94A4803F027FE4FF40050ADF852
:1013900064004FF003008DF866004FF018008DF8E0
:1013A000670019A9434803F017FE4FF40070ADF829
:1013B00064004FF003008DF866004FF018008DF8C0
:1013C000670019A9394803F007FE0621084603F013
:1013D00035FF4FF0400017904FF000008DF860008F
:1013E0004FF00C008DF861004FF001008DF86200A5
:1013F00017A805F0BEFB402005F03FFC4FF017009A
:101400008DF858004FF001008DF859004FF00000A2
:101410008DF85A004FF001008DF85B0016A803F01C
:10142000BDF94FF00000009001904FF003000290D2
:101430004FF0000003900490059006904FF00200DA
:1014400007904FF00000089009904FF010000A90AC
:101450004FF000000B900C900D900E900F904FF4F9
:10146000805010904FF00000119012901390CDF822
:1014700050D0CDF854D007A803F05EFA0121022025
:1014800003F0DFFB0C4804684FF0080003490870C4
:101490004FF00000488011E0FE000064180B0020AF
:1014A0009C81224200802242001401400020014021
:1014B00000180140001C0140E8F7FF1F4FF08100B9
:1014C00048704FF0020008714FF00001D34841719D
:1014D00081714FEA1441C171C4F30B20C1B2CF48EE
:1014E000017244724FF0FF00CC4988720146CB482C
:1014F000C172017341738173C17301744174FFF749
:10150000BEFE6420FFF7EDFCFFF7A0FE0446C448D2
:10151000844204D007F048F901201AB010BDBF4939
:101520000878FFF761FE00210846FFF7B7FD0021AC
:101530000220FFF7B3FD3F210820FFF7AFFD382160
:101540000920FFF7ABFD00210A20FFF7A7FD0021CE
:101550002F20FFF7A3FD2C210120FFF79FFD0F2176
:10156000FE20FFF79BFD80212D20FFF797FDAB4864
:10157000001DFFF70CFEA9480A30FFF7F8FD3121E6
:101580000520FFF78BFD8021FF20FFF787FDFFF788
:10159000B3FD0446FF2C03D107F006F90120BCE798
:1015A0009E484178FF20FFF779FD0020B5E770B530
:1015B0009C4805884FF0FE00FFF777FD0446214662
:1015C0004FF0FE00FFF76AFD14F0040F02D096A062
:1015D0001DF01AFD14F0080F02D096A01DF014FDA6
:1015E00014F0010F03D09B4800681CF05FFE8D488B
:1015F000058070BD10B51AF047FE4FF040009649C7
:10160000086001E0FFF7D3FF944800680028F9D094
:101610001AF056FE10BD2DE9FC4104464FF00007BC
:101620003E466A4631468E4800681BF09DFF802189
:10163000FF20FFF733FD4FF0F8007A490880254678
:101640001EE06889B84218DD384607F101018FB203
:101650006A68125C304606F10101CEB201A90A5453
:10166000022E0DD19DF804009DF8051040EA0120DE
:101670007C4908804FF0000602E02D684FF000071B
:10168000002DDED1012E03D19DF80400754908809C
:101690002089C1B2FC20FFF701FD2089010AFD204D
:1016A000FFF7FCFC01210220FFF7F8FC00BFFE2041
:1016B000FFF7FBFC10F0020FF9D00221FE20FFF72C
:1016C000EDFC56484178FF20FFF7E8FC64480068CD
:1016D0001CF097F8BDE8FC812DE9FC474FF00006AF
:1016E0006A4631465E4800681BF03EFF00BFF020AE
:1016F000FFF7DBFC5B48008800F0FF09B9F1000F41
:1017000078D0B9F1010F0DD957A01DF07DFC002153
:101710000520FFF7C3FC8021FE20FFF7BFFC304609
:10172000BDE8FC874FF0F2003E4908804FF0C8400A
:10173000B0F800514B4804884FF003022146104690
:101740000FF043F80646BEB1374612E0D7F804A0C2
:10175000B7F80A8009E04FF0C840B0F80001AAF8D5
:1017600000000AF1020AA8F10208B8F1000FF2DC49
:101770003F68002FEAD10EE00DF1040AA04607E011
:101780004FF0C840B0F80001AAF80000A8F1020824
:10179000B8F1000FF4D115F43F4F04D1402C02DB17
:1017A000B4F5C06F34DD15F4807F02D037A01DF092
:1017B0002BFC15F4007F02D038A01DF025FC15F499
:1017C000004F02D039A01DF01FFCB4F5C06F09DD39
:1017D0003BA01DF019FC01210020FFF75FFC052054
:1017E000FFF77FFB16B130460EF062FF4FF00006A8
:1017F0007DE7FFE70221FE20FFF750FC4FF081005C
:1018000006494870084641784FF0FF00FFF746FC54
:10181000134800681BF0F5FF304681E7180B0020E5
:10182000460A0090FE0000646F766572666C6F7702
:10183000200D0A006F766572666C6F7720636F7596
:101840006E746572206F766572666C6F77200D0A14
:1018500000000000940300201404014018012442F9
:101860009803002000010064646D3930303020722C
:10187000783A207278206572726F722C2073746FC0
:1018800070206465766963650D0A000072782066D1
:1018900069666F206572726F720D0A00727820633C
:1018A0007263206572726F720D0A00007278206C8C
:1018B000656E677468206572726F720D0A000000B1
:1018C0007278206C656E67746820746F6F2062692F
:1018D000670D0A0000B587B0012140F2052003F032
:1018E00085FE4FF4004003F0D5FD4FF003008DF866
:1018F0001A004FF02000ADF818004FF000008DF8EE
:101900001B0006A9414803F067FB4FF0000001905F
:101910008DF808008DF809004FF4602003904FF017
:10192000000004904FF001008DF8140001A9384820
:1019300005F0D9F9072301220521354805F083FA7E
:101940000121334805F005FA314805F027FA00BFB8
:101950002F4805F028FA0028FAD12D4805F030FA72
:1019600000BF2B4805F031FA0028FAD101212848A0
:1019700005F038FA07B000BD2DE9F0414FF0000442
:101980002646254621E04FF000074FF00101204890
:1019900005F028FA00BF02211D4805F0B7FB00281A
:1019A000F9D01B4805F0CAFA0746B7F5006F03D90E
:1019B0003D4404F10100C4B2B6F57A7F02DD002097
:1019C000BDE8F08106F1010086B2322CDBDBB5FB0D
:1019D000F4F52846F4E770B54FF000052C4611E009
:1019E00001210B4805F0FEF900BF0221084805F06F
:1019F0008DFB0028F9D0064805F0A0FA044405F153
:101A00000100C5B2322DEBDB204670BD000801405D
:101A10000024014000B589B00121022003F0F5FD4A
:101A20000121102003F0E2FD0121084603F0DEFD54
:101A300040F2E730ADF81C004FF04700ADF8180059
:101A40004FF00000ADF81E00ADF81A0006A91B48C3
:101A500003F016FF0121194804F0CFFA4FF00300FC
:101A60008DF816004FF08000ADF814004FF018000C
:101A70008DF8170005A9124803F0AEFA01211148AC
:101A800003F08EFB4FF06000ADF804004FF0010052
:101A9000ADF806004FF00000ADF80C0001A90748B2
:101AA00003F085FF0821054804F00EFC4FF47A711D
:101AB000024804F0ACFD09B000BD00000004004085
:101AC00000100140000C1A0008B50121082003F0A5
:101AD0008DFD4FF48070ADF800004FF010008DF8D0
:101AE00003004FF003008DF802006946044803F03C
:101AF00073FA4FF48071024803F02AFB08BD00001E
:101B0000000C01402DE9F04102460B464FF0FF0466
:101B10002546A3F1020000F0FF0C09E012F8010BCA
:101B200080EA04010C48405C80EA05040B48455CEF
:101B30005FEA0C00ACF1010808F0FF0CEED112F8DE
:101B4000016B12F8017BBD4204D1B44202D10120E5
:101B5000BDE8F0810020FBE72400002024010020E4
:101B60001FB50121202003F050FD4FF47A70ADF82D
:101B7000080048F69F40ADF804004FF00000ADF8B3
:101B80000A00ADF8060001A9FE4803F079FE012124
:101B9000FC4804F06DFD01221146FA4804F049FAB0
:101BA0004FF037008DF800004FF003008DF8010072
:101BB0008DF802004FF001008DF80300684602F036
:101BC000EDFD0121EF4804F06BFD0021ED4804F02C
:101BD00014FA1FBD10B586B004464FF001014FF056
:101BE000150003F003FD0121480403F00EFD4FF042
:101BF0000400ADF814004FF003008DF816004FF00C
:101C000018008DF8170005A9DF4803F0E5F94FF03B
:101C10000800ADF814004FF004008DF8170005A976
:101C2000D94803F0D9F94FF02000ADF814004FF077
:101C300010008DF8170005A9D44803F0CDF94FF036
:101C400026008DF800004FF003008DF801008DF89C
:101C500002004FF001008DF80300684602F09EFD7F
:101C600001944FF00000ADF80800ADF80A00ADF89F
:101C70000C00ADF810004FF00C00ADF80E0001A9FB
:101C8000C34804F054FD012240F22551C04804F03D
:101C900005FE0121BE4804F0F4FD4021BC4804F0DB
:101CA00004FF2021BB4803F055FAFFF759FF06B0A7
:101CB00010BD10B51AF0E8FA0121B24804F0DCFCBE
:101CC000002822D00121AF4804F0EAFC0021AD48F1
:101CD00004F093F90021AB4804F093FCAE4800787F
:101CE00000F10100AC49087008460078052805DDC0
:101CF0004FF00000A9490870A74908704FF0000094
:101D0000A7490860A7A01DF07FF91AF0D9FA10BD05
:101D1000F0B585B01AF0B8FA08219D4804F0AAFE83
:101D2000002839D008219A4804F0BFFE9C4800687A
:101D300080B9974804F02CFEC4B2392C09D1A548CB
:101D40009749096844549648006800F10100944995
:101D5000086021E092480068012810D18C4804F006
:101D600017FEC4B2032C09D19A488D49096844541E
:101D70008B48006800F10100894908600CE0844844
:101D800004F006FE9349864A126888548448006825
:101D900000F101008249086040F225517C4804F0BE
:101DA0008EFE00283AD040F22551794804F0BBFE5F
:101DB0007B48006880B9764804F0EAFDC4B2392C4B
:101DC00009D184487649096844547548006800F18F
:101DD00001007349086021E071480068012810D1B2
:101DE0006B4804F0D5FDC4B2032C09D179486C4985
:101DF000096844546A48006800F1010068490860B5
:101E00000CE0634804F0C4FD7249654A12688854C6
:101E10006348006800F1010061490860604800689B
:101E200013286BD113216B48FFF76CFE0128F8D102
:101E30000121544804F034FC0021524804F0DDF83C
:101E40000021504804F0DDFB4FF0010053490870B9
:101E50004FF00000504908705E4880794FEA0061F9
:101E60005C48407941EA00415A48C07841EA002084
:101E70005849097940EA01045748D0F88800A0423F
:101E800042D9554890F87A0001283DD15248D0F8FF
:101E9000980090B3504890F89C00012834D14E48E7
:101EA000D0F88C0000F101004B49C1F88C000846C5
:101EB000C0F888404748007A4649C97940EA01207D
:101EC0004549A1F87C004348007B4249C97A40EA71
:101ED00001214048407A41EA00203E49897A40EA9F
:101EE00001003D49C1F8800009F00DF9054635B9FA
:101EF0000021172009F0ACF805E005E02FE10D21E5
:101F0000172009F0A5F825E13348D0F88800A04251
:101F1000F9D23148C0F888402E48007A2D49C97955
:101F200040EA01202C49A1F87C002A48007B29497D
:101F3000C97A40EA01212748407A41EA0020254930
:101F4000897A40EA01002449C1F88000084690F8E7
:101F50007A00012812D10846D0F8980070B10846DE
:101F600090F89C00012809D10846D0F88800D1F8E3
:101F70008410A0EB01001849C1F88C0017480078C4
:101F800070BB2EE00014004000080140001001402A
:101F900000440040000C01402902002028020020DB
:101FA00024020020B5E7B1EDB6C1C8A1B3ACCAB1F7
:101FB000A3ACBFC9C4DCCAC7CFDFC2B7C3BBBDD3E4
:101FC000BAC3BBF2D5DFB5E7B1EDB9CAD5CFA3A18E
:101FD0000D0A00002A0B0020400B0020D103002036
:101FE00034E06149D1F88C105F4AD2F8902001FBAF
:101FF00002F020F06BFB07465C4920F08DFA0546A5
:102000005949D1F8940020F061FB0646294620F09A
:1020100071FB1BD8544890F87A00012816D1524819
:10202000D0F8980090B1504890F89C0001280DD14C
:1020300009F069F8054625B90021182009F008F8CB
:1020400003E00E21182009F003F883E048480078E7
:1020500001283BD14449D1F88C10434AD2F8902052
:1020600001FB02F020F032FB0746404920F054FA11
:1020700005463D49D1F8940020F028FB0646294644
:1020800020F038FB22D8384890F87A0001281DD17A
:102090003548D0F89800C8B1334890F89C00012822
:1020A00014D14FF00000304981F87A0005F083F830
:1020B000352005F060FB2F4805F0CBF8A0222A4917
:1020C0002C4800F09FFB05F082F843E005F073F820
:1020D000352005F050FB274805F0BBF8A022224927
:1020E000244800F08FFB05F072F82148007888BB87
:1020F00002E00120FEF7F5FE1F4800780028F8D026
:102100004FF000001C4908704FF480711B481DF00F
:10211000F6FA1548D0F88C2090F89C10D0F898006A
:10212000114B93F87A30CDE90130CDE903120E4816
:10213000D0F8800000900C48B0F87C301049D0F8FE
:1021400088200E481CF06CFF0E48007840F080009C
:102150000C4908704FF000000B49086000BF1AF0EE
:10216000AFF805B0F0BD0000400B0020000020419A
:10217000D103002000F80708E8030020F8CA002077
:10218000B02A0208E0030020240200201FB501212C
:10219000102003F03AFA4FF47A70ADF8080040F6D8
:1021A0000F60ADF804004FF00000ADF80A00ADF884
:1021B000060001A9C84803F063FB01221146C64886
:1021C00003F037FF4FF036008DF800004FF00300AA
:1021D0008DF801008DF802004FF001008DF803002A
:1021E000684602F0DBFA1FBD10B586B004464FF01A
:1021F00001014FF0080003F0F9F90121880403F010
:1022000004FA4FF48060ADF804004FF003008DF83D
:1022100006004FF018008DF8070001A9AF4802F042
:10222000DBFE4FF40060ADF804004FF004008DF8C1
:10223000070001A9A94802F0CFFE02944FF0000068
:10224000ADF80C00ADF80E00ADF81000ADF81400BC
:102250004FF00C00ADF812004FF027008DF8000091
:102260004FF003008DF801008DF802004FF00100DF
:102270008DF80300684602F091FA012240F22551E0
:10228000974804F00BFB02A9954804F050FA01218D
:10229000934804F0F6FA4021914804F006FCFFF759
:1022A00075FF06B010BD10B519F0EEFF01218A4888
:1022B00004F0E2F978B10121874804F0F1F94FF018
:1022C0000000884908600146834803F096FE00211B
:1022D000814804F096F919F0F3FF10BD70B519F0BC
:1022E000D3FF01217C4803F088FE08217C4804F0DC
:1022F000C1FB80B108217A4804F0D7FB784804F08C
:1023000047FB7949774A126888547648006800F19B
:1023100001007449086040F22551714804F0CFFB78
:1023200088B140F225516E4804F0FDFB6C4804F082
:102330002FFB6D496B4A126888546A48006800F1A7
:102340000100684908606748006802286FD1664943
:102350004978654A127841EA022020F09FF9054643
:10236000624920F0D9F8044661480168204620F00F
:1023700065F85F4908605F48006800F101005D4949
:1023800008600846006805287ED15B495848006807
:1023900020F0C2F8564908600846006857490860AE
:1023A00055495348006820F0A5F927D854480068DB
:1023B000022823D04FF002005149086051480078AC
:1023C00000287CD102E00120FEF78BFD4E4800780A
:1023D0000028F8D04FF000004B4908704FF480718E
:1023E0004A481DF08CF94AA148481DF083F84F482F
:1023F000007840F080004D49087060E03E493C485C
:10240000006820F0FDF92ED249493948006820F0D3
:1024100071F928D83A480068012824D04FF001000B
:102420003749086037480078002848D103E050E079
:102430000120FEF756FD344800780028F8D04FF010
:102440000000314908704FF4807130481DF057F991
:1024500038A12E481DF04EF83448007840F0800036
:10246000324908702BE032492148006820F0C8F951
:1024700025D22348006810B34FF0000020490860BF
:1024800020480078D8B903E01FE00120FEF729FDBD
:102490001D4800780028F8D04FF000001A49087055
:1024A0004FF4807119481DF02AF929A117481DF031
:1024B00021F81E48007840F080001C4908704FF059
:1024C00000000C4908600A4908604FF00000054907
:1024D000086019F0F5FE70BD00100040000C0140CE
:1024E000004800403402002030020020000020415B
:1024F0003C020020380200200000A04040020020E2
:102500002C020020D1030020E8030020F8CA00209C
:102510007B2274797065223A226469736461746104
:10252000222C2273223A327D0D0A0000E0030020A3
:10253000000096437B2274797065223A22646973A5
:1025400064617461222C2273223A317D0D0A0000ED
:102550007B2274797065223A2264697364617461C4
:10256000222C2273223A307D0D0A00001FB5012172
:10257000512003F03BF84FF003008DF80E004FF0B0
:102580000400ADF80C004FF048008DF80F0003A9CF
:10259000434802F021FD0221042002F04FFE4FF0DB
:1025A000040001904FF000008DF808004FF00C007F
:1025B0008DF809004FF001008DF80A0001A804F021
:1025C000D8FA4FF4C06002F0E3F84FF008008DF83D
:1025D00000004FF000008DF801008DF802004FF070
:1025E00001008DF80300684602F0D8F81FBD10B551
:1025F000A8B04FF0000419F047FE042004F02AFBB5
:10260000012848D1042004F038FB0A20FEF769FCB9
:1026100006E004F10100C4B24FF00A00FEF761FCCD
:1026200004211F4802F074FD08B9FA2CF1DD0421E1
:102630001B4802F06DFD38BBFA2C25DB4FF0A002E1
:10264000184968461DF029F80A20FEF74AFC04F0F4
:10265000B2FD352005F08FF8134804F0FAFDA022F2
:102660006946114800F0CEF804F0B1FD4FF00000CB
:102670000E4908604FF47A70FEF733FC4FF001000A
:102680000B49C1F8A00100BF00BF0421044802F0BB
:102690003FFD0028F9D019F013FE28B010BD00004E
:1026A000001801400C2B020800F80708A081214205
:1026B00000802142B448B5494860B5484860704739
:1026C000B248006940F08000B04908617047AF48E7
:1026D000C16811F0010F01D00120704711F0040F03
:1026E00001D00220F9E711F0100F01D00320F4E728
:1026F0000020F2E770B5044600BFFFF7E8FF05468B
:10270000012D00D007E00120FEF7BEFBA4F101007F
:1027100084B2002CF1D100BF0CB94FF0FF05284660
:1027200070BD70B505464FF0000445F6FF70FFF729
:10273000E1FF0446C4B99548006940F0020093499E
:10274000086108464561006940F04000086145F6AF
:10275000FF70FFF7CFFF0446012C05D08B480069BE
:1027600020F0020089490861204670BD70B5054619
:102770000E464FF0FF00FFF7BDFF04469CB98348AB
:10278000006940F00100814908612E804FF0FF0090
:10279000FFF7B0FF0446012C05D07C48006920F00B
:1027A00001007A490861204670BD014608887047DB
:1027B0002DE9F04105460E4617464FF0000409E0AA
:1027C00036F814102846FFF7D1FF05F1020504F191
:1027D000010084B2BC42F3DBBDE8F08130B50346B2
:1027E0000C4615464FF0000209E01846FFF7DDFFE2
:1027F00024F8120003F1020302F1010082B2AA429E
:10280000F3DB30BD2DE9F05F80468A461746B8F10C
:10281000006F02D35F48804501D3BDE8F09FFFF70A
:1028200049FFA8F1006B4FEADB25CBF34909C9F555
:102830008064A74200DC3C4654E04FF0006101EBAD
:10284000C5204A145449FFF7C9FF4FF000060CE0B9
:1028500009EB0600504931F81000A0F57F41FF391F
:1028600000D004E006F1010086B2A642F0DB00BF12
:10287000A6421DDA4FF0006101EBC520FFF751FFC2
:102880004FF0000609E03AF8160006EB0901424A4B
:1028900022F8110006F1010086B2A642F3DB4FF0E8
:1028A000006101EBC5204A143B49FFF781FF04E0BA
:1028B000224651464046FFF77BFFA74200D112E077
:1028C00005F101054FF000090AEB440A08EB440842
:1028D000A7EB040087B2B7F5806F02DD4FF4806488
:1028E00000E03C46A9E700BFFFF7EAFE00BF94E71F
:1028F0002DE9F047074689461446B7F1006F02D329
:102900002448874201D3BDE8F087B4F5006F00D9B1
:10291000F9E7B8464E4614F0010F01D0A4F10104C6
:1029200004F049FC352004F026FF404604F091FCF9
:102930004FF0000510E070784FEA002A30785044DC
:102940001FFA80FA08EB0500514604F09EFD06F1DF
:10295000020605F1020085B2A542ECD314F0010F86
:1029600004D0317808EB050004F08FFD04F02FFC53
:1029700000BFC8E713B504464FF0010201A9204685
:10298000FFF740FF1CBD0000230167450020024007
:10299000AB89EFCD00000808E00B0020FC48006880
:1029A000704708B5002003230122FAA10090FC48DB
:1029B0001CF036FBFA4808BD70B504460D462CB92C
:1029C000AC4201D0012070BD0020FCE70DB9012010
:1029D000F9E707E0207808B90020F4E704F10104E2
:1029E00005F1010520781CF0D9FA064628781CF07C
:1029F000D5FA8642EED020781CF0D0FA0646287828
:102A00001CF0CCFA301ADEE770B504464FF0000532
:102A10002E460CB9002070BD20461CF08FFD00F141
:102A2000010529464FF0000004F0C5FF060000D163
:102A3000F1E72A46214630461CF0EAFD3046EAE737
:102A4000704710B52821002004F0B5FF04461CB1E2
:102A5000282120461CF075FE204610BD70B50446A6
:102A60004FF0000522E02568E06810F4807F04D173
:102A7000A06810B1A068FFF7F1FFE06810F4807F54
:102A800005D1206918B10020216904F083FFE068B6
:102A900010F4007F05D1206A18B10020216A04F0EB
:102AA00079FF2146002004F075FF2C46002CDAD176
:102AB00070BDF8B506460F4600BF4FF0000000900D
:102AC00007B9F8BD694638461EF0E1FE04460D46DA
:102AD0000098874201D10020F3E7C6E90645B14AD4
:102AE000B14B204629461FF051FB03D86FF0004040
:102AF00070610FE00022AD4B204629461FF00CFA12
:102B000003D84FF00040706104E0204629461FF0D2
:102B10007BF970614FF00800F0600098D1E770B564
:102B2000064614461D469F4A9F4B204629461FF0E5
:102B30002DFB03D86FF0004070610DE000229B4B2D
:102B4000204629461FF0E8F903D84FF00040706195
:102B500002E04FF00800706120462946C6E90645AC
:102B600070BD2DE9F04104460D464FF00006374692
:102B7000B5F1004F02D30020BDE8F0810CB1206810
:102B800008B90020F8E7A06805446068A84203D3AC
:102B9000A16820680844EFE7E06808B10020EBE78F
:102BA0004FEA4507B7F1004F07D3B5F1004F02D206
:102BB0006FF0004701E00020DEE73946002004F016
:102BC000FAFE064646B90020216804F0E3FE4FF005
:102BD000000060602060CFE726B13046D4E90012E3
:102BE0001CF016FD0020216804F0D4FE676026600A
:102BF000A0683044C0E770B504464FF000050CB142
:102C0000206808B9002070BDA168206800EB0105AC
:102C100028461CF093FCA1680844F4E72DE9FC4722
:102C2000824688464FF00009DAE906454A461346CF
:102C3000204629461FF0ACF815D1B8F1000F05D099
:102C400002214046FFF78DFF814604E0022100206B
:102C500004F0B1FE8146B9F1000F03D054A0008802
:102C6000A9F80000C4E0DAF814001FF02AF90646BB
:102C700022462B461FF0CCFA21F0004100224D4B9A
:102C8000CDE900011FF048F925D8464A464B2046B9
:102C900029461FF041F91ED80022444B2046294600
:102CA0001FF074FA17D8B8F1000F05D0152140466F
:102CB000FFF757FF814604E01521002004F07BFE5A
:102CC0008146B9F1000FCDD03BA14846DAF8142077
:102CD0001CF0A6F98CE0B8F1000F05D04021404669
:102CE000FFF73FFF814604E04021002004F063FE2F
:102CF0008146B9F1000F7BD00022134620462946B9
:102D00001FF046F90646002213461FF041F804D092
:102D10002AA148461CF084F96AE0204629461EF0A4
:102D2000DDFC064622462B461FF072FA21F00041D8
:102D30000022204BCDE900011FF0EEF80FD825F05E
:102D4000004126461F4A204B30461FF0E5F806D2C8
:102D500022462B461DA148461CF062F948E025F0AA
:102D6000004126461B4A1C4B30461FF0D5F807D3BE
:102D700025F000410022194B30461FF007FA31D2EE
:102D800022462B4616A148461CF04AF930E00000C6
:102D90004802002025692E25692E256900000000C3
:102DA000E01300200000C0FFFFFFDF410000E0C192
:102DB000300000000000B03C256400006E756C6CB3
:102DC0000000000044F3C2E4E4E9634C252E3066C1
:102DD000000000008DEDB5A0F7C6B03E65CDCD4139
:102DE0002565000022462B46FBA148461CF018F939
:102DF0004846BDE8FC8702464FF00003194600BF75
:102E000028E0505C302807DB505C392804DC505C3B
:102E1000A0F13000034417E0505C412807DB505C10
:102E2000462804DC505CA0F1370003440CE0505C01
:102E3000612807DB505C662804DC505CA0F1570079
:102E4000034401E000207047032901D24FEA031335
:102E500001F101010429D4D31846F4E72DE9FF4F0D
:102E600083B0814617461E464FF00004A0464D46EB
:102E7000A3462046029005F10200FFF7BCFF804602
:102E80000498A0EB0500062801DA356096E0B8F555
:102E90005C4F02D3B8F5604F02D3B8F1000F01D1F7
:102EA00035608BE0B8F5584F32D3B8F55C4F2FD270
:102EB00005F1060A4FF0000001904FF00C0002905F
:102EC0000498A0EB0A00062801DA356076E09AF84B
:102ED00000005C2803D19AF80100752801D0356004
:102EE0006CE00AF10200FFF786FF01900198B0F54F
:102EF0005C4F03D30198B0F5604F01D335605DE0BE
:102F0000C8F30901019861F39F2000F5803403E0C4
:102F10004FF0060002904446802C02D24FF0010B85
:102F200013E0B4F5006F02D24FF0020B0DE0B4F5E0
:102F3000803F02D24FF0030B07E0B4F5881F02D2A6
:102F40004FF0040B01E0356038E0BBF1010F23D0F6
:102F5000BBF1020F17D0BBF1030F0BD0BBF1040F75
:102F600022D104F0BF0040F080003968C8704FEAF9
:102F7000941400BF04F0BF0040F0800039688870EE
:102F80004FEA941400BF04F0BF0040F0800039689D
:102F900048704FEA941400BF904810F80B0040EAC4
:102FA00004003968087001E0356007E000BF386848
:102FB00058443860029807B0BDE8F08F0020FAE767
:102FC0002DE9F84F81460E46904606F101052C4644
:102FD0004FF00000009007463078222802D0C8F851
:102FE0000060A4E04FF0000BDA460BE020785C288C
:102FF00006D1607800B99AE00AF1010A04F10104EF
:1030000004F101042078222802D020780028EDD194
:10301000207800B98BE0A4EB0600A0EB0A0B0BF1C3
:1030200004014FF0000004F0C6FC074607B97EE03B
:1030300000976CE028785C2808D015F8010B0099FF
:103040000870009800F10100009060E04FF0020A63
:10305000687866281BD008DC22283CD02F283CD07A
:103060005C2839D062284CD108E06E2818D072282C
:103070001FD0742826D0752843D136E04FF00800C1
:1030800000990870009800F1010000903CE04FF0BA
:103090000C0000990870009800F10100009033E0E6
:1030A0004FF00A0000990870009800F101000090AC
:1030B0002AE04FF00D0000990870009800F101001F
:1030C000009021E04FF0090000990870009800F18D
:1030D0000100009018E000BF00BF687800990870F8
:1030E000009800F1010000900EE043466A46214638
:1030F0002846FFF7B3FE8246BAF1000F00D116E072
:1031000002E0C8F8005012E000BF554400BFA542DD
:1031100090D34FF00000009908704FF01000C9F8EC
:103120000C00C9F8107004F10100BDE8F88F1FB160
:103130003946002004F02EFC0020F6E72DE9F05F70
:10314000804689464FF000052C4626462746A34672
:10315000A246B8F1000F17D1B9F1000F05D0032135
:103160004846FFF7FEFC064604E00321002004F079
:1031700022FC064616B90020BDE8F09F18A1304693
:103180001CF0B8F93046F7E7454614E028780028E7
:1031900002DD2878202805DB2878222802D028782C
:1031A0005C2802D14FF0010001E04FF0000040EA3E
:1031B0000B0B05F1010528780028E7D1BBF1000FC2
:1031C0002BD1A5EB0807B9F1000F0BD0F91C48462D
:1031D000FFF7C7FC06460AE025660000AC2B020894
:1031E00022220000F91C002004F0E5FB06460EB97F
:1031F0000020C1E734464FF0220004F8010B41469D
:1032000020461CF077F94FF02200E0554FF0000106
:1032100007F1010021543046AEE7454610E007F1C2
:1032200001075146F7A01CF01DF910B107F1010785
:1032300004E0BAF1200F01DA07F1050705F10105F5
:1032400028785FEA000AEAD1B9F1000F05D0F91C2D
:103250004846FFF786FC064604E0F91C002004F00F
:10326000AAFB06460EB9002086E7344645464FF0D5
:10327000220004F8010B4FE028781F280ADD287887
:10328000222807D028785C2804D015F8010B04F810
:10329000010B41E04FF05C0004F8010B15F8011B35
:1032A0008A460C291BD006DC082913D0092925D011
:1032B0000A2928D118E00D291BD0222905D05C2924
:1032C00021D1084604F8010B25E04FF0220004F854
:1032D000010B20E04FF0620004F8010B1BE04FF0FF
:1032E000660004F8010B16E04FF06E0004F8010BC5
:1032F00011E04FF0720004F8010B0CE04FF0740085
:1033000004F8010B07E05246C0A120461BF088FEDE
:1033100004F1050400BF00BF28780028ACD14FF0AD
:10332000220004F8010B4FF0000004F8010B3046B6
:1033300022E770B504460D4629462069FFF7FEFED8
:1033400070BD01E000F1010020B1017811B10178F8
:103350002029F7DD70472DE9F04781460C461746D6
:103360004FF00008454620787B2801D03C6055E0AE
:10337000601CFFF7E6FF044620787D2800D143E07B
:10338000A4F1010400BFFFF75CFB064606B945E067
:10339000B8F1000F02D1B046354602E02E607560EC
:1033A0003546601CFFF7CDFF04463A4621462846C5
:1033B000FFF706FE04462046FFF7C3FF044604B9A4
:1033C0002CE0286928624FF00000286120783A2814
:1033D00001D03C6022E0601CFFF7B3FF04463A4690
:1033E0002146284600F071F804462046FFF7A9FF61
:1033F000044604B912E020782C28C4D020787D2817
:1034000001D03C600AE000BF4FF04000C9F80C005A
:10341000C9F8088004F10100BDE8F087B8F1000F99
:1034200002D04046FFF71AFB0020F5E72DE9F047F0
:1034300007460C4690464FF00006B14620785B28C0
:1034400002D0C8F800403AE0601CFFF77AFF04465B
:1034500020785D2800D12AE0A4F1010400BFFFF725
:10346000F0FA054605B92AE016B92E46A94604E049
:10347000C9F80050C5F80490A946601CFFF761FF29
:10348000044642462146484600F01FF804462046BE
:10349000FFF757FF044604B911E020782C28DED04E
:1034A00020785D2802D0C8F8004008E000BF4FF047
:1034B0002000F860BE6004F10100BDE8F08716B19D
:1034C0003046FFF7CBFA0020F7E770B505460C460B
:1034D00016460CB9002070BD0422AFF220712046C0
:1034E0001CF04BF828B94FF00400E86004F1040028
:1034F000F1E7052247A120461CF03FF828B94FF01C
:103500000100E86004F10500E5E7042243A120463C
:103510001CF033F840B94FF00200E8604FF00100B2
:10352000686104F10400D6E72078222805D13246EC
:1035300021462846FFF744FDCDE720782D2805D009
:103540002078302807DB2078392804DC21462846FB
:10355000FFF7AFFABFE720785B2805D13246214656
:103560002846FFF763FFB6E720787B2805D132466F
:1035700021462846FFF7EFFEADE734600020AAE7BA
:103580002DE9F04781460D4690464FF000040DB1FD
:10359000284600E023480646FFF753FA07464FF057
:1035A000000030600FB9BDE8F0874846FFF7C9FE5C
:1035B0008246324651463846FFF787FF044624B913
:1035C0003846FFF74BFA0020EDE7B8F1000F0BD0BB
:1035D0002046FFF7B6FE0446207828B13846FFF7AC
:1035E0003DFA34600020DEE705B12C603846DAE7AA
:1035F00010B504464FF0000211462046FFF7C0FF09
:1036000010BD0000225C080C0A0D0900752530343D
:103610007800000066616C73650000007472756567
:1036200000000000480200202DE9FF4F89B08846C5
:1036300016461F464FF0000A504608900790044671
:10364000069005904FF0070004904FF000054FF0F2
:10365000000003900998D0F808902046029001904D
:10366000009005E0029800F101000290D9F8009066
:10367000B9F1000FF6D1029800283AD157B116B12E
:1036800008F1040000E0032001463846FFF769FA1C
:10369000079009E016B108F1040000E0032001469C
:1036A000002004F088F90790079818B900200DB0A1
:1036B000BDE8F08F079C4FF07B0004F8010B76B15A
:1036C0004FF00A0004F8010B4FF0000505E04FF041
:1036D000090004F8010B05F101054545F7D34FF04A
:1036E0007D0004F8010B4FF0000004F8010B07986F
:1036F000DDE7002F72D0BD6816B14FF0020001E087
:103700004FF0010004900499491C3846FFF729FA4C
:1037100004460CB90020CAE74FF07B0004F8010B07
:103720001EB14FF00A0004F8010B4FF000002070AA
:10373000B96804980844B8600998D0F8089008F16E
:1037400001087DE0CEB141463846FFF70AFA04464B
:103750000CB90020ABE74FF00000039007E04FF0FA
:10376000090004F8010B039800F10100039003988D
:103770004045F4D3B8684044B8603946D9F82000D1
:10378000FFF7DCFC08B9002091E73846FFF733FA71
:10379000B86016B14FF0020001E04FF00100049054
:1037A00038460499FFF7DDF904460CB900207EE79E
:1037B0004FF03A0004F8010B1EB14FF0090004F875
:1037C000010BB96804980844B8603B46324641464C
:1037D000484600F0BCFA10B9002068E75AE03846C5
:1037E000FFF709FAB8600EB1012000E00020D9F817
:1037F000001011B14FF0010101E04FF00001084449
:103800000490049901F101013846FFF7AAF9044632
:103810000CB900204BE7D9F8000018B14FF02C008C
:1038200004F8010B1EB14FF00A0004F8010B4FF031
:1038300000002070B96804980844B860D9F8009076
:10384000B9F1000F7FF47EAF16B108F1010000E07E
:10385000022001463846FFF784F904460CB90020DF
:1038600025E766B14FF0000505E04FF0090004F8C8
:10387000010B05F10105A8F10100A842F5D84FF0B0
:103880007D0004F8010B4FF00000207038682844D8
:1038900007901AE102988100002004F08CF882461B
:1038A000BAF1000F01D1002001E702988100002049
:1038B00004F081F80890089828B95146002004F0D7
:1038C00069F80020F3E60298810050461BF039FFAA
:1038D0000298810008981BF034FF0998D0F80890EE
:1038E00008F1010816B104984044049032E0002128
:1038F000D9F82000FFF722FC0590089941F825002F
:10390000002332464146484600F021FA294605F197
:10391000010506904AF821000598B0B10698A0B1BB
:1039200006981BF00BFE834605981BF007FE0BEB79
:103930000001891C16B108F1020001E04FF00000FF
:10394000014404980844049002E04FF00100019003
:10395000D9F80090B9F1000F02D001980028C6D024
:10396000019820B90020049904F025F807900798E1
:1039700010B94FF001000190019818B34FF0000505
:1039800013E0089850F8250028B1089850F8251041
:10399000002003F0FFFF5AF8250020B15AF8251047
:1039A000002003F0F7FF05F1010502988542E8D3F6
:1039B0000020089903F0EEFF5146002003F0EAFFD3
:1039C000002074E64FF07B0107980170079800F122
:1039D00001041EB14FF00A0004F8010B4FF0000083
:1039E0002070054650E076B14FF00000039007E0EC
:1039F0004FF0090004F8010B039800F10100039057
:103A000003984045F4D3089951F825001BF096FD22
:103A10000090089850F825102046009A1BF0F8FDF9
:103A2000009804444FF03A0004F8010B1EB14FF027
:103A3000090004F8010B5AF8251020461BF05AFD26
:103A40005AF825001BF07AFD04440298A0F1010009
:103A5000A84203D04FF02C0004F8010B1EB14FF028
:103A60000A0004F8010B4FF000002070089850F88D
:103A700025104FF0000003F08DFF5AF825100020AC
:103A800003F088FF05F1010502988542ABD30020C1
:103A9000089903F07FFF5146002003F07BFF66B1D9
:103AA0004FF0000505E04FF0090004F8010B05F1A7
:103AB0000105A8F10100A842F5D84FF07D0004F8F7
:103AC000010B4FF0000004F8010B0798EFE52DE91A
:103AD000FF4F85B092461E464FF0000B5C462046D5
:103AE00004904FF0050003900598D0F80880A14697
:103AF000254620460290019003E009F10109D8F81B
:103B00000080B8F1000FF8D1B9F1000F16D12EB135
:103B100003213046FFF725F8834604E00321002007
:103B200003F049FF8346BBF1000F03D0F7A15846CD
:103B30001BF0E0FC584609B0BDE8F08F002E63D0C2
:103B4000B56801213046FFF70CF804460CB9002097
:103B5000F1E74FF05B002070B06800F10100B06049
:103B60000598D0F8088036E0334652460699491C3D
:103B7000404600F0ECF808B90020DCE73046FFF7DB
:103B80003AF8B060D8F8000018B3BAF1000F02D0CC
:103B90004FF0020001E04FF0010003900399491C2F
:103BA0003046FEF7DEFF04460CB90020C3E74FF0B5
:103BB0002C0004F8010BBAF1000F03D04FF02000E5
:103BC00004F8010B4FF000002070B168039808441E
:103BD000B060D8F80080B8F1000F02D00298002839
:103BE000C2D002213046FEF7BCFF04460CB90020CB
:103BF000A1E74FF05D0004F8010B4FF000002070CA
:103C0000306800EB050BA0E04FEA8901002003F0CB
:103C1000D2FE07460FB900208DE74FEA89013846EA
:103C20001BF08FFD0598D0F8088025E00023524650
:103C30000699491C404600F08AF80490294605F18F
:103C40000105049847F82100049880B104981BF0FE
:103C500075FC801CBAF1000F02D04FF0010101E0A9
:103C60004FF00001014403980844039002E04FF034
:103C700001000290D8F80080B8F1000F02D002983D
:103C80000028D3D0029820B90020039903F093FEB6
:103C90008346BBF1000F02D14FF001000290029861
:103CA000A0B14FF0000509E057F8250020B157F802
:103CB0002510002003F06EFE05F101054D45F3D3FC
:103CC0003946002003F066FE002034E74FF05B0029
:103CD0008BF800000BF101044FF000002070054646
:103CE00025E057F825001BF029FC019057F8251016
:103CF0002046019A1BF08CFC01980444A9F10100B4
:103D0000A8420DD04FF02C0004F8010BBAF1000FBF
:103D100003D04FF0200004F8010B4FF0000020709A
:103D200057F82510002003F035FE05F101054D453B
:103D3000D7D33946002003F02DFE4FF05D0004F884
:103D4000010B4FF0000004F8010B5846F3E62DE993
:103D5000F0470446884691461D464FF0000614B9C8
:103D60000020BDE8F087002D77D0E068C0B21028B1
:103D700058D008DC012819D0022823D0042809D003
:103D8000082866D12AE0202852D0402858D0802820
:103D90005FD129E005212846FEF7E3FE064626B15D
:103DA000AFF6E87130461BF0A5FB55E0062128462A
:103DB000FEF7D7FE064626B1AFF2A87130461BF0DB
:103DC00099FB49E005212846FEF7CBFE064626B1C1
:103DD000AFF2B87130461BF08DFB3DE0294620461E
:103DE000FEF71CFF064637E04FF00007206940B998
:103DF000E86818B90020296803F0CCFD4FF00006F0
:103E00002AE020691BF09AFB00F104073946284696
:103E1000FEF7A7FE064626B13A46304621691BF05A
:103E2000F7FB19E029462046FFF783FA064613E020
:103E30002B464A4641462046FFF749FE06460BE020
:103E40002B464A4641462046FFF7EEFB064603E076
:103E500003E04FF0000600BF4AE0E068C0B210285F
:103E60002CD008DC012812D0022816D0042809D052
:103E7000082839D117E0202826D040282CD08028C7
:103E800032D116E02248FEF7BFFD06462FE0AFF61E
:103E90007C00FEF7B9FD064629E0AFF68000FEF78C
:103EA000B3FD064623E000212046FEF7B7FE064696
:103EB0001DE02069FEF7A8FD064618E00021204617
:103EC000FFF737FA064612E000234A4641462046ED
:103ED000FFF7FDFD06460AE000234A46414620461C
:103EE000FFF7A2FB064602E04FF0000600BF00BF4E
:103EF000304636E710B504464FF000034FF001029C
:103F000019462046FFF723FF10BD00005B5D00004F
:103F1000BC2D000810B504464FF000031A461946A0
:103F20002046FFF714FF10BD7FB505460C46164628
:103F3000002C02DA002004B070BD2146002003F0FE
:103F40003AFD0090009808B90020F4E701944FF082
:103F50000000029003906B46324601462846FFF768
:103F6000F6FEE8E72DE9FF4107460D4614461E46DA
:103F7000002C03DA002004B0BDE8F0810095019424
:103F80004FF0000002904FF0010003906B46324664
:103F90004FF000013846FFF7DAFE08B10120EAE7EA
:103FA0000020E8E701468A684FF0000002E000F1D7
:103FB00001001268002AFAD1704702460AB19368DC
:103FC00001E04FF00003184602E0A1F10101006892
:103FD00008B10029F9DC704770B505460E460DB1F1
:103FE000A86801E04FF00000044600E024682CB10E
:103FF0003146206AFEF7E0FC0028F7D1204670BD6C
:1040000070B504460D4629462046FFF7E5FF08B186
:10401000012070BD0020FCE701604860704770B56A
:104020000546FEF70EFD04460CB9002070BD28229F
:10403000294620461BF031FB4FF000002062E0686B
:1040400040F48070E0604FF0000060602060204627
:10405000ECE770B504460E464FF0000506B104B912
:1040600070BDA5680DB9A66008E000E02D6828685D
:104070000028FBD131462846FFF7CEFF00BFEFE70F
:1040800070B506460D46144604B970BDE06810F4DC
:10409000007F05D1206A18B10020216A03F07AFC64
:1040A0002562E06840F40070E06021463046FFF78A
:1040B000D0FF00BFE9E72DE9F04106460D46144662
:1040C0002846FEF7A1FC0746224639463046FFF750
:1040D000D7FFE06820F40070E060BDE8F08170B5C3
:1040E00005460C462046FFF79AFF0646314628460D
:1040F000FFF7AFFF70BD2DE9F04105460E461446AF
:104100002046FFF78CFF07463A4631462846FFF720
:10411000D2FFBDE8F08110B502460B46916802E07F
:104120000968A3F1010309B1002BF9D109B90020F5
:1041300010BD486810B1D1E900042060086810B1D2
:10414000D1E9004060609068884201D108689060C1
:104150004FF00000086048600846E9E770B5054682
:104160000C46002C01DA002070BD21462846FFF7DE
:10417000D2FFF9E770B504460D4629462046FFF701
:10418000EDFF0646FEF76AFC70BD2DE9F0410546DD
:104190000F464FF00006AC6802E006F10106246805
:1041A0002CB13946206AFEF707FC0028F5D12CB166
:1041B00031462846FFF7AFFFBDE8F0810020FBE75E
:1041C00070B504460D4629462046FFF7DEFF064639
:1041D000FEF744FC70BD2DE9F04106460F4614463B
:1041E000B56802E02D68A7F101070DB1002FF9DCD9
:1041F0002DB921463046FFF72CFFBDE8F081256040
:10420000686860606C60B068A84201D1B46001E089
:104210006068046000BFF0E72DE9F04106460F46F4
:104220001446B56802E02D68A7F101070DB1002F13
:10423000F9D10DB9BDE8F081286820606868606038
:10424000206808B120684460B068A84201D1B46019
:1042500001E0606804604FF0000068602860284654
:10426000FEF7FCFB00BFE5E770B505460C461646B9
:10427000002C00DA70BD324621462846FFF7CCFFFD
:1042800000BFF7E72DE9F04106460F4614464FF010
:104290000008B56802E008F101082D682DB1394623
:1042A000286AFEF789FB0028F5D195B1E06810F483
:1042B000007F05D1206A18B10020216A03F06AFB53
:1042C0003846FEF7A1FB2062224641463046FFF702
:1042D000A3FFBDE8F08110B5FEF7B3FB044614B1AF
:1042E0004FF00400E060204610BD10B5FEF7A9FBBA
:1042F000044614B14FF00200E060204610BD10B536
:10430000FEF79FFB044614B14FF00100E060204629
:1043100010BD70B50546FEF794FB044634B115B1E7
:104320004FF0020001E04FF00100E060204670BD58
:1043300070B504460D46FEF784FB0646FEB14FF00D
:104340000800F060C6E90645F04AF14B20462946D0
:104350001DF01CFF03D86FF0004070610FE00022D9
:10436000EC4B204629461DF0D7FD03D84FF0004006
:10437000706104E0204629461DF046FD706130461C
:1043800070BD70B50546FEF75CFB04466CB14FF09E
:104390001000E0602846FEF737FB2061206920B955
:1043A0002046FEF75BFB002070BD2046FCE770B5A1
:1043B0000546FEF746FB04466CB14FF08000E06016
:1043C0002846FEF721FB2061206920B92046FEF730
:1043D00045FB002070BD2046FCE710B5FEF731FB21
:1043E000044614B14FF02000E060204610BD10B527
:1043F000FEF727FB044614B14FF04000E060204672
:1044000010BD2DE9F05F824688464FF00006374622
:10441000B346B146B8F1000F02DA0020BDE8F09FC4
:10442000FFF7DBFF81464FF0000618E05AF8260040
:104430001DF047FD0446FFF77BFF074627B94846B6
:10444000FEF70CFB0020E9E716B9C9F8087003E095
:1044500039465846FFF7E0FDBB4606F10106B9F1C3
:10446000000F01D04645E1D34846D7E72DE9F05F7C
:10447000824688464FF000063746B346B146B8F14B
:10448000000F02DA0020BDE8F09FFFF7A6FF81468B
:104490004FF0000618E05AF826001DF0A3FF04466E
:1044A000FFF746FF074627B94846FEF7D7FA002030
:1044B000E9E716B9C9F8087003E039465846FFF72E
:1044C000ABFDBB4606F10106B9F1000F01D0464530
:1044D000E1D34846D7E72DE9F04780460E464FF036
:1044E00000042546A1462746002E02DA0020BDE83A
:1044F000F087FFF772FF07464FF0000417E008EB64
:10450000C400D0E900211046FFF712FF054625B987
:104510003846FEF7A3FA0020E9E70CB9BD6003E0D6
:1045200029464846FFF778FDA94604F101040FB17A
:10453000B442E4D33846DAE72DE9F04780460E4628
:104540004FF000042546A1462746002E02DA00203F
:10455000BDE8F087FFF741FF07464FF0000414E085
:1045600058F82400FFF70DFF054625B93846FEF739
:1045700075FA0020ECE70CB9BD6003E02946484617
:10458000FFF74AFDA94604F101040FB1B442E7D395
:104590003846DDE72DE9F047044689464FF000052F
:1045A0002F46A8462E4604B945E0FEF74AFA0546CE
:1045B00005B940E0E06820F48070E86060696861F7
:1045C000D4E90601C5E90601206930B12069FEF78A
:1045D0001BFA2861286900B92DE0206A60B1E06803
:1045E00010F4007F01D0206A02E0206AFEF70CFA86
:1045F0002862286A00B91EE0B9F1000F02D12846EE
:10460000BDE8F087A76812E001213846FFF7C2FF36
:10461000064606B90FE0B8F1000F05D0C8F80060F3
:10462000C6F80480B04601E0AE60B0463F68002F97
:10463000EAD12846E4E715B12846FEF70FFA002034
:10464000DEE701465CE00278202A02D100F1010099
:1046500056E00278092A02D100F1010050E0027808
:104660000D2A02D100F101004AE002780A2A02D1A3
:1046700000F1010044E002782F2A0CD142782F2A61
:1046800009D101E000F101000278002A38D0027857
:104690000A2A35D0F6E702782F2A10D142782A2A42
:1046A0000DD101E000F1010002782AB102782A2A36
:1046B000F8D142782F2AF5D100F1020020E00278EB
:1046C000222A19D110F8012B01F8012B0AE00278F7
:1046D0005C2A03D110F8012B01F8012B10F8012BF3
:1046E00001F8012B027812B10278222AEFD110F8DA
:1046F000012B01F8012B03E010F8012B01F8012B2D
:104700000278002A9FD10A70704700000000C0FFA5
:10471000FFFFDF410000E0C108B50121512000F09A
:1047200065FF4FF003008DF8020040F24150ADF8F4
:1047300000004FF010008DF803006946124800F0A9
:104740004BFC4FF00600ADF800004FF048008DF82C
:10475000030069460C4800F03FFC4FF01800ADF82C
:1047600000004FF048008DF803006946074800F04C
:1047700033FC0121044800F0EDFC4FF4A86102482D
:1047800000F0E6FC08BD00000010014000180140E8
:10479000384940EA0101384A1160704770B54FF05E
:1047A00000010B464FF00F02C4784CB3324C246822
:1047B00004F4E064C4F5E0644FEA1421C1F1040399
:1047C00022FA01F2447804FA03F1847804EA02043C
:1047D00044EA01014FEA0111284C0678A1550478FA
:1047E00004F01F054FF0010404FA05F405784FEAC0
:1047F00065154FF0E02606EB8505C5F800410CE095
:10480000047804F01F054FF0010404FA05F41C4D70
:1048100006784FEA661645F8264070BD194A01EA47
:10482000020242EA0002184B1A60704731B1174A7F
:10483000126842EA0002154B1A6005E0134A12683A
:1048400022EA0002114B1A607047042808D14FF089
:10485000E021096941F004014FF0E022116107E015
:104860004FF0E021096921F004014FF0E0221161CD
:10487000704700000000FA050CED00E000E400E0E5
:1048800080E100E080FFFF1F08ED00E010ED00E098
:1048900030B943F2DB014FF0204242F8201005E02E
:1048A00043F2D2014FF0204242F820106FF07042E4
:1048B00000F101014FF0204343F8212011461A4630
:1048C00002EB8002C2F80411704710280CD14FF09F
:1048D00018014FF0204211664FF0400151664FF031
:1048E000FC319166D16611E04FF01801F64A116073
:1048F0004FF040014FF02042C2F884104FF0FC31DD
:10490000F24A11604FF02042C2F88C1070474FF00D
:104910001800EF4908604FF000004FF02041C1F847
:10492000A4004FF0FC30EB49086001F1040108607D
:1049300001F1040108607047D0E9011241EA020167
:10494000C26841EA0201026941EA0201426941EAA0
:104950000201826941EA0201C26941EA0201026A76
:1049600041EA0201426A41EA0201826A41EA020125
:10497000C26A41EA0201026B41EA02014FF02043A0
:10498000026843F822108168082908D11A46016894
:1049900052F8211041F04001026843F82210416BA7
:1049A0000968426B526841EA0211426B926841EA1F
:1049B0000221426BD26841EA0241426B126941EA2C
:1049C0000251426B526941EA0261426B926941EACB
:1049D0000201026802F101024FF0204343F8221065
:1049E000C16AB1F5804F1BD1816B0968826B526837
:1049F00041EA0211826B926841EA0221826B1269DC
:104A000041EA0251826B526941EA0261826B92690A
:104A100041EA0201026803EB8202C2F8041108E0D5
:104A20006FF070414FF02043026803EB8202C2F83E
:104A30000411704730B54FF000010A460B46446838
:104A400044F00804856844EA0504C56844EA05049E
:104A5000056944EA0504456944EA4524856944EA50
:104A60004531C4692468C5696D6844EA0524C5698F
:104A7000AD6844EA0544C569ED6844EA0562046A24
:104A80002468056A6D6844EA0524056AAD6844EA4D
:104A90000544056AED6844EA05630468102C05D1F5
:104AA0004FF020442166A266E36607E0864C216051
:104AB0004FF02044C4F88820874C236030BD016843
:104AC00041F01001426841EA4221826841EA4231E4
:104AD0007F4A1160C1680968C268526841EA0221D0
:104AE000C268926841EA0241C268D26841EA026142
:104AF000784A1160016909680269526841EA022135
:104B00000269926841EA02410269D26841EA02619F
:104B1000724A1160416909684269526841EA02219A
:104B20004269926841EA02414269D26841EA0261FF
:104B30004FF02042C2F8B01070474FF00001016002
:104B40004FF0020141604FF000018160C1600161DE
:104B500041618161C16101624FF4805141624FF452
:104B6000005181624FF00001C16201634FF00F01FB
:104B7000426B1160426B51604FF0FF01426B9160DC
:104B80004FF00F01426BD160426B1161426B51617A
:104B90004FF00001426B91614FF00F01826B116089
:104BA000826B51604FF0FF01826B91604FF00F01FB
:104BB000826BD160826B1161826B51614FF0000199
:104BC000826B916170474FF0100101604FF000015E
:104BD00041608160C1600161416181614FF0FC0110
:104BE000C2691160C2695160C2699160C269D160D5
:104BF000026A1160026A5160026A9160026AD160C1
:104C000070474FF000010160416081604FF0FC018E
:104C1000C2681160C2685160C2689160C268D160A8
:104C20000269116002695160026991600269D16094
:104C30004269116042695160426991604269D16084
:104C4000704751B14FF0204252F8202042F001024B
:104C50004FF0204343F820200AE04FF0204252F862
:104C600020201F4B02EA03024FF0204343F820208C
:104C7000704799B1102808D14FF02042126E42F0CF
:104C800004024FF020431A661DE00F4A126842F0FA
:104C900004024FF02043C3F8802014E0102809D10B
:104CA0004FF02042126E0F4B02EA03024FF02043F6
:104CB0001A6608E0044A12680A4B02EA03024FF03F
:104CC0002043C3F880207047800000A0880000A027
:104CD000A00000A0A80000A08C0000A0AC0000A0D4
:104CE000FEFF0F00FBFF0F0040B18449096841F04F
:104CF00004014FF02042C2F8A01008E07F49096883
:104D00007F4A01EA02014FF02042C2F8A01070472A
:104D100099B1102808D14FF02042126E42F04002A3
:104D20004FF020431A661DE0764A126842F04002B6
:104D30004FF02043C3F8802014E0102809D14FF031
:104D40002042126E704B02EA03024FF020431A66B3
:104D500008E06C4A12686C4B02EA03024FF02043F1
:104D6000C3F88020704701464FF00000102903D19E
:104D70004FF02042506F01E0644A1068704710B550
:104D8000FAB1102808D14FF020435B6E43EA0103CB
:104D90004FF02044636633E0B0F5807F08D15C4B70
:104DA0001B6843EA01034FF02044C4F8843027E035
:104DB000584B1B6843EA01034FF02044C4F8A43069
:104DC0001EE0102808D14FF020435B6E23EA010358
:104DD0004FF02044636613E0B0F5807F08D14C4B60
:104DE0001B6823EA01034FF02044C4F8843007E035
:104DF000484B1B6823EA01034FF02044C4F8A43059
:104E000010BD10B502464FF000000346102A03D132
:104E10004FF02044636E07E0B2F5807F02D13C4C36
:104E2000236801E03B4C23680B4202D04FF00100A5
:104E300001E04FF0000010BD102808D14FF02042D3
:104E4000526E22EA01024FF020435A6613E0B0F599
:104E5000807F08D12E4A126822EA01024FF02043D7
:104E6000C3F8842007E02B4A126822EA01024FF0BF
:104E70002043C3F8A420704770B502464FF00000ED
:104E8000034604460546102A03D14FF02046736EB0
:104E900007E0B2F5807F02D11D4E336801E01D4E60
:104EA000336803EA010403EAD1051CB115B14FF0E0
:104EB000010001E04FF0000070BD102808D14FF054
:104EC0002042526E22EAD1024FF020435A6613E08C
:104ED000B0F5807F08D10E4A126822EAD1024FF065
:104EE0002043C3F8842007E00A4A126822EAD1026C
:104EF0004FF02043C3F8A42070470000A00000A09A
:104F0000FBFF0F00800000A0BFFF0F00940000A077
:104F1000840000A0A40000A010B50446DE4884422E
:104F200008D10121042000F07FFB0021042000F0C3
:104F30007BFB46E0D948844208D10121082000F0DB
:104F400073FB0021082000F06FFB3AE0D448844254
:104F500008D10121102000F067FB0021102000F093
:104F600063FB2EE0CF48844208D10121202000F0CD
:104F70005BFB0021202000F057FB22E0CA4884425E
:104F800008D10121402000F04FFB0021402000F01B
:104F90004BFB16E0C548844208D10121802000F077
:104FA00043FB0021802000F03FFB0AE0C048844220
:104FB00007D10121801500F037FB0021A01500F07A
:104FC00033FB10BD10B50121084600F02DFB002178
:104FD000012000F029FB10BD2DE9F04102464FF001
:104FE00000052E46284603460446074691F803C0AE
:104FF0000CF00F0591F803C01CF0100F03D091F8CE
:1050000002C04CEA0505B1F800C01CF0FF0F35D016
:1050100014684FF000002EE04FF0010C0CFA00F382
:10502000B1F800C00CEA03069E4222D14FEA800389
:105030004FF00F0C0CFA03F724EA070405FA03FCFF
:105040004CEA040491F803C0BCF1280F06D14FF0DC
:10505000010C0CFA00FCC2F814C00AE091F803C07D
:10506000BCF1480F05D14FF0010C0CFA00FCC2F85E
:1050700010C000F101000828CED31460B1F800C0C0
:10508000BCF1FF0F38DD54684FF0000031E000F153
:10509000080C4FF0010808FA0CF3B1F800C00CEA54
:1050A00003069E4223D14FEA80034FF00F0C0CFA07
:1050B00003F724EA070405FA03FC4CEA040491F818
:1050C00003C0BCF1280F05D100F1080C08FA0CF858
:1050D000C2F8148091F803C0BCF1480F07D100F169
:1050E000080C4FF0010808FA0CF8C2F8108000F123
:1050F00001000828CBD35460BDE8F0814FF6FF7162
:1051000001804FF0020181704FF00401C1707047BF
:1051100002464FF0000093680B4202D04FF00100AE
:1051200001E04FF0000070470146886880B2704788
:1051300002464FF00000D3680B4202D04FF001004E
:1051400001E04FF0000070470146C86880B2704728
:1051500001617047416170470AB1016100E041613E
:105160007047C16070474FF4803242EA01028261A9
:105170008161826182698269704702464FF0000056
:105180004C4B18684FF6807300EA030040EA0210A7
:1051900040EA0100474B186070474749C8617047B3
:1051A000F0B50A464FF000031C4619460D4600F0C4
:1051B0000046B6F1004F02D13E4EF16901E03D4E8E
:1051C0007168C0F3034583B200F44016B6F5401F82
:1051D00008D121F07061374E766826F07066354F41
:1051E0007E6017E000F48016B6F5801F08D14FF0FE
:1051F000030606FA05F421EA040141F0706109E0B2
:105200004FEA50564FEA061603FA06F621EA06015F
:1052100041F070613AB14FEA50564FEA061603FA70
:1052200006F646EA010100F00046B6F1004F02D151
:10523000204EF16101E01F4E7160F0BD30B54FF0BE
:1052400000024FEA81734FEA13744FF00F0303FA21
:1052500004F21A4B4FEAA10453F8243023EA020364
:10526000164C4FEAA10544F8253023464FEAA10425
:1052700053F824304FEA81744FEA147400FA04F4AE
:1052800043EA04030D4C4FEAA10544F8253030BD34
:105290000B4908607047000000080140000C014005
:1052A000001001400014014000180140001C0140A2
:1052B00000200140000001400000204208000140A1
:1052C000DC002042F748006840F00100F549086022
:1052D00008464068F44900EA0100F249486008467F
:1052E0000068F24900EA0100EE49086008460068DB
:1052F00020F4802008600846406820F4FE004860E2
:105300004FF41F0088607047E649096821F4803136
:10531000E44A11601146096821F480211160B0F55A
:10532000803F03D0B0F5802F0ED106E0DD4909683B
:1053300041F48031DB4A116007E0DA49096841F441
:10534000A021D84A116000E000BF00BF704710B52F
:1053500001464FF00002134610464FEA6112012A3F
:1053600002D1D04C236806E0022A02D1CD4C236A38
:1053700001E0CC4C636A01F01F024FF0010404FA13
:1053800002F41C4202D04FF0010001E04FF0000097
:1053900010BD70B54FF000042546264600BF3120F1
:1053A000FFF7D5FF064604F10104B4F5A06F01D064
:1053B000002EF4D03120FFF7CAFF10B14FF00105E5
:1053C00001E04FF00005284670BD01464FF0000097
:1053D000B44A106820F0F80040EAC100106070473D
:1053E000B3490860704702464FF00000AD4B586863
:1053F00020F47C1042EA010343EA0000A94B586004
:105400007047AB490866704701464FF00000A54A57
:10541000506820F0030040EA010050607047A14846
:10542000406800F00C00704701464FF000009D4AB4
:10543000506820F0F00040EA0100506070470146DB
:105440004FF00000974A506820F4E06040EA010005
:105450005060704701464FF00000924A506820F4B7
:10546000605040EAC1005060704731B18D4A527AB5
:1054700042EA00028B4B5A7208E08A4A527A6FEA7B
:105480000003DBB202EA0302864B5A727047894975
:105490000860704701464FF00000824A506820F4CF
:1054A000404040EA0100506070474FF00001824ADE
:1054B00011707C4A82F82010012802D004280AD1F9
:1054C00004E04FF001017C4A117005E04FF0050146
:1054D000794A117000E000BF00BF7047774908604B
:1054E00070477049096A41EA00016E4A11627047CB
:1054F00073490860704730B54FF000010A460C460A
:105500000B46684D6D6805F00C0121B1042905D0EA
:10551000082927D105E06B4D056026E0694D05603F
:1055200023E0604D6D6805F470125E4D6D6805F402
:1055300080344FF0020505EB924224B9624D02FB24
:1055400005F505600DE0574D6D6815F4003F04D07A
:105550005D4D02FB05F5056003E05A4D02FB05F5C4
:10556000056002E0574D056000BF00BF4D4D6D68FE
:1055700005F0F0014FEA1111544D6B5C056825FAF6
:1055800003F54560474D6D6805F4E0614FEA112170
:105590004E4D6B5C456825FA03F58560414D6D689D
:1055A00005F460514FEAD121484D6B5C456825FAFE
:1055B00003F5C5603B4D6D6805F440414FEA9131FC
:1055C000434D6B5CC568B5FBF3F5056130BD31B18A
:1055D000344A526942EA0002324B5A6105E0314ACC
:1055E000526922EA00022F4B5A61704731B12D4AAD
:1055F000926942EA00022B4B9A6105E0294A9269BE
:1056000022EA0002274B9A61704731B1254AD269DC
:1056100042EA0002234BDA6105E0224AD26922EA1B
:105620000002204BDA61704731B11E4AD26842EA6B
:1056300000021C4BDA6005E01A4AD26822EA000236
:10564000184BDA60704731B1164A126942EA00021B
:10565000144B1A6105E0134A126922EA0002114B49
:105660001A6170471B49086070471149C864704748
:105670000C49C87170470B48406A40F08070094976
:105680004862704701464FF00000064A92680A429D
:1056900002D04FF0010001E04FF0000070470149D7
:1056A00088727047001002400000FFF8FFFFF6FE0E
:1056B00000004242D8004242201002408004424290
:1056C0003C04424200127A0000093D004C020020D6
:1056D0005C0200204004424210B50446FE48844269
:1056E00008D10121C014FFF79FFF0021E014FFF74C
:1056F0009BFFC4E0B4F1804F08D101210846FFF7B9
:10570000A2FF00210120FFF79EFFB8E0F34884428A
:1057100008D101210220FFF796FF00210220FFF7A8
:1057200092FFACE0EE48844208D101210420FFF74B
:105730008AFF00210420FFF786FFA0E0E9488442A9
:1057400008D101210820FFF77EFF00210820FFF784
:105750007AFF94E0E448844208D101211020FFF749
:1057600072FF00211020FFF76EFF88E0DF488442BF
:1057700008D101212020FFF766FF00212020FFF73C
:1057800062FF7CE0DA48844208D101214014FFF72F
:105790004BFF00216014FFF747FF70E0D5488442BB
:1057A00009D10121C804FFF73FFF00214FF4002079
:1057B000FFF73AFF63E0D048844209D10121080590
:1057C000FFF732FF00214FF48010FFF72DFF56E066
:1057D000CA48844209D101214805FFF725FF00216D
:1057E0004FF40010FFF720FF49E0C548844208D17C
:1057F00001214020FFF727FF00214020FFF723FF72
:105800003DE0C048844208D101218020FFF71BFF02
:1058100000218020FFF717FF31E0BB48844208D108
:1058200001218015FFF70FFF0021A015FFF70BFFE7
:1058300025E0B648844209D101210804FFF7F4FEAF
:1058400000214FF48030FFF7EFFE18E0B0488442AB
:1058500009D101214804FFF7E7FE00214FF4003091
:10586000FFF7E2FE0BE0AB48844208D10121880437
:10587000FFF7DAFE00214FF48020FFF7D5FE10BDC0
:105880004FF000020288944B98420ED0984B9842F9
:105890000BD0B0F1804F08D0904B984205D0904B80
:1058A000984202D08F4B984206D14FF68F7302EA8E
:1058B00003024B8843EA02028B4B984209D08B4B80
:1058C000984206D04FF6FF4302EA0302CB8843EA30
:1058D000020202808B8883850B8803857E4B984269
:1058E0000BD0834B984208D0884B984205D0884B08
:1058F000984202D0874B984201D10B7A03864FF031
:1059000001038382704770B54FF0000422461346AE
:10591000058C4FF6FE7605EA06050584028C838821
:10592000048B4FF68F7504EA05044FF6FC7504EA04
:1059300005040D8845EA04044FF6FD7502EA0502E8
:105940000D8945EA02024D8845EA0202624DA842ED
:105950000BD0674DA84208D06C4DA84205D06C4DC5
:10596000A84202D06B4DA8421BD14FF6F77502EA50
:1059700005024D8945EA02024FF6FB7502EA05026F
:105980008D8845EA02024FF6FF6503EA05034FF6EC
:10599000FF5503EA05038D8945EA0303CD8945EAEE
:1059A000030383800483CD888586028470BD70B52F
:1059B0004FF0000422461346058C4FF6EF7605EAB9
:1059C00006050584028C8388048B48F6FF7504EA7B
:1059D00005044FF6FF4504EA05040D884FEA056506
:1059E00044EA15444FF6DF7502EA05020D894FEAD5
:1059F000055542EA15424D884FEA055542EA1542DF
:105A0000354DA84202D03A4DA84223D14FF67F75BA
:105A100002EA05024D894FEA055542EA15424FF662
:105A2000BF7502EA05028D884FEA055542EA154224
:105A30004FF6FF3503EA05034FF2FF7503EA05034E
:105A40008D894FEA854543EA1543CD894FEA85455F
:105A500043EA154383800483CD880587028470BDA3
:105A600070B54FF0000422461346058C4FF6FF66D2
:105A700005EA06050584028C8388848B4FF68F75B2
:105A800004EA05044FF6FC7504EA05040D8845EAAE
:105A900004044FF6FF5502EA05020D894FEA056539
:105AA00042EA15424D884FEA056542EA15420A4D21
:105AB000A84202D00E4DA84244D14FF2FF7502EA2F
:105AC00005024D894FEA056542EA15424FF6FF355A
:105AD00002EA05028D881FE0002C0140000400400E
